{
	"Contract1.sol": {
		"NumberStorage": {
			"abi": [
				{
					"inputs": [
						{
							"internalType": "uint256",
							"name": "initialNumber",
							"type": "uint256"
						},
						{
							"internalType": "string",
							"name": "initialComment",
							"type": "string"
						}
					],
					"stateMutability": "nonpayable",
					"type": "constructor"
				},
				{
					"anonymous": false,
					"inputs": [
						{
							"indexed": true,
							"internalType": "address",
							"name": "user",
							"type": "address"
						},
						{
							"indexed": false,
							"internalType": "uint256",
							"name": "oldNumber",
							"type": "uint256"
						},
						{
							"indexed": false,
							"internalType": "uint256",
							"name": "newNumber",
							"type": "uint256"
						},
						{
							"indexed": false,
							"internalType": "string",
							"name": "oldComment",
							"type": "string"
						},
						{
							"indexed": false,
							"internalType": "string",
							"name": "newComment",
							"type": "string"
						},
						{
							"indexed": false,
							"internalType": "uint256",
							"name": "blockNumber",
							"type": "uint256"
						}
					],
					"name": "NumberUpdated",
					"type": "event"
				},
				{
					"inputs": [
						{
							"internalType": "address",
							"name": "",
							"type": "address"
						}
					],
					"name": "dataStore",
					"outputs": [
						{
							"internalType": "uint256",
							"name": "number",
							"type": "uint256"
						},
						{
							"internalType": "string",
							"name": "comment",
							"type": "string"
						},
						{
							"internalType": "uint256",
							"name": "blockNumber",
							"type": "uint256"
						}
					],
					"stateMutability": "view",
					"type": "function"
				},
				{
					"inputs": [
						{
							"internalType": "uint256",
							"name": "newNumber",
							"type": "uint256"
						},
						{
							"internalType": "string",
							"name": "newComment",
							"type": "string"
						}
					],
					"name": "setNumber",
					"outputs": [],
					"stateMutability": "nonpayable",
					"type": "function"
				}
			],
			"devdoc": {
				"kind": "dev",
				"methods": {},
				"version": 1
			},
			"evm": {
				"assembly": "    /* \"Contract1.sol\":60:2056  contract NumberStorage {... */\n  mstore(0x40, 0x80)\n    /* \"Contract1.sol\":767:1238  constructor(uint256 initialNumber, string memory initialComment) {... */\n  callvalue\n  dup1\n  iszero\n  tag_1\n  jumpi\n  0x00\n  dup1\n  revert\ntag_1:\n  pop\n  mload(0x40)\n  sub(codesize, bytecodeSize)\n  dup1\n  bytecodeSize\n  dup4\n  codecopy\n  dup2\n  add\n  0x40\n  dup2\n  swap1\n  mstore\n  tag_2\n  swap2\n  tag_3\n  jump\t// in\ntag_2:\n    /* \"Contract1.sol\":939:1070  Data({... */\n  0x40\n  dup1\n  mload\n  0x60\n  dup2\n  add\n  dup3\n  mstore\n  dup4\n  dup2\n  mstore\n  0x20\n  dup1\n  dup3\n  add\n  dup5\n  dup2\n  mstore\n    /* \"Contract1.sol\":1046:1058  block.number */\n  number\n    /* \"Contract1.sol\":939:1070  Data({... */\n  dup4\n  dup6\n  add\n  mstore\n    /* \"Contract1.sol\":925:935  msg.sender */\n  caller\n  0x00\n    /* \"Contract1.sol\":915:936  dataStore[msg.sender] */\n  swap1\n  dup2\n  mstore\n  swap2\n  dup3\n  swap1\n  mstore\n  swap3\n  swap1\n  keccak256\n    /* \"Contract1.sol\":915:1070  dataStore[msg.sender] = Data({... */\n  dup2\n  mload\n  dup2\n  sstore\n  swap2\n  mload\n    /* \"Contract1.sol\":939:1070  Data({... */\n  swap1\n  swap2\n    /* \"Contract1.sol\":915:936  dataStore[msg.sender] */\n  swap1\n    /* \"Contract1.sol\":915:1070  dataStore[msg.sender] = Data({... */\n  0x01\n  dup3\n  add\n  swap1\n  tag_6\n  swap1\n  dup3\n  tag_7\n  jump\t// in\ntag_6:\n  pop\n  0x40\n  swap2\n  dup3\n  add\n  mload\n  0x02\n  swap1\n  swap2\n  add\n  sstore\n    /* \"Contract1.sol\":1153:1230  NumberUpdated(msg.sender, 0, initialNumber, \"\", initialComment, block.number) */\n  mload\n    /* \"Contract1.sol\":1167:1177  msg.sender */\n  caller\n  swap1\n    /* \"Contract1.sol\":1153:1230  NumberUpdated(msg.sender, 0, initialNumber, \"\", initialComment, block.number) */\n  0x69cb07637fd66ebf084ed869c8607728f6fcfd4e670d451eb31f280c64b57698\n  swap1\n  tag_8\n  swap1\n    /* \"Contract1.sol\":1179:1180  0 */\n  0x00\n  swap1\n    /* \"Contract1.sol\":1182:1195  initialNumber */\n  dup7\n  swap1\n    /* \"Contract1.sol\":1201:1215  initialComment */\n  dup7\n  swap1\n    /* \"Contract1.sol\":1217:1229  block.number */\n  number\n  swap1\n    /* \"Contract1.sol\":1153:1230  NumberUpdated(msg.sender, 0, initialNumber, \"\", initialComment, block.number) */\n  tag_9\n  jump\t// in\ntag_8:\n  mload(0x40)\n  dup1\n  swap2\n  sub\n  swap1\n  log2\n    /* \"Contract1.sol\":767:1238  constructor(uint256 initialNumber, string memory initialComment) {... */\n  pop\n  pop\n    /* \"Contract1.sol\":60:2056  contract NumberStorage {... */\n  jump(tag_16)\n    /* \"#utility.yul\":14:141   */\ntag_11:\n    /* \"#utility.yul\":75:85   */\n  0x4e487b71\n    /* \"#utility.yul\":70:73   */\n  0xe0\n    /* \"#utility.yul\":66:86   */\n  shl\n    /* \"#utility.yul\":63:64   */\n  0x00\n    /* \"#utility.yul\":56:87   */\n  mstore\n    /* \"#utility.yul\":106:110   */\n  0x41\n    /* \"#utility.yul\":103:104   */\n  0x04\n    /* \"#utility.yul\":96:111   */\n  mstore\n    /* \"#utility.yul\":130:134   */\n  0x24\n    /* \"#utility.yul\":127:128   */\n  0x00\n    /* \"#utility.yul\":120:135   */\n  revert\n    /* \"#utility.yul\":146:1142   */\ntag_3:\n    /* \"#utility.yul\":235:241   */\n  0x00\n    /* \"#utility.yul\":243:249   */\n  dup1\n    /* \"#utility.yul\":296:298   */\n  0x40\n    /* \"#utility.yul\":284:293   */\n  dup4\n    /* \"#utility.yul\":275:282   */\n  dup6\n    /* \"#utility.yul\":271:294   */\n  sub\n    /* \"#utility.yul\":267:299   */\n  slt\n    /* \"#utility.yul\":264:316   */\n  iszero\n  tag_19\n  jumpi\n    /* \"#utility.yul\":312:313   */\n  0x00\n    /* \"#utility.yul\":309:310   */\n  dup1\n    /* \"#utility.yul\":302:314   */\n  revert\n    /* \"#utility.yul\":264:316   */\ntag_19:\n    /* \"#utility.yul\":335:351   */\n  dup3\n  mload\n    /* \"#utility.yul\":395:397   */\n  0x20\n    /* \"#utility.yul\":380:398   */\n  dup5\n  add\n    /* \"#utility.yul\":374:399   */\n  mload\n    /* \"#utility.yul\":335:351   */\n  swap1\n  swap3\n  pop\n  sub(shl(0x40, 0x01), 0x01)\n    /* \"#utility.yul\":411:441   */\n  dup2\n  gt\n    /* \"#utility.yul\":408:458   */\n  iszero\n  tag_20\n  jumpi\n    /* \"#utility.yul\":454:455   */\n  0x00\n    /* \"#utility.yul\":451:452   */\n  dup1\n    /* \"#utility.yul\":444:456   */\n  revert\n    /* \"#utility.yul\":408:458   */\ntag_20:\n    /* \"#utility.yul\":477:499   */\n  dup4\n  add\n    /* \"#utility.yul\":530:534   */\n  0x1f\n    /* \"#utility.yul\":522:535   */\n  dup2\n  add\n    /* \"#utility.yul\":518:545   */\n  dup6\n  sgt\n    /* \"#utility.yul\":508:563   */\n  tag_21\n  jumpi\n    /* \"#utility.yul\":559:560   */\n  0x00\n    /* \"#utility.yul\":556:557   */\n  dup1\n    /* \"#utility.yul\":549:561   */\n  revert\n    /* \"#utility.yul\":508:563   */\ntag_21:\n    /* \"#utility.yul\":586:595   */\n  dup1\n  mload\n  sub(shl(0x40, 0x01), 0x01)\n    /* \"#utility.yul\":607:637   */\n  dup2\n  gt\n    /* \"#utility.yul\":604:660   */\n  iszero\n  tag_23\n  jumpi\n    /* \"#utility.yul\":640:658   */\n  tag_23\n  tag_11\n  jump\t// in\ntag_23:\n    /* \"#utility.yul\":689:691   */\n  0x40\n    /* \"#utility.yul\":683:692   */\n  mload\n    /* \"#utility.yul\":781:783   */\n  0x1f\n    /* \"#utility.yul\":743:760   */\n  dup3\n  add\n  not(0x1f)\n    /* \"#utility.yul\":739:770   */\n  swap1\n  dup2\n  and\n    /* \"#utility.yul\":772:774   */\n  0x3f\n    /* \"#utility.yul\":735:775   */\n  add\n    /* \"#utility.yul\":731:785   */\n  and\n    /* \"#utility.yul\":719:786   */\n  dup2\n  add\n  sub(shl(0x40, 0x01), 0x01)\n    /* \"#utility.yul\":801:835   */\n  dup2\n  gt\n    /* \"#utility.yul\":837:859   */\n  dup3\n  dup3\n  lt\n    /* \"#utility.yul\":798:860   */\n  or\n    /* \"#utility.yul\":795:883   */\n  iszero\n  tag_25\n  jumpi\n    /* \"#utility.yul\":863:881   */\n  tag_25\n  tag_11\n  jump\t// in\ntag_25:\n    /* \"#utility.yul\":899:901   */\n  0x40\n    /* \"#utility.yul\":892:914   */\n  mstore\n    /* \"#utility.yul\":923:945   */\n  dup2\n  dup2\n  mstore\n    /* \"#utility.yul\":964:979   */\n  dup3\n  dup3\n  add\n    /* \"#utility.yul\":981:983   */\n  0x20\n    /* \"#utility.yul\":960:984   */\n  add\n    /* \"#utility.yul\":957:994   */\n  dup8\n  lt\n    /* \"#utility.yul\":954:1011   */\n  iszero\n  tag_26\n  jumpi\n    /* \"#utility.yul\":1007:1008   */\n  0x00\n    /* \"#utility.yul\":1004:1005   */\n  dup1\n    /* \"#utility.yul\":997:1009   */\n  revert\n    /* \"#utility.yul\":954:1011   */\ntag_26:\n    /* \"#utility.yul\":1056:1062   */\n  dup2\n    /* \"#utility.yul\":1051:1053   */\n  0x20\n    /* \"#utility.yul\":1047:1049   */\n  dup5\n    /* \"#utility.yul\":1043:1054   */\n  add\n    /* \"#utility.yul\":1038:1040   */\n  0x20\n    /* \"#utility.yul\":1030:1036   */\n  dup4\n    /* \"#utility.yul\":1026:1041   */\n  add\n    /* \"#utility.yul\":1020:1063   */\n  mcopy\n    /* \"#utility.yul\":1109:1110   */\n  0x00\n    /* \"#utility.yul\":1104:1106   */\n  0x20\n    /* \"#utility.yul\":1095:1101   */\n  dup4\n    /* \"#utility.yul\":1087:1093   */\n  dup4\n    /* \"#utility.yul\":1083:1102   */\n  add\n    /* \"#utility.yul\":1079:1107   */\n  add\n    /* \"#utility.yul\":1072:1111   */\n  mstore\n    /* \"#utility.yul\":1130:1136   */\n  dup1\n    /* \"#utility.yul\":1120:1136   */\n  swap4\n  pop\n  pop\n  pop\n  pop\n    /* \"#utility.yul\":146:1142   */\n  swap3\n  pop\n  swap3\n  swap1\n  pop\n  jump\t// out\n    /* \"#utility.yul\":1147:1527   */\ntag_12:\n    /* \"#utility.yul\":1226:1227   */\n  0x01\n    /* \"#utility.yul\":1222:1234   */\n  dup2\n  dup2\n  shr\n  swap1\n    /* \"#utility.yul\":1269:1281   */\n  dup3\n  and\n  dup1\n    /* \"#utility.yul\":1290:1351   */\n  tag_28\n  jumpi\n    /* \"#utility.yul\":1344:1348   */\n  0x7f\n    /* \"#utility.yul\":1336:1342   */\n  dup3\n    /* \"#utility.yul\":1332:1349   */\n  and\n    /* \"#utility.yul\":1322:1349   */\n  swap2\n  pop\n    /* \"#utility.yul\":1290:1351   */\ntag_28:\n    /* \"#utility.yul\":1397:1399   */\n  0x20\n    /* \"#utility.yul\":1389:1395   */\n  dup3\n    /* \"#utility.yul\":1386:1400   */\n  lt\n    /* \"#utility.yul\":1366:1384   */\n  dup2\n    /* \"#utility.yul\":1363:1401   */\n  sub\n    /* \"#utility.yul\":1360:1521   */\n  tag_29\n  jumpi\n    /* \"#utility.yul\":1443:1453   */\n  0x4e487b71\n    /* \"#utility.yul\":1438:1441   */\n  0xe0\n    /* \"#utility.yul\":1434:1454   */\n  shl\n    /* \"#utility.yul\":1431:1432   */\n  0x00\n    /* \"#utility.yul\":1424:1455   */\n  mstore\n    /* \"#utility.yul\":1478:1482   */\n  0x22\n    /* \"#utility.yul\":1475:1476   */\n  0x04\n    /* \"#utility.yul\":1468:1483   */\n  mstore\n    /* \"#utility.yul\":1506:1510   */\n  0x24\n    /* \"#utility.yul\":1503:1504   */\n  0x00\n    /* \"#utility.yul\":1496:1511   */\n  revert\n    /* \"#utility.yul\":1360:1521   */\ntag_29:\n  pop\n    /* \"#utility.yul\":1147:1527   */\n  swap2\n  swap1\n  pop\n  jump\t// out\n    /* \"#utility.yul\":1658:2176   */\ntag_14:\n    /* \"#utility.yul\":1760:1762   */\n  0x1f\n    /* \"#utility.yul\":1755:1758   */\n  dup3\n    /* \"#utility.yul\":1752:1763   */\n  gt\n    /* \"#utility.yul\":1749:2170   */\n  iszero\n  tag_32\n  jumpi\n    /* \"#utility.yul\":1796:1801   */\n  dup1\n    /* \"#utility.yul\":1793:1794   */\n  0x00\n    /* \"#utility.yul\":1786:1802   */\n  mstore\n    /* \"#utility.yul\":1840:1844   */\n  0x20\n    /* \"#utility.yul\":1837:1838   */\n  0x00\n    /* \"#utility.yul\":1827:1845   */\n  keccak256\n    /* \"#utility.yul\":1910:1912   */\n  0x1f\n    /* \"#utility.yul\":1898:1908   */\n  dup5\n    /* \"#utility.yul\":1894:1913   */\n  add\n    /* \"#utility.yul\":1891:1892   */\n  0x05\n    /* \"#utility.yul\":1887:1914   */\n  shr\n    /* \"#utility.yul\":1881:1885   */\n  dup2\n    /* \"#utility.yul\":1877:1915   */\n  add\n    /* \"#utility.yul\":1946:1950   */\n  0x20\n    /* \"#utility.yul\":1934:1944   */\n  dup6\n    /* \"#utility.yul\":1931:1951   */\n  lt\n    /* \"#utility.yul\":1928:1975   */\n  iszero\n  tag_33\n  jumpi\n  pop\n    /* \"#utility.yul\":1969:1973   */\n  dup1\n    /* \"#utility.yul\":1928:1975   */\ntag_33:\n    /* \"#utility.yul\":2024:2026   */\n  0x1f\n    /* \"#utility.yul\":2019:2022   */\n  dup5\n    /* \"#utility.yul\":2015:2027   */\n  add\n    /* \"#utility.yul\":2012:2013   */\n  0x05\n    /* \"#utility.yul\":2008:2028   */\n  shr\n    /* \"#utility.yul\":2002:2006   */\n  dup3\n    /* \"#utility.yul\":1998:2029   */\n  add\n    /* \"#utility.yul\":1988:2029   */\n  swap2\n  pop\n    /* \"#utility.yul\":2079:2160   */\ntag_34:\n    /* \"#utility.yul\":2097:2099   */\n  dup2\n    /* \"#utility.yul\":2090:2095   */\n  dup2\n    /* \"#utility.yul\":2087:2100   */\n  lt\n    /* \"#utility.yul\":2079:2160   */\n  iszero\n  tag_36\n  jumpi\n    /* \"#utility.yul\":2156:2157   */\n  0x00\n    /* \"#utility.yul\":2142:2158   */\n  dup2\n  sstore\n    /* \"#utility.yul\":2123:2124   */\n  0x01\n    /* \"#utility.yul\":2112:2125   */\n  add\n    /* \"#utility.yul\":2079:2160   */\n  jump(tag_34)\ntag_36:\n    /* \"#utility.yul\":2083:2086   */\n  pop\n  pop\n    /* \"#utility.yul\":1749:2170   */\ntag_32:\n    /* \"#utility.yul\":1658:2176   */\n  pop\n  pop\n  pop\n  jump\t// out\n    /* \"#utility.yul\":2352:3651   */\ntag_7:\n    /* \"#utility.yul\":2472:2482   */\n  dup2\n  mload\n  sub(shl(0x40, 0x01), 0x01)\n    /* \"#utility.yul\":2494:2524   */\n  dup2\n  gt\n    /* \"#utility.yul\":2491:2547   */\n  iszero\n  tag_40\n  jumpi\n    /* \"#utility.yul\":2527:2545   */\n  tag_40\n  tag_11\n  jump\t// in\ntag_40:\n    /* \"#utility.yul\":2556:2653   */\n  tag_41\n    /* \"#utility.yul\":2646:2652   */\n  dup2\n    /* \"#utility.yul\":2606:2644   */\n  tag_42\n    /* \"#utility.yul\":2638:2642   */\n  dup5\n    /* \"#utility.yul\":2632:2643   */\n  sload\n    /* \"#utility.yul\":2606:2644   */\n  tag_12\n  jump\t// in\ntag_42:\n    /* \"#utility.yul\":2600:2604   */\n  dup5\n    /* \"#utility.yul\":2556:2653   */\n  tag_14\n  jump\t// in\ntag_41:\n    /* \"#utility.yul\":2702:2706   */\n  0x20\n    /* \"#utility.yul\":2733:2735   */\n  0x1f\n    /* \"#utility.yul\":2722:2736   */\n  dup3\n  gt\n    /* \"#utility.yul\":2750:2751   */\n  0x01\n    /* \"#utility.yul\":2745:3394   */\n  dup2\n  eq\n  tag_44\n  jumpi\n    /* \"#utility.yul\":3438:3439   */\n  0x00\n    /* \"#utility.yul\":3455:3461   */\n  dup4\n    /* \"#utility.yul\":3452:3541   */\n  iszero\n  tag_45\n  jumpi\n  pop\n    /* \"#utility.yul\":3507:3526   */\n  dup5\n  dup3\n  add\n    /* \"#utility.yul\":3501:3527   */\n  mload\n    /* \"#utility.yul\":3452:3541   */\ntag_45:\n  not(0x00)\n    /* \"#utility.yul\":2309:2310   */\n  0x03\n    /* \"#utility.yul\":2305:2316   */\n  dup6\n  swap1\n  shl\n    /* \"#utility.yul\":2301:2325   */\n  shr\n    /* \"#utility.yul\":2297:2326   */\n  not\n    /* \"#utility.yul\":2287:2327   */\n  and\n    /* \"#utility.yul\":2333:2334   */\n  0x01\n    /* \"#utility.yul\":2329:2340   */\n  dup5\n  swap1\n  shl\n    /* \"#utility.yul\":2284:2341   */\n  or\n    /* \"#utility.yul\":3554:3635   */\n  dup5\n  sstore\n    /* \"#utility.yul\":2715:3645   */\n  jump(tag_36)\n    /* \"#utility.yul\":2745:3394   */\ntag_44:\n    /* \"#utility.yul\":1605:1606   */\n  0x00\n    /* \"#utility.yul\":1598:1612   */\n  dup5\n  dup2\n  mstore\n    /* \"#utility.yul\":1642:1646   */\n  0x20\n    /* \"#utility.yul\":1629:1647   */\n  dup2\n  keccak256\n  not(0x1f)\n    /* \"#utility.yul\":2781:2801   */\n  dup6\n  and\n  swap2\n    /* \"#utility.yul\":2899:3121   */\ntag_48:\n    /* \"#utility.yul\":2913:2920   */\n  dup3\n    /* \"#utility.yul\":2910:2911   */\n  dup2\n    /* \"#utility.yul\":2907:2921   */\n  lt\n    /* \"#utility.yul\":2899:3121   */\n  iszero\n  tag_50\n  jumpi\n    /* \"#utility.yul\":2995:3014   */\n  dup8\n  dup6\n  add\n    /* \"#utility.yul\":2989:3015   */\n  mload\n    /* \"#utility.yul\":2974:3016   */\n  dup3\n  sstore\n    /* \"#utility.yul\":3102:3106   */\n  0x20\n    /* \"#utility.yul\":3087:3107   */\n  swap5\n  dup6\n  add\n  swap5\n    /* \"#utility.yul\":3055:3056   */\n  0x01\n    /* \"#utility.yul\":3043:3057   */\n  swap1\n  swap3\n  add\n  swap2\n    /* \"#utility.yul\":2929:2941   */\n  add\n    /* \"#utility.yul\":2899:3121   */\n  jump(tag_48)\ntag_50:\n    /* \"#utility.yul\":2903:2906   */\n  pop\n    /* \"#utility.yul\":3149:3155   */\n  dup5\n    /* \"#utility.yul\":3140:3147   */\n  dup3\n    /* \"#utility.yul\":3137:3156   */\n  lt\n    /* \"#utility.yul\":3134:3335   */\n  iszero\n  tag_51\n  jumpi\n    /* \"#utility.yul\":3210:3229   */\n  dup7\n  dup5\n  add\n    /* \"#utility.yul\":3204:3230   */\n  mload\n  not(0x00)\n    /* \"#utility.yul\":3293:3294   */\n  0x03\n    /* \"#utility.yul\":3289:3303   */\n  dup8\n  swap1\n  shl\n    /* \"#utility.yul\":3305:3308   */\n  0xf8\n    /* \"#utility.yul\":3285:3309   */\n  and\n    /* \"#utility.yul\":3281:3318   */\n  shr\n    /* \"#utility.yul\":3277:3319   */\n  not\n    /* \"#utility.yul\":3262:3320   */\n  and\n    /* \"#utility.yul\":3247:3321   */\n  dup2\n  sstore\n    /* \"#utility.yul\":3134:3335   */\ntag_51:\n  pop\n  pop\n  pop\n  pop\n    /* \"#utility.yul\":3381:3382   */\n  0x01\n    /* \"#utility.yul\":3365:3379   */\n  swap1\n  dup2\n  shl\n    /* \"#utility.yul\":3361:3383   */\n  add\n    /* \"#utility.yul\":3348:3384   */\n  swap1\n  sstore\n  pop\n    /* \"#utility.yul\":2352:3651   */\n  jump\t// out\n    /* \"#utility.yul\":3656:4481   */\ntag_9:\n    /* \"#utility.yul\":3998:4004   */\n  dup5\n    /* \"#utility.yul\":3987:3996   */\n  dup2\n    /* \"#utility.yul\":3980:4005   */\n  mstore\n    /* \"#utility.yul\":4041:4047   */\n  dup4\n    /* \"#utility.yul\":4036:4038   */\n  0x20\n    /* \"#utility.yul\":4025:4034   */\n  dup3\n    /* \"#utility.yul\":4021:4039   */\n  add\n    /* \"#utility.yul\":4014:4048   */\n  mstore\n    /* \"#utility.yul\":4084:4087   */\n  0xa0\n    /* \"#utility.yul\":4079:4081   */\n  0x40\n    /* \"#utility.yul\":4068:4077   */\n  dup3\n    /* \"#utility.yul\":4064:4082   */\n  add\n    /* \"#utility.yul\":4057:4088   */\n  mstore\n    /* \"#utility.yul\":4125:4126   */\n  0x00\n    /* \"#utility.yul\":4119:4122   */\n  0xa0\n    /* \"#utility.yul\":4108:4117   */\n  dup3\n    /* \"#utility.yul\":4104:4123   */\n  add\n    /* \"#utility.yul\":4097:4127   */\n  mstore\n    /* \"#utility.yul\":4163:4166   */\n  0xc0\n    /* \"#utility.yul\":4158:4160   */\n  0x60\n    /* \"#utility.yul\":4147:4156   */\n  dup3\n    /* \"#utility.yul\":4143:4161   */\n  add\n    /* \"#utility.yul\":4136:4167   */\n  mstore\n    /* \"#utility.yul\":3961:3965   */\n  0x00\n    /* \"#utility.yul\":4196:4202   */\n  dup4\n    /* \"#utility.yul\":4190:4203   */\n  mload\n    /* \"#utility.yul\":4240:4246   */\n  dup1\n    /* \"#utility.yul\":4234:4237   */\n  0xc0\n    /* \"#utility.yul\":4223:4232   */\n  dup5\n    /* \"#utility.yul\":4219:4238   */\n  add\n    /* \"#utility.yul\":4212:4247   */\n  mstore\n    /* \"#utility.yul\":4300:4306   */\n  dup1\n    /* \"#utility.yul\":4295:4297   */\n  0x20\n    /* \"#utility.yul\":4287:4293   */\n  dup7\n    /* \"#utility.yul\":4283:4298   */\n  add\n    /* \"#utility.yul\":4277:4280   */\n  0xe0\n    /* \"#utility.yul\":4266:4275   */\n  dup6\n    /* \"#utility.yul\":4262:4281   */\n  add\n    /* \"#utility.yul\":4256:4307   */\n  mcopy\n    /* \"#utility.yul\":4357:4358   */\n  0x00\n    /* \"#utility.yul\":4351:4354   */\n  0xe0\n    /* \"#utility.yul\":4342:4348   */\n  dup3\n    /* \"#utility.yul\":4331:4340   */\n  dup6\n    /* \"#utility.yul\":4327:4349   */\n  add\n    /* \"#utility.yul\":4323:4355   */\n  add\n    /* \"#utility.yul\":4316:4359   */\n  mstore\n    /* \"#utility.yul\":4427:4430   */\n  0xe0\n    /* \"#utility.yul\":4420:4422   */\n  0x1f\n    /* \"#utility.yul\":4416:4423   */\n  not\n    /* \"#utility.yul\":4411:4413   */\n  0x1f\n    /* \"#utility.yul\":4403:4409   */\n  dup4\n    /* \"#utility.yul\":4399:4414   */\n  add\n    /* \"#utility.yul\":4395:4424   */\n  and\n    /* \"#utility.yul\":4384:4393   */\n  dup5\n    /* \"#utility.yul\":4380:4425   */\n  add\n    /* \"#utility.yul\":4376:4431   */\n  add\n    /* \"#utility.yul\":4368:4431   */\n  swap2\n  pop\n  pop\n    /* \"#utility.yul\":4468:4474   */\n  dup3\n    /* \"#utility.yul\":4462:4465   */\n  0x80\n    /* \"#utility.yul\":4451:4460   */\n  dup4\n    /* \"#utility.yul\":4447:4466   */\n  add\n    /* \"#utility.yul\":4440:4475   */\n  mstore\n    /* \"#utility.yul\":3656:4481   */\n  swap6\n  swap5\n  pop\n  pop\n  pop\n  pop\n  pop\n  jump\t// out\ntag_16:\n    /* \"Contract1.sol\":60:2056  contract NumberStorage {... */\n  dataSize(sub_0)\n  dup1\n  dataOffset(sub_0)\n  0x00\n  codecopy\n  0x00\n  return\nstop\n\nsub_0: assembly {\n        /* \"Contract1.sol\":60:2056  contract NumberStorage {... */\n      mstore(0x40, 0x80)\n      callvalue\n      dup1\n      iszero\n      tag_1\n      jumpi\n      0x00\n      dup1\n      revert\n    tag_1:\n      pop\n      jumpi(tag_2, lt(calldatasize, 0x04))\n      shr(0xe0, calldataload(0x00))\n      dup1\n      0x9e5bb448\n      eq\n      tag_3\n      jumpi\n      dup1\n      0xe517a0ff\n      eq\n      tag_4\n      jumpi\n    tag_2:\n      0x00\n      dup1\n      revert\n        /* \"Contract1.sol\":449:490  mapping(address => Data) public dataStore */\n    tag_3:\n      tag_5\n      tag_6\n      calldatasize\n      0x04\n      tag_7\n      jump\t// in\n    tag_6:\n      tag_8\n      jump\t// in\n    tag_5:\n      mload(0x40)\n      tag_9\n      swap4\n      swap3\n      swap2\n      swap1\n      tag_10\n      jump\t// in\n    tag_9:\n      mload(0x40)\n      dup1\n      swap2\n      sub\n      swap1\n      return\n        /* \"Contract1.sol\":1356:2053  function setNumber(uint256 newNumber, string calldata newComment) public {... */\n    tag_4:\n      tag_11\n      tag_12\n      calldatasize\n      0x04\n      tag_13\n      jump\t// in\n    tag_12:\n      tag_14\n      jump\t// in\n    tag_11:\n      stop\n        /* \"Contract1.sol\":449:490  mapping(address => Data) public dataStore */\n    tag_8:\n      0x00\n      0x20\n      dup2\n      swap1\n      mstore\n      swap1\n      dup2\n      mstore\n      0x40\n      swap1\n      keccak256\n      dup1\n      sload\n      0x01\n      dup3\n      add\n      dup1\n      sload\n      swap2\n      swap3\n      swap2\n      tag_15\n      swap1\n      tag_16\n      jump\t// in\n    tag_15:\n      dup1\n      0x1f\n      add\n      0x20\n      dup1\n      swap2\n      div\n      mul\n      0x20\n      add\n      mload(0x40)\n      swap1\n      dup2\n      add\n      0x40\n      mstore\n      dup1\n      swap3\n      swap2\n      swap1\n      dup2\n      dup2\n      mstore\n      0x20\n      add\n      dup3\n      dup1\n      sload\n      tag_17\n      swap1\n      tag_16\n      jump\t// in\n    tag_17:\n      dup1\n      iszero\n      tag_18\n      jumpi\n      dup1\n      0x1f\n      lt\n      tag_19\n      jumpi\n      0x0100\n      dup1\n      dup4\n      sload\n      div\n      mul\n      dup4\n      mstore\n      swap2\n      0x20\n      add\n      swap2\n      jump(tag_18)\n    tag_19:\n      dup3\n      add\n      swap2\n      swap1\n      0x00\n      mstore\n      keccak256(0x00, 0x20)\n      swap1\n    tag_20:\n      dup2\n      sload\n      dup2\n      mstore\n      swap1\n      0x01\n      add\n      swap1\n      0x20\n      add\n      dup1\n      dup4\n      gt\n      tag_20\n      jumpi\n      dup3\n      swap1\n      sub\n      0x1f\n      and\n      dup3\n      add\n      swap2\n    tag_18:\n      pop\n      pop\n      pop\n      pop\n      pop\n      swap1\n      dup1\n      0x02\n      add\n      sload\n      swap1\n      pop\n      dup4\n      jump\t// out\n        /* \"Contract1.sol\":1356:2053  function setNumber(uint256 newNumber, string calldata newComment) public {... */\n    tag_14:\n        /* \"Contract1.sol\":1518:1528  msg.sender */\n      caller\n        /* \"Contract1.sol\":1484:1505  Data storage userData */\n      0x00\n        /* \"Contract1.sol\":1508:1529  dataStore[msg.sender] */\n      swap1\n      dup2\n      mstore\n      0x20\n      dup2\n      swap1\n      mstore\n      0x40\n      dup2\n      keccak256\n        /* \"Contract1.sol\":1560:1575  userData.number */\n      dup1\n      sload\n        /* \"Contract1.sol\":1613:1629  userData.comment */\n      0x01\n      dup3\n      add\n        /* \"Contract1.sol\":1586:1629  string memory oldComment = userData.comment */\n      dup1\n      sload\n        /* \"Contract1.sol\":1508:1529  dataStore[msg.sender] */\n      swap3\n      swap4\n        /* \"Contract1.sol\":1560:1575  userData.number */\n      swap2\n      swap3\n        /* \"Contract1.sol\":1586:1629  string memory oldComment = userData.comment */\n      tag_22\n      swap1\n      tag_16\n      jump\t// in\n    tag_22:\n      dup1\n      0x1f\n      add\n      0x20\n      dup1\n      swap2\n      div\n      mul\n      0x20\n      add\n      mload(0x40)\n      swap1\n      dup2\n      add\n      0x40\n      mstore\n      dup1\n      swap3\n      swap2\n      swap1\n      dup2\n      dup2\n      mstore\n      0x20\n      add\n      dup3\n      dup1\n      sload\n      tag_23\n      swap1\n      tag_16\n      jump\t// in\n    tag_23:\n      dup1\n      iszero\n      tag_24\n      jumpi\n      dup1\n      0x1f\n      lt\n      tag_25\n      jumpi\n      0x0100\n      dup1\n      dup4\n      sload\n      div\n      mul\n      dup4\n      mstore\n      swap2\n      0x20\n      add\n      swap2\n      jump(tag_24)\n    tag_25:\n      dup3\n      add\n      swap2\n      swap1\n      0x00\n      mstore\n      keccak256(0x00, 0x20)\n      swap1\n    tag_26:\n      dup2\n      sload\n      dup2\n      mstore\n      swap1\n      0x01\n      add\n      swap1\n      0x20\n      add\n      dup1\n      dup4\n      gt\n      tag_26\n      jumpi\n      dup3\n      swap1\n      sub\n      0x1f\n      and\n      dup3\n      add\n      swap2\n    tag_24:\n      pop\n      pop\n      pop\n        /* \"Contract1.sol\":1685:1712  userData.number = newNumber */\n      dup9\n      dup7\n      sstore\n      pop\n        /* \"Contract1.sol\":1586:1629  string memory oldComment = userData.comment */\n      swap1\n      swap2\n      pop\n      pop\n        /* \"Contract1.sol\":1723:1739  userData.comment */\n      0x01\n      dup4\n      add\n        /* \"Contract1.sol\":1723:1752  userData.comment = newComment */\n      tag_27\n        /* \"Contract1.sol\":1742:1752  newComment */\n      dup6\n      dup8\n        /* \"Contract1.sol\":1723:1739  userData.comment */\n      dup4\n        /* \"Contract1.sol\":1723:1752  userData.comment = newComment */\n      tag_28\n      jump\t// in\n    tag_27:\n      pop\n        /* \"Contract1.sol\":1786:1798  block.number */\n      number\n        /* \"Contract1.sol\":1763:1783  userData.blockNumber */\n      0x02\n      dup5\n      add\n        /* \"Contract1.sol\":1763:1798  userData.blockNumber = block.number */\n      dup2\n      swap1\n      sstore\n        /* \"Contract1.sol\":1960:2045  NumberUpdated(msg.sender, oldNumber, newNumber, oldComment, newComment, block.number) */\n      mload(0x40)\n        /* \"Contract1.sol\":1974:1984  msg.sender */\n      caller\n      swap2\n        /* \"Contract1.sol\":1960:2045  NumberUpdated(msg.sender, oldNumber, newNumber, oldComment, newComment, block.number) */\n      0x69cb07637fd66ebf084ed869c8607728f6fcfd4e670d451eb31f280c64b57698\n      swap2\n      tag_29\n      swap2\n        /* \"Contract1.sol\":1986:1995  oldNumber */\n      dup7\n      swap2\n        /* \"Contract1.sol\":1997:2006  newNumber */\n      dup12\n      swap2\n        /* \"Contract1.sol\":2008:2018  oldComment */\n      dup8\n      swap2\n        /* \"Contract1.sol\":2020:2030  newComment */\n      dup13\n      swap2\n      dup13\n      swap2\n        /* \"Contract1.sol\":1960:2045  NumberUpdated(msg.sender, oldNumber, newNumber, oldComment, newComment, block.number) */\n      tag_30\n      jump\t// in\n    tag_29:\n      mload(0x40)\n      dup1\n      swap2\n      sub\n      swap1\n      log2\n        /* \"Contract1.sol\":1429:2053  {... */\n      pop\n      pop\n      pop\n        /* \"Contract1.sol\":1356:2053  function setNumber(uint256 newNumber, string calldata newComment) public {... */\n      pop\n      pop\n      pop\n      jump\t// out\n        /* \"#utility.yul\":14:300   */\n    tag_7:\n        /* \"#utility.yul\":73:79   */\n      0x00\n        /* \"#utility.yul\":126:128   */\n      0x20\n        /* \"#utility.yul\":114:123   */\n      dup3\n        /* \"#utility.yul\":105:112   */\n      dup5\n        /* \"#utility.yul\":101:124   */\n      sub\n        /* \"#utility.yul\":97:129   */\n      slt\n        /* \"#utility.yul\":94:146   */\n      iszero\n      tag_38\n      jumpi\n        /* \"#utility.yul\":142:143   */\n      0x00\n        /* \"#utility.yul\":139:140   */\n      dup1\n        /* \"#utility.yul\":132:144   */\n      revert\n        /* \"#utility.yul\":94:146   */\n    tag_38:\n        /* \"#utility.yul\":168:191   */\n      dup2\n      calldataload\n      sub(shl(0xa0, 0x01), 0x01)\n        /* \"#utility.yul\":220:251   */\n      dup2\n      and\n        /* \"#utility.yul\":210:252   */\n      dup2\n      eq\n        /* \"#utility.yul\":200:270   */\n      tag_39\n      jumpi\n        /* \"#utility.yul\":266:267   */\n      0x00\n        /* \"#utility.yul\":263:264   */\n      dup1\n        /* \"#utility.yul\":256:268   */\n      revert\n        /* \"#utility.yul\":200:270   */\n    tag_39:\n        /* \"#utility.yul\":289:294   */\n      swap4\n        /* \"#utility.yul\":14:300   */\n      swap3\n      pop\n      pop\n      pop\n      jump\t// out\n        /* \"#utility.yul\":305:594   */\n    tag_31:\n        /* \"#utility.yul\":347:350   */\n      0x00\n        /* \"#utility.yul\":385:390   */\n      dup2\n        /* \"#utility.yul\":379:391   */\n      mload\n        /* \"#utility.yul\":412:418   */\n      dup1\n        /* \"#utility.yul\":407:410   */\n      dup5\n        /* \"#utility.yul\":400:419   */\n      mstore\n        /* \"#utility.yul\":468:474   */\n      dup1\n        /* \"#utility.yul\":461:465   */\n      0x20\n        /* \"#utility.yul\":454:459   */\n      dup5\n        /* \"#utility.yul\":450:466   */\n      add\n        /* \"#utility.yul\":443:447   */\n      0x20\n        /* \"#utility.yul\":438:441   */\n      dup7\n        /* \"#utility.yul\":434:448   */\n      add\n        /* \"#utility.yul\":428:475   */\n      mcopy\n        /* \"#utility.yul\":520:521   */\n      0x00\n        /* \"#utility.yul\":513:517   */\n      0x20\n        /* \"#utility.yul\":504:510   */\n      dup3\n        /* \"#utility.yul\":499:502   */\n      dup7\n        /* \"#utility.yul\":495:511   */\n      add\n        /* \"#utility.yul\":491:518   */\n      add\n        /* \"#utility.yul\":484:522   */\n      mstore\n        /* \"#utility.yul\":583:587   */\n      0x20\n        /* \"#utility.yul\":576:578   */\n      0x1f\n        /* \"#utility.yul\":572:579   */\n      not\n        /* \"#utility.yul\":567:569   */\n      0x1f\n        /* \"#utility.yul\":559:565   */\n      dup4\n        /* \"#utility.yul\":555:570   */\n      add\n        /* \"#utility.yul\":551:580   */\n      and\n        /* \"#utility.yul\":546:549   */\n      dup6\n        /* \"#utility.yul\":542:581   */\n      add\n        /* \"#utility.yul\":538:588   */\n      add\n        /* \"#utility.yul\":531:588   */\n      swap2\n      pop\n      pop\n        /* \"#utility.yul\":305:594   */\n      swap3\n      swap2\n      pop\n      pop\n      jump\t// out\n        /* \"#utility.yul\":599:961   */\n    tag_10:\n        /* \"#utility.yul\":804:810   */\n      dup4\n        /* \"#utility.yul\":793:802   */\n      dup2\n        /* \"#utility.yul\":786:811   */\n      mstore\n        /* \"#utility.yul\":847:849   */\n      0x60\n        /* \"#utility.yul\":842:844   */\n      0x20\n        /* \"#utility.yul\":831:840   */\n      dup3\n        /* \"#utility.yul\":827:845   */\n      add\n        /* \"#utility.yul\":820:850   */\n      mstore\n        /* \"#utility.yul\":767:771   */\n      0x00\n        /* \"#utility.yul\":867:912   */\n      tag_42\n        /* \"#utility.yul\":908:910   */\n      0x60\n        /* \"#utility.yul\":897:906   */\n      dup4\n        /* \"#utility.yul\":893:911   */\n      add\n        /* \"#utility.yul\":885:891   */\n      dup6\n        /* \"#utility.yul\":867:912   */\n      tag_31\n      jump\t// in\n    tag_42:\n        /* \"#utility.yul\":859:912   */\n      swap1\n      pop\n        /* \"#utility.yul\":948:954   */\n      dup3\n        /* \"#utility.yul\":943:945   */\n      0x40\n        /* \"#utility.yul\":932:941   */\n      dup4\n        /* \"#utility.yul\":928:946   */\n      add\n        /* \"#utility.yul\":921:955   */\n      mstore\n        /* \"#utility.yul\":599:961   */\n      swap5\n      swap4\n      pop\n      pop\n      pop\n      pop\n      jump\t// out\n        /* \"#utility.yul\":966:1621   */\n    tag_13:\n        /* \"#utility.yul\":1046:1052   */\n      0x00\n        /* \"#utility.yul\":1054:1060   */\n      dup1\n        /* \"#utility.yul\":1062:1068   */\n      0x00\n        /* \"#utility.yul\":1115:1117   */\n      0x40\n        /* \"#utility.yul\":1103:1112   */\n      dup5\n        /* \"#utility.yul\":1094:1101   */\n      dup7\n        /* \"#utility.yul\":1090:1113   */\n      sub\n        /* \"#utility.yul\":1086:1118   */\n      slt\n        /* \"#utility.yul\":1083:1135   */\n      iszero\n      tag_44\n      jumpi\n        /* \"#utility.yul\":1131:1132   */\n      0x00\n        /* \"#utility.yul\":1128:1129   */\n      dup1\n        /* \"#utility.yul\":1121:1133   */\n      revert\n        /* \"#utility.yul\":1083:1135   */\n    tag_44:\n        /* \"#utility.yul\":1167:1176   */\n      dup4\n        /* \"#utility.yul\":1154:1177   */\n      calldataload\n        /* \"#utility.yul\":1144:1177   */\n      swap3\n      pop\n        /* \"#utility.yul\":1228:1230   */\n      0x20\n        /* \"#utility.yul\":1217:1226   */\n      dup5\n        /* \"#utility.yul\":1213:1231   */\n      add\n        /* \"#utility.yul\":1200:1232   */\n      calldataload\n        /* \"#utility.yul\":1255:1273   */\n      0xffffffffffffffff\n        /* \"#utility.yul\":1247:1253   */\n      dup2\n        /* \"#utility.yul\":1244:1274   */\n      gt\n        /* \"#utility.yul\":1241:1291   */\n      iszero\n      tag_45\n      jumpi\n        /* \"#utility.yul\":1287:1288   */\n      0x00\n        /* \"#utility.yul\":1284:1285   */\n      dup1\n        /* \"#utility.yul\":1277:1289   */\n      revert\n        /* \"#utility.yul\":1241:1291   */\n    tag_45:\n        /* \"#utility.yul\":1310:1332   */\n      dup5\n      add\n        /* \"#utility.yul\":1363:1367   */\n      0x1f\n        /* \"#utility.yul\":1355:1368   */\n      dup2\n      add\n        /* \"#utility.yul\":1351:1378   */\n      dup7\n      sgt\n        /* \"#utility.yul\":1341:1396   */\n      tag_46\n      jumpi\n        /* \"#utility.yul\":1392:1393   */\n      0x00\n        /* \"#utility.yul\":1389:1390   */\n      dup1\n        /* \"#utility.yul\":1382:1394   */\n      revert\n        /* \"#utility.yul\":1341:1396   */\n    tag_46:\n        /* \"#utility.yul\":1432:1434   */\n      dup1\n        /* \"#utility.yul\":1419:1435   */\n      calldataload\n        /* \"#utility.yul\":1458:1476   */\n      0xffffffffffffffff\n        /* \"#utility.yul\":1450:1456   */\n      dup2\n        /* \"#utility.yul\":1447:1477   */\n      gt\n        /* \"#utility.yul\":1444:1494   */\n      iszero\n      tag_47\n      jumpi\n        /* \"#utility.yul\":1490:1491   */\n      0x00\n        /* \"#utility.yul\":1487:1488   */\n      dup1\n        /* \"#utility.yul\":1480:1492   */\n      revert\n        /* \"#utility.yul\":1444:1494   */\n    tag_47:\n        /* \"#utility.yul\":1535:1542   */\n      dup7\n        /* \"#utility.yul\":1530:1532   */\n      0x20\n        /* \"#utility.yul\":1521:1527   */\n      dup3\n        /* \"#utility.yul\":1517:1519   */\n      dup5\n        /* \"#utility.yul\":1513:1528   */\n      add\n        /* \"#utility.yul\":1509:1533   */\n      add\n        /* \"#utility.yul\":1506:1543   */\n      gt\n        /* \"#utility.yul\":1503:1560   */\n      iszero\n      tag_48\n      jumpi\n        /* \"#utility.yul\":1556:1557   */\n      0x00\n        /* \"#utility.yul\":1553:1554   */\n      dup1\n        /* \"#utility.yul\":1546:1558   */\n      revert\n        /* \"#utility.yul\":1503:1560   */\n    tag_48:\n        /* \"#utility.yul\":966:1621   */\n      swap4\n      swap7\n        /* \"#utility.yul\":1587:1589   */\n      0x20\n        /* \"#utility.yul\":1579:1590   */\n      swap2\n      swap1\n      swap2\n      add\n      swap6\n      pop\n        /* \"#utility.yul\":1609:1615   */\n      swap3\n      swap4\n      pop\n      pop\n      pop\n        /* \"#utility.yul\":966:1621   */\n      jump\t// out\n        /* \"#utility.yul\":1626:2006   */\n    tag_16:\n        /* \"#utility.yul\":1705:1706   */\n      0x01\n        /* \"#utility.yul\":1701:1713   */\n      dup2\n      dup2\n      shr\n      swap1\n        /* \"#utility.yul\":1748:1760   */\n      dup3\n      and\n      dup1\n        /* \"#utility.yul\":1769:1830   */\n      tag_50\n      jumpi\n        /* \"#utility.yul\":1823:1827   */\n      0x7f\n        /* \"#utility.yul\":1815:1821   */\n      dup3\n        /* \"#utility.yul\":1811:1828   */\n      and\n        /* \"#utility.yul\":1801:1828   */\n      swap2\n      pop\n        /* \"#utility.yul\":1769:1830   */\n    tag_50:\n        /* \"#utility.yul\":1876:1878   */\n      0x20\n        /* \"#utility.yul\":1868:1874   */\n      dup3\n        /* \"#utility.yul\":1865:1879   */\n      lt\n        /* \"#utility.yul\":1845:1863   */\n      dup2\n        /* \"#utility.yul\":1842:1880   */\n      sub\n        /* \"#utility.yul\":1839:2000   */\n      tag_51\n      jumpi\n        /* \"#utility.yul\":1922:1932   */\n      0x4e487b71\n        /* \"#utility.yul\":1917:1920   */\n      0xe0\n        /* \"#utility.yul\":1913:1933   */\n      shl\n        /* \"#utility.yul\":1910:1911   */\n      0x00\n        /* \"#utility.yul\":1903:1934   */\n      mstore\n        /* \"#utility.yul\":1957:1961   */\n      0x22\n        /* \"#utility.yul\":1954:1955   */\n      0x04\n        /* \"#utility.yul\":1947:1962   */\n      mstore\n        /* \"#utility.yul\":1985:1989   */\n      0x24\n        /* \"#utility.yul\":1982:1983   */\n      0x00\n        /* \"#utility.yul\":1975:1990   */\n      revert\n        /* \"#utility.yul\":1839:2000   */\n    tag_51:\n      pop\n        /* \"#utility.yul\":1626:2006   */\n      swap2\n      swap1\n      pop\n      jump\t// out\n        /* \"#utility.yul\":2011:2138   */\n    tag_32:\n        /* \"#utility.yul\":2072:2082   */\n      0x4e487b71\n        /* \"#utility.yul\":2067:2070   */\n      0xe0\n        /* \"#utility.yul\":2063:2083   */\n      shl\n        /* \"#utility.yul\":2060:2061   */\n      0x00\n        /* \"#utility.yul\":2053:2084   */\n      mstore\n        /* \"#utility.yul\":2103:2107   */\n      0x41\n        /* \"#utility.yul\":2100:2101   */\n      0x04\n        /* \"#utility.yul\":2093:2108   */\n      mstore\n        /* \"#utility.yul\":2127:2131   */\n      0x24\n        /* \"#utility.yul\":2124:2125   */\n      0x00\n        /* \"#utility.yul\":2117:2132   */\n      revert\n        /* \"#utility.yul\":2269:2787   */\n    tag_34:\n        /* \"#utility.yul\":2371:2373   */\n      0x1f\n        /* \"#utility.yul\":2366:2369   */\n      dup3\n        /* \"#utility.yul\":2363:2374   */\n      gt\n        /* \"#utility.yul\":2360:2781   */\n      iszero\n      tag_55\n      jumpi\n        /* \"#utility.yul\":2407:2412   */\n      dup1\n        /* \"#utility.yul\":2404:2405   */\n      0x00\n        /* \"#utility.yul\":2397:2413   */\n      mstore\n        /* \"#utility.yul\":2451:2455   */\n      0x20\n        /* \"#utility.yul\":2448:2449   */\n      0x00\n        /* \"#utility.yul\":2438:2456   */\n      keccak256\n        /* \"#utility.yul\":2521:2523   */\n      0x1f\n        /* \"#utility.yul\":2509:2519   */\n      dup5\n        /* \"#utility.yul\":2505:2524   */\n      add\n        /* \"#utility.yul\":2502:2503   */\n      0x05\n        /* \"#utility.yul\":2498:2525   */\n      shr\n        /* \"#utility.yul\":2492:2496   */\n      dup2\n        /* \"#utility.yul\":2488:2526   */\n      add\n        /* \"#utility.yul\":2557:2561   */\n      0x20\n        /* \"#utility.yul\":2545:2555   */\n      dup6\n        /* \"#utility.yul\":2542:2562   */\n      lt\n        /* \"#utility.yul\":2539:2586   */\n      iszero\n      tag_56\n      jumpi\n      pop\n        /* \"#utility.yul\":2580:2584   */\n      dup1\n        /* \"#utility.yul\":2539:2586   */\n    tag_56:\n        /* \"#utility.yul\":2635:2637   */\n      0x1f\n        /* \"#utility.yul\":2630:2633   */\n      dup5\n        /* \"#utility.yul\":2626:2638   */\n      add\n        /* \"#utility.yul\":2623:2624   */\n      0x05\n        /* \"#utility.yul\":2619:2639   */\n      shr\n        /* \"#utility.yul\":2613:2617   */\n      dup3\n        /* \"#utility.yul\":2609:2640   */\n      add\n        /* \"#utility.yul\":2599:2640   */\n      swap2\n      pop\n        /* \"#utility.yul\":2690:2771   */\n    tag_57:\n        /* \"#utility.yul\":2708:2710   */\n      dup2\n        /* \"#utility.yul\":2701:2706   */\n      dup2\n        /* \"#utility.yul\":2698:2711   */\n      lt\n        /* \"#utility.yul\":2690:2771   */\n      iszero\n      tag_59\n      jumpi\n        /* \"#utility.yul\":2767:2768   */\n      0x00\n        /* \"#utility.yul\":2753:2769   */\n      dup2\n      sstore\n        /* \"#utility.yul\":2734:2735   */\n      0x01\n        /* \"#utility.yul\":2723:2736   */\n      add\n        /* \"#utility.yul\":2690:2771   */\n      jump(tag_57)\n    tag_59:\n        /* \"#utility.yul\":2694:2697   */\n      pop\n      pop\n        /* \"#utility.yul\":2360:2781   */\n    tag_55:\n        /* \"#utility.yul\":2269:2787   */\n      pop\n      pop\n      pop\n      jump\t// out\n        /* \"#utility.yul\":2963:4161   */\n    tag_28:\n        /* \"#utility.yul\":3087:3105   */\n      0xffffffffffffffff\n        /* \"#utility.yul\":3082:3085   */\n      dup4\n        /* \"#utility.yul\":3079:3106   */\n      gt\n        /* \"#utility.yul\":3076:3129   */\n      iszero\n      tag_63\n      jumpi\n        /* \"#utility.yul\":3109:3127   */\n      tag_63\n      tag_32\n      jump\t// in\n    tag_63:\n        /* \"#utility.yul\":3138:3232   */\n      tag_64\n        /* \"#utility.yul\":3228:3231   */\n      dup4\n        /* \"#utility.yul\":3188:3226   */\n      tag_65\n        /* \"#utility.yul\":3220:3224   */\n      dup4\n        /* \"#utility.yul\":3214:3225   */\n      sload\n        /* \"#utility.yul\":3188:3226   */\n      tag_16\n      jump\t// in\n    tag_65:\n        /* \"#utility.yul\":3182:3186   */\n      dup4\n        /* \"#utility.yul\":3138:3232   */\n      tag_34\n      jump\t// in\n    tag_64:\n        /* \"#utility.yul\":3258:3259   */\n      0x00\n        /* \"#utility.yul\":3283:3285   */\n      0x1f\n        /* \"#utility.yul\":3278:3281   */\n      dup5\n        /* \"#utility.yul\":3275:3286   */\n      gt\n        /* \"#utility.yul\":3300:3301   */\n      0x01\n        /* \"#utility.yul\":3295:3903   */\n      dup2\n      eq\n      tag_67\n      jumpi\n        /* \"#utility.yul\":3947:3948   */\n      0x00\n        /* \"#utility.yul\":3964:3967   */\n      dup6\n        /* \"#utility.yul\":3961:4054   */\n      iszero\n      tag_68\n      jumpi\n      pop\n        /* \"#utility.yul\":4020:4039   */\n      dup4\n      dup3\n      add\n        /* \"#utility.yul\":4007:4040   */\n      calldataload\n        /* \"#utility.yul\":3961:4054   */\n    tag_68:\n      not(0x00)\n        /* \"#utility.yul\":2920:2921   */\n      0x03\n        /* \"#utility.yul\":2916:2927   */\n      dup8\n      swap1\n      shl\n        /* \"#utility.yul\":2912:2936   */\n      shr\n        /* \"#utility.yul\":2908:2937   */\n      not\n        /* \"#utility.yul\":2898:2938   */\n      and\n        /* \"#utility.yul\":2944:2945   */\n      0x01\n        /* \"#utility.yul\":2940:2951   */\n      dup7\n      swap1\n      shl\n        /* \"#utility.yul\":2895:2952   */\n      or\n        /* \"#utility.yul\":4067:4145   */\n      dup4\n      sstore\n        /* \"#utility.yul\":3268:4155   */\n      jump(tag_59)\n        /* \"#utility.yul\":3295:3903   */\n    tag_67:\n        /* \"#utility.yul\":2216:2217   */\n      0x00\n        /* \"#utility.yul\":2209:2223   */\n      dup4\n      dup2\n      mstore\n        /* \"#utility.yul\":2253:2257   */\n      0x20\n        /* \"#utility.yul\":2240:2258   */\n      dup2\n      keccak256\n      not(0x1f)\n        /* \"#utility.yul\":3331:3348   */\n      dup8\n      and\n      swap2\n        /* \"#utility.yul\":3446:3675   */\n    tag_71:\n        /* \"#utility.yul\":3460:3467   */\n      dup3\n        /* \"#utility.yul\":3457:3458   */\n      dup2\n        /* \"#utility.yul\":3454:3468   */\n      lt\n        /* \"#utility.yul\":3446:3675   */\n      iszero\n      tag_73\n      jumpi\n        /* \"#utility.yul\":3549:3568   */\n      dup7\n      dup6\n      add\n        /* \"#utility.yul\":3536:3569   */\n      calldataload\n        /* \"#utility.yul\":3521:3570   */\n      dup3\n      sstore\n        /* \"#utility.yul\":3656:3660   */\n      0x20\n        /* \"#utility.yul\":3641:3661   */\n      swap5\n      dup6\n      add\n      swap5\n        /* \"#utility.yul\":3609:3610   */\n      0x01\n        /* \"#utility.yul\":3597:3611   */\n      swap1\n      swap3\n      add\n      swap2\n        /* \"#utility.yul\":3476:3488   */\n      add\n        /* \"#utility.yul\":3446:3675   */\n      jump(tag_71)\n    tag_73:\n        /* \"#utility.yul\":3450:3453   */\n      pop\n        /* \"#utility.yul\":3703:3706   */\n      dup7\n        /* \"#utility.yul\":3694:3701   */\n      dup3\n        /* \"#utility.yul\":3691:3707   */\n      lt\n        /* \"#utility.yul\":3688:3847   */\n      iszero\n      tag_74\n      jumpi\n        /* \"#utility.yul\":3827:3828   */\n      0x00\n        /* \"#utility.yul\":3823:3829   */\n      not\n        /* \"#utility.yul\":3817:3820   */\n      0xf8\n        /* \"#utility.yul\":3811:3814   */\n      dup9\n        /* \"#utility.yul\":3808:3809   */\n      0x03\n        /* \"#utility.yul\":3804:3815   */\n      shl\n        /* \"#utility.yul\":3800:3821   */\n      and\n        /* \"#utility.yul\":3796:3830   */\n      shr\n        /* \"#utility.yul\":3792:3831   */\n      not\n        /* \"#utility.yul\":3779:3788   */\n      dup5\n        /* \"#utility.yul\":3774:3777   */\n      dup8\n        /* \"#utility.yul\":3770:3789   */\n      add\n        /* \"#utility.yul\":3757:3790   */\n      calldataload\n        /* \"#utility.yul\":3753:3832   */\n      and\n        /* \"#utility.yul\":3745:3751   */\n      dup2\n        /* \"#utility.yul\":3738:3833   */\n      sstore\n        /* \"#utility.yul\":3688:3847   */\n    tag_74:\n      pop\n      pop\n        /* \"#utility.yul\":3890:3891   */\n      0x01\n        /* \"#utility.yul\":3884:3887   */\n      dup6\n        /* \"#utility.yul\":3881:3882   */\n      0x01\n        /* \"#utility.yul\":3877:3888   */\n      shl\n        /* \"#utility.yul\":3873:3892   */\n      add\n        /* \"#utility.yul\":3867:3871   */\n      dup4\n        /* \"#utility.yul\":3860:3893   */\n      sstore\n        /* \"#utility.yul\":3268:4155   */\n      pop\n      pop\n        /* \"#utility.yul\":2963:4161   */\n      pop\n      pop\n      pop\n      jump\t// out\n        /* \"#utility.yul\":4166:4926   */\n    tag_30:\n        /* \"#utility.yul\":4457:4463   */\n      dup7\n        /* \"#utility.yul\":4446:4455   */\n      dup2\n        /* \"#utility.yul\":4439:4464   */\n      mstore\n        /* \"#utility.yul\":4500:4506   */\n      dup6\n        /* \"#utility.yul\":4495:4497   */\n      0x20\n        /* \"#utility.yul\":4484:4493   */\n      dup3\n        /* \"#utility.yul\":4480:4498   */\n      add\n        /* \"#utility.yul\":4473:4507   */\n      mstore\n        /* \"#utility.yul\":4543:4546   */\n      0xa0\n        /* \"#utility.yul\":4538:4540   */\n      0x40\n        /* \"#utility.yul\":4527:4536   */\n      dup3\n        /* \"#utility.yul\":4523:4541   */\n      add\n        /* \"#utility.yul\":4516:4547   */\n      mstore\n        /* \"#utility.yul\":4420:4424   */\n      0x00\n        /* \"#utility.yul\":4570:4616   */\n      tag_76\n        /* \"#utility.yul\":4611:4614   */\n      0xa0\n        /* \"#utility.yul\":4600:4609   */\n      dup4\n        /* \"#utility.yul\":4596:4615   */\n      add\n        /* \"#utility.yul\":4588:4594   */\n      dup8\n        /* \"#utility.yul\":4570:4616   */\n      tag_31\n      jump\t// in\n    tag_76:\n        /* \"#utility.yul\":4664:4673   */\n      dup3\n        /* \"#utility.yul\":4656:4662   */\n      dup2\n        /* \"#utility.yul\":4652:4674   */\n      sub\n        /* \"#utility.yul\":4647:4649   */\n      0x60\n        /* \"#utility.yul\":4636:4645   */\n      dup5\n        /* \"#utility.yul\":4632:4650   */\n      add\n        /* \"#utility.yul\":4625:4675   */\n      mstore\n        /* \"#utility.yul\":4699:4705   */\n      dup5\n        /* \"#utility.yul\":4691:4697   */\n      dup2\n        /* \"#utility.yul\":4684:4706   */\n      mstore\n        /* \"#utility.yul\":4753:4759   */\n      dup5\n        /* \"#utility.yul\":4745:4751   */\n      dup7\n        /* \"#utility.yul\":4740:4742   */\n      0x20\n        /* \"#utility.yul\":4732:4738   */\n      dup4\n        /* \"#utility.yul\":4728:4743   */\n      add\n        /* \"#utility.yul\":4715:4760   */\n      calldatacopy\n        /* \"#utility.yul\":4806:4807   */\n      0x00\n        /* \"#utility.yul\":4801:4803   */\n      0x20\n        /* \"#utility.yul\":4792:4798   */\n      dup7\n        /* \"#utility.yul\":4784:4790   */\n      dup4\n        /* \"#utility.yul\":4780:4799   */\n      add\n        /* \"#utility.yul\":4776:4804   */\n      add\n        /* \"#utility.yul\":4769:4808   */\n      mstore\n        /* \"#utility.yul\":4873:4875   */\n      0x20\n        /* \"#utility.yul\":4866:4868   */\n      0x1f\n        /* \"#utility.yul\":4862:4869   */\n      not\n        /* \"#utility.yul\":4857:4859   */\n      0x1f\n        /* \"#utility.yul\":4849:4855   */\n      dup8\n        /* \"#utility.yul\":4845:4860   */\n      add\n        /* \"#utility.yul\":4841:4870   */\n      and\n        /* \"#utility.yul\":4833:4839   */\n      dup3\n        /* \"#utility.yul\":4829:4871   */\n      add\n        /* \"#utility.yul\":4825:4876   */\n      add\n        /* \"#utility.yul\":4817:4876   */\n      swap2\n      pop\n      pop\n        /* \"#utility.yul\":4913:4919   */\n      dup3\n        /* \"#utility.yul\":4907:4910   */\n      0x80\n        /* \"#utility.yul\":4896:4905   */\n      dup4\n        /* \"#utility.yul\":4892:4911   */\n      add\n        /* \"#utility.yul\":4885:4920   */\n      mstore\n        /* \"#utility.yul\":4166:4926   */\n      swap8\n      swap7\n      pop\n      pop\n      pop\n      pop\n      pop\n      pop\n      pop\n      jump\t// out\n\n    auxdata: 0xa2646970667358221220244e1de9493d6173d99e3d0f4b9ebe4e6927f74de48ee48a08317b087dce7f1864736f6c634300081a0033\n}\n",
				"bytecode": {
					"linkReferences": {},
					"object": "608060405234801561000f575f80fd5b5060405161083138038061083183398101604081905261002e916100d2565b6040805160608101825283815260208082018481524383850152335f90815291829052929020815181559151909190600182019061006c9082610211565b506040918201516002909101555133907f69cb07637fd66ebf084ed869c8607728f6fcfd4e670d451eb31f280c64b57698906100af905f908690869043906102cb565b60405180910390a25050610322565b634e487b7160e01b5f52604160045260245ffd5b5f80604083850312156100e3575f80fd5b825160208401519092506001600160401b03811115610100575f80fd5b8301601f81018513610110575f80fd5b80516001600160401b03811115610129576101296100be565b604051601f8201601f19908116603f011681016001600160401b0381118282101715610157576101576100be565b60405281815282820160200187101561016e575f80fd5b8160208401602083015e5f602083830101528093505050509250929050565b600181811c908216806101a157607f821691505b6020821081036101bf57634e487b7160e01b5f52602260045260245ffd5b50919050565b601f82111561020c57805f5260205f20601f840160051c810160208510156101ea5750805b601f840160051c820191505b81811015610209575f81556001016101f6565b50505b505050565b81516001600160401b0381111561022a5761022a6100be565b61023e81610238845461018d565b846101c5565b6020601f821160018114610270575f83156102595750848201515b5f19600385901b1c1916600184901b178455610209565b5f84815260208120601f198516915b8281101561029f578785015182556020948501946001909201910161027f565b50848210156102bc57868401515f19600387901b60f8161c191681555b50505050600190811b01905550565b84815283602082015260a060408201525f60a082015260c060608201525f83518060c0840152806020860160e085015e5f60e0828501015260e0601f19601f83011684010191505082608083015295945050505050565b6105028061032f5f395ff3fe608060405234801561000f575f80fd5b5060043610610034575f3560e01c80639e5bb44814610038578063e517a0ff14610063575b5f80fd5b61004b610046366004610227565b610078565b60405161005a93929190610282565b60405180910390f35b6100766100713660046102aa565b610120565b005b5f602081905290815260409020805460018201805491929161009990610321565b80601f01602080910402602001604051908101604052809291908181526020018280546100c590610321565b80156101105780601f106100e757610100808354040283529160200191610110565b820191905f5260205f20905b8154815290600101906020018083116100f357829003601f168201915b5050505050908060020154905083565b335f90815260208190526040812080546001820180549293919261014390610321565b80601f016020809104026020016040519081016040528092919081815260200182805461016f90610321565b80156101ba5780601f10610191576101008083540402835291602001916101ba565b820191905f5260205f20905b81548152906001019060200180831161019d57829003601f168201915b5050508886555090915050600183016101d48587836103b9565b50436002840181905560405133917f69cb07637fd66ebf084ed869c8607728f6fcfd4e670d451eb31f280c64b57698916102179186918b9187918c918c91610473565b60405180910390a2505050505050565b5f60208284031215610237575f80fd5b81356001600160a01b038116811461024d575f80fd5b9392505050565b5f81518084528060208401602086015e5f602082860101526020601f19601f83011685010191505092915050565b838152606060208201525f61029a6060830185610254565b9050826040830152949350505050565b5f805f604084860312156102bc575f80fd5b83359250602084013567ffffffffffffffff8111156102d9575f80fd5b8401601f810186136102e9575f80fd5b803567ffffffffffffffff8111156102ff575f80fd5b866020828401011115610310575f80fd5b939660209190910195509293505050565b600181811c9082168061033557607f821691505b60208210810361035357634e487b7160e01b5f52602260045260245ffd5b50919050565b634e487b7160e01b5f52604160045260245ffd5b601f8211156103b457805f5260205f20601f840160051c810160208510156103925750805b601f840160051c820191505b818110156103b1575f815560010161039e565b50505b505050565b67ffffffffffffffff8311156103d1576103d1610359565b6103e5836103df8354610321565b8361036d565b5f601f841160018114610416575f85156103ff5750838201355b5f19600387901b1c1916600186901b1783556103b1565b5f83815260208120601f198716915b828110156104455786850135825560209485019460019092019101610425565b5086821015610461575f1960f88860031b161c19848701351681555b505060018560011b0183555050505050565b86815285602082015260a060408201525f61049160a0830187610254565b8281036060840152848152848660208301375f602086830101526020601f19601f87011682010191505082608083015297965050505050505056fea2646970667358221220244e1de9493d6173d99e3d0f4b9ebe4e6927f74de48ee48a08317b087dce7f1864736f6c634300081a0033",
					"opcodes": "PUSH1 0x80 PUSH1 0x40 MSTORE CALLVALUE DUP1 ISZERO PUSH2 0xF JUMPI PUSH0 DUP1 REVERT JUMPDEST POP PUSH1 0x40 MLOAD PUSH2 0x831 CODESIZE SUB DUP1 PUSH2 0x831 DUP4 CODECOPY DUP2 ADD PUSH1 0x40 DUP2 SWAP1 MSTORE PUSH2 0x2E SWAP2 PUSH2 0xD2 JUMP JUMPDEST PUSH1 0x40 DUP1 MLOAD PUSH1 0x60 DUP2 ADD DUP3 MSTORE DUP4 DUP2 MSTORE PUSH1 0x20 DUP1 DUP3 ADD DUP5 DUP2 MSTORE NUMBER DUP4 DUP6 ADD MSTORE CALLER PUSH0 SWAP1 DUP2 MSTORE SWAP2 DUP3 SWAP1 MSTORE SWAP3 SWAP1 KECCAK256 DUP2 MLOAD DUP2 SSTORE SWAP2 MLOAD SWAP1 SWAP2 SWAP1 PUSH1 0x1 DUP3 ADD SWAP1 PUSH2 0x6C SWAP1 DUP3 PUSH2 0x211 JUMP JUMPDEST POP PUSH1 0x40 SWAP2 DUP3 ADD MLOAD PUSH1 0x2 SWAP1 SWAP2 ADD SSTORE MLOAD CALLER SWAP1 PUSH32 0x69CB07637FD66EBF084ED869C8607728F6FCFD4E670D451EB31F280C64B57698 SWAP1 PUSH2 0xAF SWAP1 PUSH0 SWAP1 DUP7 SWAP1 DUP7 SWAP1 NUMBER SWAP1 PUSH2 0x2CB JUMP JUMPDEST PUSH1 0x40 MLOAD DUP1 SWAP2 SUB SWAP1 LOG2 POP POP PUSH2 0x322 JUMP JUMPDEST PUSH4 0x4E487B71 PUSH1 0xE0 SHL PUSH0 MSTORE PUSH1 0x41 PUSH1 0x4 MSTORE PUSH1 0x24 PUSH0 REVERT JUMPDEST PUSH0 DUP1 PUSH1 0x40 DUP4 DUP6 SUB SLT ISZERO PUSH2 0xE3 JUMPI PUSH0 DUP1 REVERT JUMPDEST DUP3 MLOAD PUSH1 0x20 DUP5 ADD MLOAD SWAP1 SWAP3 POP PUSH1 0x1 PUSH1 0x1 PUSH1 0x40 SHL SUB DUP2 GT ISZERO PUSH2 0x100 JUMPI PUSH0 DUP1 REVERT JUMPDEST DUP4 ADD PUSH1 0x1F DUP2 ADD DUP6 SGT PUSH2 0x110 JUMPI PUSH0 DUP1 REVERT JUMPDEST DUP1 MLOAD PUSH1 0x1 PUSH1 0x1 PUSH1 0x40 SHL SUB DUP2 GT ISZERO PUSH2 0x129 JUMPI PUSH2 0x129 PUSH2 0xBE JUMP JUMPDEST PUSH1 0x40 MLOAD PUSH1 0x1F DUP3 ADD PUSH1 0x1F NOT SWAP1 DUP2 AND PUSH1 0x3F ADD AND DUP2 ADD PUSH1 0x1 PUSH1 0x1 PUSH1 0x40 SHL SUB DUP2 GT DUP3 DUP3 LT OR ISZERO PUSH2 0x157 JUMPI PUSH2 0x157 PUSH2 0xBE JUMP JUMPDEST PUSH1 0x40 MSTORE DUP2 DUP2 MSTORE DUP3 DUP3 ADD PUSH1 0x20 ADD DUP8 LT ISZERO PUSH2 0x16E JUMPI PUSH0 DUP1 REVERT JUMPDEST DUP2 PUSH1 0x20 DUP5 ADD PUSH1 0x20 DUP4 ADD MCOPY PUSH0 PUSH1 0x20 DUP4 DUP4 ADD ADD MSTORE DUP1 SWAP4 POP POP POP POP SWAP3 POP SWAP3 SWAP1 POP JUMP JUMPDEST PUSH1 0x1 DUP2 DUP2 SHR SWAP1 DUP3 AND DUP1 PUSH2 0x1A1 JUMPI PUSH1 0x7F DUP3 AND SWAP2 POP JUMPDEST PUSH1 0x20 DUP3 LT DUP2 SUB PUSH2 0x1BF JUMPI PUSH4 0x4E487B71 PUSH1 0xE0 SHL PUSH0 MSTORE PUSH1 0x22 PUSH1 0x4 MSTORE PUSH1 0x24 PUSH0 REVERT JUMPDEST POP SWAP2 SWAP1 POP JUMP JUMPDEST PUSH1 0x1F DUP3 GT ISZERO PUSH2 0x20C JUMPI DUP1 PUSH0 MSTORE PUSH1 0x20 PUSH0 KECCAK256 PUSH1 0x1F DUP5 ADD PUSH1 0x5 SHR DUP2 ADD PUSH1 0x20 DUP6 LT ISZERO PUSH2 0x1EA JUMPI POP DUP1 JUMPDEST PUSH1 0x1F DUP5 ADD PUSH1 0x5 SHR DUP3 ADD SWAP2 POP JUMPDEST DUP2 DUP2 LT ISZERO PUSH2 0x209 JUMPI PUSH0 DUP2 SSTORE PUSH1 0x1 ADD PUSH2 0x1F6 JUMP JUMPDEST POP POP JUMPDEST POP POP POP JUMP JUMPDEST DUP2 MLOAD PUSH1 0x1 PUSH1 0x1 PUSH1 0x40 SHL SUB DUP2 GT ISZERO PUSH2 0x22A JUMPI PUSH2 0x22A PUSH2 0xBE JUMP JUMPDEST PUSH2 0x23E DUP2 PUSH2 0x238 DUP5 SLOAD PUSH2 0x18D JUMP JUMPDEST DUP5 PUSH2 0x1C5 JUMP JUMPDEST PUSH1 0x20 PUSH1 0x1F DUP3 GT PUSH1 0x1 DUP2 EQ PUSH2 0x270 JUMPI PUSH0 DUP4 ISZERO PUSH2 0x259 JUMPI POP DUP5 DUP3 ADD MLOAD JUMPDEST PUSH0 NOT PUSH1 0x3 DUP6 SWAP1 SHL SHR NOT AND PUSH1 0x1 DUP5 SWAP1 SHL OR DUP5 SSTORE PUSH2 0x209 JUMP JUMPDEST PUSH0 DUP5 DUP2 MSTORE PUSH1 0x20 DUP2 KECCAK256 PUSH1 0x1F NOT DUP6 AND SWAP2 JUMPDEST DUP3 DUP2 LT ISZERO PUSH2 0x29F JUMPI DUP8 DUP6 ADD MLOAD DUP3 SSTORE PUSH1 0x20 SWAP5 DUP6 ADD SWAP5 PUSH1 0x1 SWAP1 SWAP3 ADD SWAP2 ADD PUSH2 0x27F JUMP JUMPDEST POP DUP5 DUP3 LT ISZERO PUSH2 0x2BC JUMPI DUP7 DUP5 ADD MLOAD PUSH0 NOT PUSH1 0x3 DUP8 SWAP1 SHL PUSH1 0xF8 AND SHR NOT AND DUP2 SSTORE JUMPDEST POP POP POP POP PUSH1 0x1 SWAP1 DUP2 SHL ADD SWAP1 SSTORE POP JUMP JUMPDEST DUP5 DUP2 MSTORE DUP4 PUSH1 0x20 DUP3 ADD MSTORE PUSH1 0xA0 PUSH1 0x40 DUP3 ADD MSTORE PUSH0 PUSH1 0xA0 DUP3 ADD MSTORE PUSH1 0xC0 PUSH1 0x60 DUP3 ADD MSTORE PUSH0 DUP4 MLOAD DUP1 PUSH1 0xC0 DUP5 ADD MSTORE DUP1 PUSH1 0x20 DUP7 ADD PUSH1 0xE0 DUP6 ADD MCOPY PUSH0 PUSH1 0xE0 DUP3 DUP6 ADD ADD MSTORE PUSH1 0xE0 PUSH1 0x1F NOT PUSH1 0x1F DUP4 ADD AND DUP5 ADD ADD SWAP2 POP POP DUP3 PUSH1 0x80 DUP4 ADD MSTORE SWAP6 SWAP5 POP POP POP POP POP JUMP JUMPDEST PUSH2 0x502 DUP1 PUSH2 0x32F PUSH0 CODECOPY PUSH0 RETURN INVALID PUSH1 0x80 PUSH1 0x40 MSTORE CALLVALUE DUP1 ISZERO PUSH2 0xF JUMPI PUSH0 DUP1 REVERT JUMPDEST POP PUSH1 0x4 CALLDATASIZE LT PUSH2 0x34 JUMPI PUSH0 CALLDATALOAD PUSH1 0xE0 SHR DUP1 PUSH4 0x9E5BB448 EQ PUSH2 0x38 JUMPI DUP1 PUSH4 0xE517A0FF EQ PUSH2 0x63 JUMPI JUMPDEST PUSH0 DUP1 REVERT JUMPDEST PUSH2 0x4B PUSH2 0x46 CALLDATASIZE PUSH1 0x4 PUSH2 0x227 JUMP JUMPDEST PUSH2 0x78 JUMP JUMPDEST PUSH1 0x40 MLOAD PUSH2 0x5A SWAP4 SWAP3 SWAP2 SWAP1 PUSH2 0x282 JUMP JUMPDEST PUSH1 0x40 MLOAD DUP1 SWAP2 SUB SWAP1 RETURN JUMPDEST PUSH2 0x76 PUSH2 0x71 CALLDATASIZE PUSH1 0x4 PUSH2 0x2AA JUMP JUMPDEST PUSH2 0x120 JUMP JUMPDEST STOP JUMPDEST PUSH0 PUSH1 0x20 DUP2 SWAP1 MSTORE SWAP1 DUP2 MSTORE PUSH1 0x40 SWAP1 KECCAK256 DUP1 SLOAD PUSH1 0x1 DUP3 ADD DUP1 SLOAD SWAP2 SWAP3 SWAP2 PUSH2 0x99 SWAP1 PUSH2 0x321 JUMP JUMPDEST DUP1 PUSH1 0x1F ADD PUSH1 0x20 DUP1 SWAP2 DIV MUL PUSH1 0x20 ADD PUSH1 0x40 MLOAD SWAP1 DUP2 ADD PUSH1 0x40 MSTORE DUP1 SWAP3 SWAP2 SWAP1 DUP2 DUP2 MSTORE PUSH1 0x20 ADD DUP3 DUP1 SLOAD PUSH2 0xC5 SWAP1 PUSH2 0x321 JUMP JUMPDEST DUP1 ISZERO PUSH2 0x110 JUMPI DUP1 PUSH1 0x1F LT PUSH2 0xE7 JUMPI PUSH2 0x100 DUP1 DUP4 SLOAD DIV MUL DUP4 MSTORE SWAP2 PUSH1 0x20 ADD SWAP2 PUSH2 0x110 JUMP JUMPDEST DUP3 ADD SWAP2 SWAP1 PUSH0 MSTORE PUSH1 0x20 PUSH0 KECCAK256 SWAP1 JUMPDEST DUP2 SLOAD DUP2 MSTORE SWAP1 PUSH1 0x1 ADD SWAP1 PUSH1 0x20 ADD DUP1 DUP4 GT PUSH2 0xF3 JUMPI DUP3 SWAP1 SUB PUSH1 0x1F AND DUP3 ADD SWAP2 JUMPDEST POP POP POP POP POP SWAP1 DUP1 PUSH1 0x2 ADD SLOAD SWAP1 POP DUP4 JUMP JUMPDEST CALLER PUSH0 SWAP1 DUP2 MSTORE PUSH1 0x20 DUP2 SWAP1 MSTORE PUSH1 0x40 DUP2 KECCAK256 DUP1 SLOAD PUSH1 0x1 DUP3 ADD DUP1 SLOAD SWAP3 SWAP4 SWAP2 SWAP3 PUSH2 0x143 SWAP1 PUSH2 0x321 JUMP JUMPDEST DUP1 PUSH1 0x1F ADD PUSH1 0x20 DUP1 SWAP2 DIV MUL PUSH1 0x20 ADD PUSH1 0x40 MLOAD SWAP1 DUP2 ADD PUSH1 0x40 MSTORE DUP1 SWAP3 SWAP2 SWAP1 DUP2 DUP2 MSTORE PUSH1 0x20 ADD DUP3 DUP1 SLOAD PUSH2 0x16F SWAP1 PUSH2 0x321 JUMP JUMPDEST DUP1 ISZERO PUSH2 0x1BA JUMPI DUP1 PUSH1 0x1F LT PUSH2 0x191 JUMPI PUSH2 0x100 DUP1 DUP4 SLOAD DIV MUL DUP4 MSTORE SWAP2 PUSH1 0x20 ADD SWAP2 PUSH2 0x1BA JUMP JUMPDEST DUP3 ADD SWAP2 SWAP1 PUSH0 MSTORE PUSH1 0x20 PUSH0 KECCAK256 SWAP1 JUMPDEST DUP2 SLOAD DUP2 MSTORE SWAP1 PUSH1 0x1 ADD SWAP1 PUSH1 0x20 ADD DUP1 DUP4 GT PUSH2 0x19D JUMPI DUP3 SWAP1 SUB PUSH1 0x1F AND DUP3 ADD SWAP2 JUMPDEST POP POP POP DUP9 DUP7 SSTORE POP SWAP1 SWAP2 POP POP PUSH1 0x1 DUP4 ADD PUSH2 0x1D4 DUP6 DUP8 DUP4 PUSH2 0x3B9 JUMP JUMPDEST POP NUMBER PUSH1 0x2 DUP5 ADD DUP2 SWAP1 SSTORE PUSH1 0x40 MLOAD CALLER SWAP2 PUSH32 0x69CB07637FD66EBF084ED869C8607728F6FCFD4E670D451EB31F280C64B57698 SWAP2 PUSH2 0x217 SWAP2 DUP7 SWAP2 DUP12 SWAP2 DUP8 SWAP2 DUP13 SWAP2 DUP13 SWAP2 PUSH2 0x473 JUMP JUMPDEST PUSH1 0x40 MLOAD DUP1 SWAP2 SUB SWAP1 LOG2 POP POP POP POP POP POP JUMP JUMPDEST PUSH0 PUSH1 0x20 DUP3 DUP5 SUB SLT ISZERO PUSH2 0x237 JUMPI PUSH0 DUP1 REVERT JUMPDEST DUP2 CALLDATALOAD PUSH1 0x1 PUSH1 0x1 PUSH1 0xA0 SHL SUB DUP2 AND DUP2 EQ PUSH2 0x24D JUMPI PUSH0 DUP1 REVERT JUMPDEST SWAP4 SWAP3 POP POP POP JUMP JUMPDEST PUSH0 DUP2 MLOAD DUP1 DUP5 MSTORE DUP1 PUSH1 0x20 DUP5 ADD PUSH1 0x20 DUP7 ADD MCOPY PUSH0 PUSH1 0x20 DUP3 DUP7 ADD ADD MSTORE PUSH1 0x20 PUSH1 0x1F NOT PUSH1 0x1F DUP4 ADD AND DUP6 ADD ADD SWAP2 POP POP SWAP3 SWAP2 POP POP JUMP JUMPDEST DUP4 DUP2 MSTORE PUSH1 0x60 PUSH1 0x20 DUP3 ADD MSTORE PUSH0 PUSH2 0x29A PUSH1 0x60 DUP4 ADD DUP6 PUSH2 0x254 JUMP JUMPDEST SWAP1 POP DUP3 PUSH1 0x40 DUP4 ADD MSTORE SWAP5 SWAP4 POP POP POP POP JUMP JUMPDEST PUSH0 DUP1 PUSH0 PUSH1 0x40 DUP5 DUP7 SUB SLT ISZERO PUSH2 0x2BC JUMPI PUSH0 DUP1 REVERT JUMPDEST DUP4 CALLDATALOAD SWAP3 POP PUSH1 0x20 DUP5 ADD CALLDATALOAD PUSH8 0xFFFFFFFFFFFFFFFF DUP2 GT ISZERO PUSH2 0x2D9 JUMPI PUSH0 DUP1 REVERT JUMPDEST DUP5 ADD PUSH1 0x1F DUP2 ADD DUP7 SGT PUSH2 0x2E9 JUMPI PUSH0 DUP1 REVERT JUMPDEST DUP1 CALLDATALOAD PUSH8 0xFFFFFFFFFFFFFFFF DUP2 GT ISZERO PUSH2 0x2FF JUMPI PUSH0 DUP1 REVERT JUMPDEST DUP7 PUSH1 0x20 DUP3 DUP5 ADD ADD GT ISZERO PUSH2 0x310 JUMPI PUSH0 DUP1 REVERT JUMPDEST SWAP4 SWAP7 PUSH1 0x20 SWAP2 SWAP1 SWAP2 ADD SWAP6 POP SWAP3 SWAP4 POP POP POP JUMP JUMPDEST PUSH1 0x1 DUP2 DUP2 SHR SWAP1 DUP3 AND DUP1 PUSH2 0x335 JUMPI PUSH1 0x7F DUP3 AND SWAP2 POP JUMPDEST PUSH1 0x20 DUP3 LT DUP2 SUB PUSH2 0x353 JUMPI PUSH4 0x4E487B71 PUSH1 0xE0 SHL PUSH0 MSTORE PUSH1 0x22 PUSH1 0x4 MSTORE PUSH1 0x24 PUSH0 REVERT JUMPDEST POP SWAP2 SWAP1 POP JUMP JUMPDEST PUSH4 0x4E487B71 PUSH1 0xE0 SHL PUSH0 MSTORE PUSH1 0x41 PUSH1 0x4 MSTORE PUSH1 0x24 PUSH0 REVERT JUMPDEST PUSH1 0x1F DUP3 GT ISZERO PUSH2 0x3B4 JUMPI DUP1 PUSH0 MSTORE PUSH1 0x20 PUSH0 KECCAK256 PUSH1 0x1F DUP5 ADD PUSH1 0x5 SHR DUP2 ADD PUSH1 0x20 DUP6 LT ISZERO PUSH2 0x392 JUMPI POP DUP1 JUMPDEST PUSH1 0x1F DUP5 ADD PUSH1 0x5 SHR DUP3 ADD SWAP2 POP JUMPDEST DUP2 DUP2 LT ISZERO PUSH2 0x3B1 JUMPI PUSH0 DUP2 SSTORE PUSH1 0x1 ADD PUSH2 0x39E JUMP JUMPDEST POP POP JUMPDEST POP POP POP JUMP JUMPDEST PUSH8 0xFFFFFFFFFFFFFFFF DUP4 GT ISZERO PUSH2 0x3D1 JUMPI PUSH2 0x3D1 PUSH2 0x359 JUMP JUMPDEST PUSH2 0x3E5 DUP4 PUSH2 0x3DF DUP4 SLOAD PUSH2 0x321 JUMP JUMPDEST DUP4 PUSH2 0x36D JUMP JUMPDEST PUSH0 PUSH1 0x1F DUP5 GT PUSH1 0x1 DUP2 EQ PUSH2 0x416 JUMPI PUSH0 DUP6 ISZERO PUSH2 0x3FF JUMPI POP DUP4 DUP3 ADD CALLDATALOAD JUMPDEST PUSH0 NOT PUSH1 0x3 DUP8 SWAP1 SHL SHR NOT AND PUSH1 0x1 DUP7 SWAP1 SHL OR DUP4 SSTORE PUSH2 0x3B1 JUMP JUMPDEST PUSH0 DUP4 DUP2 MSTORE PUSH1 0x20 DUP2 KECCAK256 PUSH1 0x1F NOT DUP8 AND SWAP2 JUMPDEST DUP3 DUP2 LT ISZERO PUSH2 0x445 JUMPI DUP7 DUP6 ADD CALLDATALOAD DUP3 SSTORE PUSH1 0x20 SWAP5 DUP6 ADD SWAP5 PUSH1 0x1 SWAP1 SWAP3 ADD SWAP2 ADD PUSH2 0x425 JUMP JUMPDEST POP DUP7 DUP3 LT ISZERO PUSH2 0x461 JUMPI PUSH0 NOT PUSH1 0xF8 DUP9 PUSH1 0x3 SHL AND SHR NOT DUP5 DUP8 ADD CALLDATALOAD AND DUP2 SSTORE JUMPDEST POP POP PUSH1 0x1 DUP6 PUSH1 0x1 SHL ADD DUP4 SSTORE POP POP POP POP POP JUMP JUMPDEST DUP7 DUP2 MSTORE DUP6 PUSH1 0x20 DUP3 ADD MSTORE PUSH1 0xA0 PUSH1 0x40 DUP3 ADD MSTORE PUSH0 PUSH2 0x491 PUSH1 0xA0 DUP4 ADD DUP8 PUSH2 0x254 JUMP JUMPDEST DUP3 DUP2 SUB PUSH1 0x60 DUP5 ADD MSTORE DUP5 DUP2 MSTORE DUP5 DUP7 PUSH1 0x20 DUP4 ADD CALLDATACOPY PUSH0 PUSH1 0x20 DUP7 DUP4 ADD ADD MSTORE PUSH1 0x20 PUSH1 0x1F NOT PUSH1 0x1F DUP8 ADD AND DUP3 ADD ADD SWAP2 POP POP DUP3 PUSH1 0x80 DUP4 ADD MSTORE SWAP8 SWAP7 POP POP POP POP POP POP POP JUMP INVALID LOG2 PUSH5 0x6970667358 0x22 SLT KECCAK256 0x24 0x4E SAR 0xE9 BLOBHASH RETURNDATASIZE PUSH2 0x73D9 SWAP15 RETURNDATASIZE 0xF 0x4B SWAP15 0xBE 0x4E PUSH10 0x27F74DE48EE48A08317B ADDMOD PUSH30 0xCE7F1864736F6C634300081A003300000000000000000000000000000000 "
				},
				"gasEstimates": {
					"creation": {
						"codeDepositCost": "256400",
						"executionCost": "infinite",
						"totalCost": "infinite"
					},
					"external": {
						"dataStore(address)": "infinite",
						"setNumber(uint256,string)": "infinite"
					}
				},
				"methodIdentifiers": {
					"dataStore(address)": "9e5bb448",
					"setNumber(uint256,string)": "e517a0ff"
				}
			},
			"storageLayout": {
				"storage": [
					{
						"astId": 13,
						"contract": "Contract1.sol:NumberStorage",
						"label": "dataStore",
						"offset": 0,
						"slot": "0",
						"type": "t_mapping(t_address,t_struct(Data)8_storage)"
					}
				],
				"types": {
					"t_address": {
						"encoding": "inplace",
						"label": "address",
						"numberOfBytes": "20"
					},
					"t_mapping(t_address,t_struct(Data)8_storage)": {
						"encoding": "mapping",
						"key": "t_address",
						"label": "mapping(address => struct NumberStorage.Data)",
						"numberOfBytes": "32",
						"value": "t_struct(Data)8_storage"
					},
					"t_string_storage": {
						"encoding": "bytes",
						"label": "string",
						"numberOfBytes": "32"
					},
					"t_struct(Data)8_storage": {
						"encoding": "inplace",
						"label": "struct NumberStorage.Data",
						"members": [
							{
								"astId": 3,
								"contract": "Contract1.sol:NumberStorage",
								"label": "number",
								"offset": 0,
								"slot": "0",
								"type": "t_uint256"
							},
							{
								"astId": 5,
								"contract": "Contract1.sol:NumberStorage",
								"label": "comment",
								"offset": 0,
								"slot": "1",
								"type": "t_string_storage"
							},
							{
								"astId": 7,
								"contract": "Contract1.sol:NumberStorage",
								"label": "blockNumber",
								"offset": 0,
								"slot": "2",
								"type": "t_uint256"
							}
						],
						"numberOfBytes": "96"
					},
					"t_uint256": {
						"encoding": "inplace",
						"label": "uint256",
						"numberOfBytes": "32"
					}
				}
			},
			"userdoc": {
				"kind": "user",
				"methods": {},
				"version": 1
			}
		}
	}
}