{
	"Contract1.sol": {
		"NumberStorage": {
			"abi": [
				{
					"inputs": [
						{
							"internalType": "uint256",
							"name": "_initialNumber",
							"type": "uint256"
						},
						{
							"internalType": "string",
							"name": "_initialComment",
							"type": "string"
						}
					],
					"stateMutability": "nonpayable",
					"type": "constructor"
				},
				{
					"anonymous": false,
					"inputs": [
						{
							"indexed": false,
							"internalType": "address",
							"name": "user",
							"type": "address"
						},
						{
							"indexed": false,
							"internalType": "uint256",
							"name": "newNumber",
							"type": "uint256"
						},
						{
							"indexed": false,
							"internalType": "string",
							"name": "comment",
							"type": "string"
						},
						{
							"indexed": false,
							"internalType": "uint256",
							"name": "blockNumber",
							"type": "uint256"
						}
					],
					"name": "NumberUpdated",
					"type": "event"
				},
				{
					"inputs": [
						{
							"internalType": "uint256",
							"name": "_newNumber",
							"type": "uint256"
						},
						{
							"internalType": "string",
							"name": "_newComment",
							"type": "string"
						}
					],
					"name": "setNumber",
					"outputs": [],
					"stateMutability": "nonpayable",
					"type": "function"
				},
				{
					"inputs": [
						{
							"internalType": "address",
							"name": "",
							"type": "address"
						}
					],
					"name": "userData",
					"outputs": [
						{
							"internalType": "uint256",
							"name": "number",
							"type": "uint256"
						},
						{
							"internalType": "string",
							"name": "comment",
							"type": "string"
						},
						{
							"internalType": "uint256",
							"name": "blockNumber",
							"type": "uint256"
						}
					],
					"stateMutability": "view",
					"type": "function"
				}
			],
			"devdoc": {
				"kind": "dev",
				"methods": {},
				"version": 1
			},
			"evm": {
				"assembly": "    /* \"Contract1.sol\":60:1460  contract NumberStorage {\r... */\n  mstore(0x40, 0x80)\n    /* \"Contract1.sol\":589:923  constructor(uint256 _initialNumber, string memory _initialComment) {\r... */\n  callvalue\n  dup1\n  iszero\n  tag_1\n  jumpi\n  0x00\n  dup1\n  revert\ntag_1:\n  pop\n  mload(0x40)\n  sub(codesize, bytecodeSize)\n  dup1\n  bytecodeSize\n  dup4\n  codecopy\n  dup2\n  add\n  0x40\n  dup2\n  swap1\n  mstore\n  tag_2\n  swap2\n  tag_3\n  jump\t// in\ntag_2:\n    /* \"Contract1.sol\":690:827  UserData({\r... */\n  0x40\n  dup1\n  mload\n  0x60\n  dup2\n  add\n  dup3\n  mstore\n  dup4\n  dup2\n  mstore\n  0x20\n  dup1\n  dup3\n  add\n  dup5\n  dup2\n  mstore\n    /* \"Contract1.sol\":803:815  block.number */\n  number\n    /* \"Contract1.sol\":690:827  UserData({\r... */\n  dup4\n  dup6\n  add\n  mstore\n    /* \"Contract1.sol\":676:686  msg.sender */\n  caller\n  0x00\n    /* \"Contract1.sol\":667:687  userData[msg.sender] */\n  swap1\n  dup2\n  mstore\n  dup1\n  dup4\n  mstore\n  swap4\n  swap1\n  swap4\n  keccak256\n    /* \"Contract1.sol\":667:827  userData[msg.sender] = UserData({\r... */\n  dup3\n  mload\n  dup2\n  sstore\n  swap3\n  mload\n  dup1\n  mload\n    /* \"Contract1.sol\":690:827  UserData({\r... */\n  swap3\n  swap4\n    /* \"Contract1.sol\":667:687  userData[msg.sender] */\n  swap3\n    /* \"Contract1.sol\":667:827  userData[msg.sender] = UserData({\r... */\n  tag_6\n  swap3\n  0x01\n  dup6\n  add\n  swap3\n  add\n  swap1\n  tag_7\n  jump\t// in\ntag_6:\n  pop\n  0x40\n  swap2\n  dup3\n  add\n  mload\n  0x02\n  swap1\n  swap2\n  add\n  sstore\n    /* \"Contract1.sol\":843:915  NumberUpdated(msg.sender, _initialNumber, _initialComment, block.number) */\n  mload\n  0x8f6415d97d2a428fd228e0563a1ddd3c45befbf761008e41e475165abb71cdaf\n  swap1\n  tag_8\n  swap1\n    /* \"Contract1.sol\":857:867  msg.sender */\n  caller\n  swap1\n    /* \"Contract1.sol\":869:883  _initialNumber */\n  dup6\n  swap1\n    /* \"Contract1.sol\":885:900  _initialComment */\n  dup6\n  swap1\n    /* \"Contract1.sol\":902:914  block.number */\n  number\n  swap1\n    /* \"Contract1.sol\":843:915  NumberUpdated(msg.sender, _initialNumber, _initialComment, block.number) */\n  tag_9\n  jump\t// in\ntag_8:\n  mload(0x40)\n  dup1\n  swap2\n  sub\n  swap1\n  log1\n    /* \"Contract1.sol\":589:923  constructor(uint256 _initialNumber, string memory _initialComment) {\r... */\n  pop\n  pop\n    /* \"Contract1.sol\":60:1460  contract NumberStorage {\r... */\n  jump(tag_22)\ntag_7:\n  dup3\n  dup1\n  sload\n  tag_11\n  swap1\n  tag_12\n  jump\t// in\ntag_11:\n  swap1\n  0x00\n  mstore\n  keccak256(0x00, 0x20)\n  swap1\n  0x1f\n  add\n  0x20\n  swap1\n  div\n  dup2\n  add\n  swap3\n  dup3\n  tag_14\n  jumpi\n  0x00\n  dup6\n  sstore\n  jump(tag_17)\ntag_14:\n  dup3\n  0x1f\n  lt\n  tag_15\n  jumpi\n  dup1\n  mload\n  not(0xff)\n  and\n  dup4\n  dup1\n  add\n  or\n  dup6\n  sstore\n  jump(tag_17)\ntag_15:\n  dup3\n  dup1\n  add\n  0x01\n  add\n  dup6\n  sstore\n  dup3\n  iszero\n  tag_17\n  jumpi\n  swap2\n  dup3\n  add\ntag_16:\n  dup3\n  dup2\n  gt\n  iszero\n  tag_17\n  jumpi\n  dup3\n  mload\n  dup3\n  sstore\n  swap2\n  0x20\n  add\n  swap2\n  swap1\n  0x01\n  add\n  swap1\n  jump(tag_16)\ntag_17:\n  pop\n  tag_18\n  swap3\n  swap2\n  pop\n  tag_19\n  jump\t// in\ntag_18:\n  pop\n  swap1\n  jump\t// out\ntag_19:\ntag_20:\n  dup1\n  dup3\n  gt\n  iszero\n  tag_18\n  jumpi\n  0x00\n  dup2\n  sstore\n  0x01\n  add\n  jump(tag_20)\n    /* \"#utility.yul\":14:969   */\ntag_3:\n  0x00\n  dup1\n    /* \"#utility.yul\":164:166   */\n  0x40\n    /* \"#utility.yul\":152:161   */\n  dup4\n    /* \"#utility.yul\":143:150   */\n  dup6\n    /* \"#utility.yul\":139:162   */\n  sub\n    /* \"#utility.yul\":135:167   */\n  slt\n    /* \"#utility.yul\":132:134   */\n  iszero\n  tag_24\n  jumpi\n    /* \"#utility.yul\":185:191   */\n  dup2\n    /* \"#utility.yul\":177:183   */\n  dup3\n    /* \"#utility.yul\":170:192   */\n  revert\n    /* \"#utility.yul\":132:134   */\ntag_24:\n    /* \"#utility.yul\":213:229   */\n  dup3\n  mload\n    /* \"#utility.yul\":273:275   */\n  0x20\n    /* \"#utility.yul\":258:276   */\n  dup5\n  add\n    /* \"#utility.yul\":252:277   */\n  mload\n    /* \"#utility.yul\":213:229   */\n  swap1\n  swap3\n  pop\n  sub(shl(0x40, 0x01), 0x01)\n    /* \"#utility.yul\":326:340   */\n  dup1\n  dup3\n  gt\n    /* \"#utility.yul\":323:325   */\n  iszero\n  tag_25\n  jumpi\n    /* \"#utility.yul\":358:364   */\n  dup3\n    /* \"#utility.yul\":350:356   */\n  dup4\n    /* \"#utility.yul\":343:365   */\n  revert\n    /* \"#utility.yul\":323:325   */\ntag_25:\n    /* \"#utility.yul\":401:407   */\n  dup2\n    /* \"#utility.yul\":390:399   */\n  dup6\n    /* \"#utility.yul\":386:408   */\n  add\n    /* \"#utility.yul\":376:408   */\n  swap2\n  pop\n    /* \"#utility.yul\":446:453   */\n  dup6\n    /* \"#utility.yul\":439:443   */\n  0x1f\n    /* \"#utility.yul\":435:437   */\n  dup4\n    /* \"#utility.yul\":431:444   */\n  add\n    /* \"#utility.yul\":427:454   */\n  slt\n    /* \"#utility.yul\":417:419   */\n  tag_26\n  jumpi\n    /* \"#utility.yul\":473:479   */\n  dup3\n    /* \"#utility.yul\":465:471   */\n  dup4\n    /* \"#utility.yul\":458:480   */\n  revert\n    /* \"#utility.yul\":417:419   */\ntag_26:\n    /* \"#utility.yul\":507:509   */\n  dup2\n    /* \"#utility.yul\":501:510   */\n  mload\n    /* \"#utility.yul\":529:531   */\n  dup2\n    /* \"#utility.yul\":525:527   */\n  dup2\n    /* \"#utility.yul\":522:532   */\n  gt\n    /* \"#utility.yul\":519:521   */\n  iszero\n  tag_28\n  jumpi\n    /* \"#utility.yul\":535:553   */\n  tag_28\n  tag_29\n  jump\t// in\ntag_28:\n    /* \"#utility.yul\":584:586   */\n  0x40\n    /* \"#utility.yul\":578:587   */\n  mload\n    /* \"#utility.yul\":653:655   */\n  0x1f\n    /* \"#utility.yul\":634:647   */\n  dup3\n  add\n  not(0x1f)\n    /* \"#utility.yul\":630:657   */\n  and\n    /* \"#utility.yul\":618:658   */\n  dup2\n  add\n    /* \"#utility.yul\":660:662   */\n  0x20\n    /* \"#utility.yul\":614:663   */\n  add\n    /* \"#utility.yul\":678:696   */\n  dup4\n  dup2\n  gt\n    /* \"#utility.yul\":698:720   */\n  dup3\n  dup3\n  lt\n    /* \"#utility.yul\":675:721   */\n  or\n    /* \"#utility.yul\":672:674   */\n  iszero\n  tag_31\n  jumpi\n    /* \"#utility.yul\":724:742   */\n  tag_31\n  tag_29\n  jump\t// in\ntag_31:\n    /* \"#utility.yul\":760:762   */\n  0x40\n    /* \"#utility.yul\":753:775   */\n  mstore\n    /* \"#utility.yul\":784:802   */\n  dup2\n  dup2\n  mstore\n    /* \"#utility.yul\":821:832   */\n  dup4\n  dup3\n  add\n    /* \"#utility.yul\":834:836   */\n  0x20\n    /* \"#utility.yul\":817:837   */\n  add\n    /* \"#utility.yul\":814:847   */\n  dup9\n  lt\n    /* \"#utility.yul\":811:813   */\n  iszero\n  tag_32\n  jumpi\n    /* \"#utility.yul\":865:871   */\n  dup5\n    /* \"#utility.yul\":857:863   */\n  dup6\n    /* \"#utility.yul\":850:872   */\n  revert\n    /* \"#utility.yul\":811:813   */\ntag_32:\n    /* \"#utility.yul\":883:938   */\n  tag_33\n    /* \"#utility.yul\":935:937   */\n  dup3\n    /* \"#utility.yul\":930:932   */\n  0x20\n    /* \"#utility.yul\":922:928   */\n  dup4\n    /* \"#utility.yul\":918:933   */\n  add\n    /* \"#utility.yul\":913:915   */\n  0x20\n    /* \"#utility.yul\":909:911   */\n  dup8\n    /* \"#utility.yul\":905:916   */\n  add\n    /* \"#utility.yul\":883:938   */\n  tag_34\n  jump\t// in\ntag_33:\n    /* \"#utility.yul\":957:963   */\n  dup1\n    /* \"#utility.yul\":947:963   */\n  swap5\n  pop\n  pop\n  pop\n  pop\n  pop\n    /* \"#utility.yul\":122:969   */\n  swap3\n  pop\n  swap3\n  swap1\n  pop\n  jump\t// out\n    /* \"#utility.yul\":974:1600   */\ntag_9:\n  0x00\n    /* \"#utility.yul\":1236:1237   */\n  0x01\n    /* \"#utility.yul\":1232:1233   */\n  dup1\n    /* \"#utility.yul\":1227:1230   */\n  0xa0\n    /* \"#utility.yul\":1223:1234   */\n  shl\n    /* \"#utility.yul\":1219:1238   */\n  sub\n    /* \"#utility.yul\":1211:1217   */\n  dup7\n    /* \"#utility.yul\":1207:1239   */\n  and\n    /* \"#utility.yul\":1196:1205   */\n  dup3\n    /* \"#utility.yul\":1189:1240   */\n  mstore\n    /* \"#utility.yul\":1276:1282   */\n  dup5\n    /* \"#utility.yul\":1271:1273   */\n  0x20\n    /* \"#utility.yul\":1260:1269   */\n  dup4\n    /* \"#utility.yul\":1256:1274   */\n  add\n    /* \"#utility.yul\":1249:1283   */\n  mstore\n    /* \"#utility.yul\":1319:1322   */\n  0x80\n    /* \"#utility.yul\":1314:1316   */\n  0x40\n    /* \"#utility.yul\":1303:1312   */\n  dup4\n    /* \"#utility.yul\":1299:1317   */\n  add\n    /* \"#utility.yul\":1292:1323   */\n  mstore\n    /* \"#utility.yul\":1352:1358   */\n  dup4\n    /* \"#utility.yul\":1346:1359   */\n  mload\n    /* \"#utility.yul\":1396:1402   */\n  dup1\n    /* \"#utility.yul\":1390:1393   */\n  0x80\n    /* \"#utility.yul\":1379:1388   */\n  dup5\n    /* \"#utility.yul\":1375:1394   */\n  add\n    /* \"#utility.yul\":1368:1403   */\n  mstore\n    /* \"#utility.yul\":1412:1479   */\n  tag_36\n    /* \"#utility.yul\":1472:1478   */\n  dup2\n    /* \"#utility.yul\":1466:1469   */\n  0xa0\n    /* \"#utility.yul\":1455:1464   */\n  dup6\n    /* \"#utility.yul\":1451:1470   */\n  add\n    /* \"#utility.yul\":1446:1448   */\n  0x20\n    /* \"#utility.yul\":1438:1444   */\n  dup9\n    /* \"#utility.yul\":1434:1449   */\n  add\n    /* \"#utility.yul\":1412:1479   */\n  tag_34\n  jump\t// in\ntag_36:\n    /* \"#utility.yul\":1582:1584   */\n  0x60\n    /* \"#utility.yul\":1567:1585   */\n  dup4\n  add\n    /* \"#utility.yul\":1560:1594   */\n  swap4\n  swap1\n  swap4\n  mstore\n  pop\n    /* \"#utility.yul\":1540:1542   */\n  0x1f\n    /* \"#utility.yul\":1519:1534   */\n  swap2\n  swap1\n  swap2\n  add\n  not(0x1f)\n    /* \"#utility.yul\":1515:1544   */\n  and\n    /* \"#utility.yul\":1500:1545   */\n  add\n    /* \"#utility.yul\":1547:1550   */\n  0xa0\n    /* \"#utility.yul\":1496:1551   */\n  add\n  swap4\n    /* \"#utility.yul\":1179:1600   */\n  swap3\n  pop\n  pop\n  pop\n  jump\t// out\n    /* \"#utility.yul\":1605:1863   */\ntag_34:\n    /* \"#utility.yul\":1677:1678   */\n  0x00\n    /* \"#utility.yul\":1687:1800   */\ntag_38:\n    /* \"#utility.yul\":1701:1707   */\n  dup4\n    /* \"#utility.yul\":1698:1699   */\n  dup2\n    /* \"#utility.yul\":1695:1708   */\n  lt\n    /* \"#utility.yul\":1687:1800   */\n  iszero\n  tag_40\n  jumpi\n    /* \"#utility.yul\":1777:1788   */\n  dup2\n  dup2\n  add\n    /* \"#utility.yul\":1771:1789   */\n  mload\n    /* \"#utility.yul\":1758:1769   */\n  dup4\n  dup3\n  add\n    /* \"#utility.yul\":1751:1790   */\n  mstore\n    /* \"#utility.yul\":1723:1725   */\n  0x20\n    /* \"#utility.yul\":1716:1726   */\n  add\n    /* \"#utility.yul\":1687:1800   */\n  jump(tag_38)\ntag_40:\n    /* \"#utility.yul\":1818:1824   */\n  dup4\n    /* \"#utility.yul\":1815:1816   */\n  dup2\n    /* \"#utility.yul\":1812:1825   */\n  gt\n    /* \"#utility.yul\":1809:1811   */\n  iszero\n  tag_41\n  jumpi\n    /* \"#utility.yul\":1853:1854   */\n  0x00\n    /* \"#utility.yul\":1844:1850   */\n  dup5\n    /* \"#utility.yul\":1839:1842   */\n  dup5\n    /* \"#utility.yul\":1835:1851   */\n  add\n    /* \"#utility.yul\":1828:1855   */\n  mstore\n    /* \"#utility.yul\":1809:1811   */\ntag_41:\n  pop\n    /* \"#utility.yul\":1658:1863   */\n  pop\n  pop\n  pop\n  jump\t// out\n    /* \"#utility.yul\":1868:2248   */\ntag_12:\n    /* \"#utility.yul\":1953:1954   */\n  0x02\n    /* \"#utility.yul\":1943:1955   */\n  dup2\n  div\n    /* \"#utility.yul\":2000:2001   */\n  0x01\n    /* \"#utility.yul\":1990:2002   */\n  dup3\n  and\n  dup1\n    /* \"#utility.yul\":2011:2013   */\n  tag_43\n  jumpi\n    /* \"#utility.yul\":2065:2069   */\n  0x7f\n    /* \"#utility.yul\":2057:2063   */\n  dup3\n    /* \"#utility.yul\":2053:2070   */\n  and\n    /* \"#utility.yul\":2043:2070   */\n  swap2\n  pop\n    /* \"#utility.yul\":2011:2013   */\ntag_43:\n    /* \"#utility.yul\":2118:2120   */\n  0x20\n    /* \"#utility.yul\":2110:2116   */\n  dup3\n    /* \"#utility.yul\":2107:2121   */\n  lt\n    /* \"#utility.yul\":2087:2105   */\n  dup2\n    /* \"#utility.yul\":2084:2122   */\n  eq\n    /* \"#utility.yul\":2081:2083   */\n  iszero\n  tag_44\n  jumpi\n    /* \"#utility.yul\":2164:2174   */\n  0x4e487b71\n    /* \"#utility.yul\":2159:2162   */\n  0xe0\n    /* \"#utility.yul\":2155:2175   */\n  shl\n    /* \"#utility.yul\":2152:2153   */\n  0x00\n    /* \"#utility.yul\":2145:2176   */\n  mstore\n    /* \"#utility.yul\":2199:2203   */\n  0x22\n    /* \"#utility.yul\":2196:2197   */\n  0x04\n    /* \"#utility.yul\":2189:2204   */\n  mstore\n    /* \"#utility.yul\":2227:2231   */\n  0x24\n    /* \"#utility.yul\":2224:2225   */\n  0x00\n    /* \"#utility.yul\":2217:2232   */\n  revert\n    /* \"#utility.yul\":2081:2083   */\ntag_44:\n  pop\n    /* \"#utility.yul\":1923:2248   */\n  swap2\n  swap1\n  pop\n  jump\t// out\n    /* \"#utility.yul\":2253:2380   */\ntag_29:\n    /* \"#utility.yul\":2314:2324   */\n  0x4e487b71\n    /* \"#utility.yul\":2309:2312   */\n  0xe0\n    /* \"#utility.yul\":2305:2325   */\n  shl\n    /* \"#utility.yul\":2302:2303   */\n  0x00\n    /* \"#utility.yul\":2295:2326   */\n  mstore\n    /* \"#utility.yul\":2345:2349   */\n  0x41\n    /* \"#utility.yul\":2342:2343   */\n  0x04\n    /* \"#utility.yul\":2335:2350   */\n  mstore\n    /* \"#utility.yul\":2369:2373   */\n  0x24\n    /* \"#utility.yul\":2366:2367   */\n  0x00\n    /* \"#utility.yul\":2359:2374   */\n  revert\n    /* \"#utility.yul\":2285:2380   */\ntag_22:\n    /* \"Contract1.sol\":60:1460  contract NumberStorage {\r... */\n  dataSize(sub_0)\n  dup1\n  dataOffset(sub_0)\n  0x00\n  codecopy\n  0x00\n  return\nstop\n\nsub_0: assembly {\n        /* \"Contract1.sol\":60:1460  contract NumberStorage {\r... */\n      mstore(0x40, 0x80)\n      callvalue\n      dup1\n      iszero\n      tag_1\n      jumpi\n      0x00\n      dup1\n      revert\n    tag_1:\n      pop\n      jumpi(tag_2, lt(calldatasize, 0x04))\n      shr(0xe0, calldataload(0x00))\n      dup1\n      0xc8910913\n      eq\n      tag_3\n      jumpi\n      dup1\n      0xe517a0ff\n      eq\n      tag_4\n      jumpi\n    tag_2:\n      0x00\n      dup1\n      revert\n        /* \"Contract1.sol\":315:359  mapping(address => UserData) public userData */\n    tag_3:\n      tag_5\n      tag_6\n      calldatasize\n      0x04\n      tag_7\n      jump\t// in\n    tag_6:\n      tag_8\n      jump\t// in\n    tag_5:\n      mload(0x40)\n      tag_9\n      swap4\n      swap3\n      swap2\n      swap1\n      tag_10\n      jump\t// in\n    tag_9:\n      mload(0x40)\n      dup1\n      swap2\n      sub\n      swap1\n      return\n        /* \"Contract1.sol\":1003:1457  function setNumber(uint256 _newNumber, string memory _newComment) public {\r... */\n    tag_4:\n      tag_11\n      tag_12\n      calldatasize\n      0x04\n      tag_13\n      jump\t// in\n    tag_12:\n      tag_14\n      jump\t// in\n    tag_11:\n      stop\n        /* \"Contract1.sol\":315:359  mapping(address => UserData) public userData */\n    tag_8:\n      0x00\n      0x20\n      dup2\n      swap1\n      mstore\n      swap1\n      dup2\n      mstore\n      0x40\n      swap1\n      keccak256\n      dup1\n      sload\n      0x01\n      dup3\n      add\n      dup1\n      sload\n      swap2\n      swap3\n      swap2\n      tag_15\n      swap1\n      tag_16\n      jump\t// in\n    tag_15:\n      dup1\n      0x1f\n      add\n      0x20\n      dup1\n      swap2\n      div\n      mul\n      0x20\n      add\n      mload(0x40)\n      swap1\n      dup2\n      add\n      0x40\n      mstore\n      dup1\n      swap3\n      swap2\n      swap1\n      dup2\n      dup2\n      mstore\n      0x20\n      add\n      dup3\n      dup1\n      sload\n      tag_17\n      swap1\n      tag_16\n      jump\t// in\n    tag_17:\n      dup1\n      iszero\n      tag_18\n      jumpi\n      dup1\n      0x1f\n      lt\n      tag_19\n      jumpi\n      0x0100\n      dup1\n      dup4\n      sload\n      div\n      mul\n      dup4\n      mstore\n      swap2\n      0x20\n      add\n      swap2\n      jump(tag_18)\n    tag_19:\n      dup3\n      add\n      swap2\n      swap1\n      0x00\n      mstore\n      keccak256(0x00, 0x20)\n      swap1\n    tag_20:\n      dup2\n      sload\n      dup2\n      mstore\n      swap1\n      0x01\n      add\n      swap1\n      0x20\n      add\n      dup1\n      dup4\n      gt\n      tag_20\n      jumpi\n      dup3\n      swap1\n      sub\n      0x1f\n      and\n      dup3\n      add\n      swap2\n    tag_18:\n      pop\n      pop\n      pop\n      pop\n      pop\n      swap1\n      dup1\n      0x02\n      add\n      sload\n      swap1\n      pop\n      dup4\n      jump\t// out\n        /* \"Contract1.sol\":1003:1457  function setNumber(uint256 _newNumber, string memory _newComment) public {\r... */\n    tag_14:\n        /* \"Contract1.sol\":1156:1166  msg.sender */\n      caller\n        /* \"Contract1.sol\":1123:1144  UserData storage data */\n      0x00\n        /* \"Contract1.sol\":1147:1167  userData[msg.sender] */\n      swap1\n      dup2\n      mstore\n      0x20\n      dup2\n      dup2\n      mstore\n      0x40\n      swap1\n      swap2\n      keccak256\n        /* \"Contract1.sol\":1215:1239  data.number = _newNumber */\n      dup4\n      dup2\n      sstore\n        /* \"Contract1.sol\":1250:1276  data.comment = _newComment */\n      dup3\n      mload\n        /* \"Contract1.sol\":1147:1167  userData[msg.sender] */\n      swap1\n      swap2\n        /* \"Contract1.sol\":1250:1276  data.comment = _newComment */\n      tag_22\n      swap2\n        /* \"Contract1.sol\":1250:1262  data.comment */\n      0x01\n      dup5\n      add\n      swap2\n        /* \"Contract1.sol\":1250:1276  data.comment = _newComment */\n      dup6\n      add\n      swap1\n      tag_23\n      jump\t// in\n    tag_22:\n      pop\n        /* \"Contract1.sol\":1306:1318  block.number */\n      number\n        /* \"Contract1.sol\":1287:1303  data.blockNumber */\n      0x02\n      dup3\n      add\n        /* \"Contract1.sol\":1287:1318  data.blockNumber = block.number */\n      dup2\n      swap1\n      sstore\n        /* \"Contract1.sol\":1385:1449  NumberUpdated(msg.sender, _newNumber, _newComment, block.number) */\n      mload(0x40)\n      0x8f6415d97d2a428fd228e0563a1ddd3c45befbf761008e41e475165abb71cdaf\n      swap2\n      tag_24\n      swap2\n        /* \"Contract1.sol\":1399:1409  msg.sender */\n      caller\n      swap2\n        /* \"Contract1.sol\":1411:1421  _newNumber */\n      dup8\n      swap2\n        /* \"Contract1.sol\":1423:1434  _newComment */\n      dup8\n      swap2\n        /* \"Contract1.sol\":1306:1318  block.number */\n      swap1\n        /* \"Contract1.sol\":1385:1449  NumberUpdated(msg.sender, _newNumber, _newComment, block.number) */\n      tag_25\n      jump\t// in\n    tag_24:\n      mload(0x40)\n      dup1\n      swap2\n      sub\n      swap1\n      log1\n        /* \"Contract1.sol\":1003:1457  function setNumber(uint256 _newNumber, string memory _newComment) public {\r... */\n      pop\n      pop\n      pop\n      jump\t// out\n    tag_23:\n      dup3\n      dup1\n      sload\n      tag_26\n      swap1\n      tag_16\n      jump\t// in\n    tag_26:\n      swap1\n      0x00\n      mstore\n      keccak256(0x00, 0x20)\n      swap1\n      0x1f\n      add\n      0x20\n      swap1\n      div\n      dup2\n      add\n      swap3\n      dup3\n      tag_28\n      jumpi\n      0x00\n      dup6\n      sstore\n      jump(tag_31)\n    tag_28:\n      dup3\n      0x1f\n      lt\n      tag_29\n      jumpi\n      dup1\n      mload\n      not(0xff)\n      and\n      dup4\n      dup1\n      add\n      or\n      dup6\n      sstore\n      jump(tag_31)\n    tag_29:\n      dup3\n      dup1\n      add\n      0x01\n      add\n      dup6\n      sstore\n      dup3\n      iszero\n      tag_31\n      jumpi\n      swap2\n      dup3\n      add\n    tag_30:\n      dup3\n      dup2\n      gt\n      iszero\n      tag_31\n      jumpi\n      dup3\n      mload\n      dup3\n      sstore\n      swap2\n      0x20\n      add\n      swap2\n      swap1\n      0x01\n      add\n      swap1\n      jump(tag_30)\n    tag_31:\n      pop\n      tag_32\n      swap3\n      swap2\n      pop\n      tag_33\n      jump\t// in\n    tag_32:\n      pop\n      swap1\n      jump\t// out\n    tag_33:\n    tag_34:\n      dup1\n      dup3\n      gt\n      iszero\n      tag_32\n      jumpi\n      0x00\n      dup2\n      sstore\n      0x01\n      add\n      jump(tag_34)\n        /* \"#utility.yul\":14:320   */\n    tag_7:\n      0x00\n        /* \"#utility.yul\":126:128   */\n      0x20\n        /* \"#utility.yul\":114:123   */\n      dup3\n        /* \"#utility.yul\":105:112   */\n      dup5\n        /* \"#utility.yul\":101:124   */\n      sub\n        /* \"#utility.yul\":97:129   */\n      slt\n        /* \"#utility.yul\":94:96   */\n      iszero\n      tag_38\n      jumpi\n        /* \"#utility.yul\":147:153   */\n      dup1\n        /* \"#utility.yul\":139:145   */\n      dup2\n        /* \"#utility.yul\":132:154   */\n      revert\n        /* \"#utility.yul\":94:96   */\n    tag_38:\n        /* \"#utility.yul\":178:201   */\n      dup2\n      calldataload\n      sub(shl(0xa0, 0x01), 0x01)\n        /* \"#utility.yul\":230:261   */\n      dup2\n      and\n        /* \"#utility.yul\":220:262   */\n      dup2\n      eq\n        /* \"#utility.yul\":210:212   */\n      tag_39\n      jumpi\n        /* \"#utility.yul\":281:287   */\n      dup2\n        /* \"#utility.yul\":273:279   */\n      dup3\n        /* \"#utility.yul\":266:288   */\n      revert\n        /* \"#utility.yul\":210:212   */\n    tag_39:\n        /* \"#utility.yul\":309:314   */\n      swap4\n        /* \"#utility.yul\":84:320   */\n      swap3\n      pop\n      pop\n      pop\n      jump\t// out\n        /* \"#utility.yul\":325:1351   */\n    tag_13:\n      0x00\n      dup1\n        /* \"#utility.yul\":464:466   */\n      0x40\n        /* \"#utility.yul\":452:461   */\n      dup4\n        /* \"#utility.yul\":443:450   */\n      dup6\n        /* \"#utility.yul\":439:462   */\n      sub\n        /* \"#utility.yul\":435:467   */\n      slt\n        /* \"#utility.yul\":432:434   */\n      iszero\n      tag_41\n      jumpi\n        /* \"#utility.yul\":485:491   */\n      dup1\n        /* \"#utility.yul\":477:483   */\n      dup2\n        /* \"#utility.yul\":470:492   */\n      revert\n        /* \"#utility.yul\":432:434   */\n    tag_41:\n        /* \"#utility.yul\":526:535   */\n      dup3\n        /* \"#utility.yul\":513:536   */\n      calldataload\n        /* \"#utility.yul\":503:536   */\n      swap2\n      pop\n        /* \"#utility.yul\":555:557   */\n      0x20\n        /* \"#utility.yul\":608:610   */\n      dup1\n        /* \"#utility.yul\":597:606   */\n      dup5\n        /* \"#utility.yul\":593:611   */\n      add\n        /* \"#utility.yul\":580:612   */\n      calldataload\n        /* \"#utility.yul\":631:649   */\n      0xffffffffffffffff\n        /* \"#utility.yul\":672:674   */\n      dup1\n        /* \"#utility.yul\":664:670   */\n      dup3\n        /* \"#utility.yul\":661:675   */\n      gt\n        /* \"#utility.yul\":658:660   */\n      iszero\n      tag_42\n      jumpi\n        /* \"#utility.yul\":693:699   */\n      dup4\n        /* \"#utility.yul\":685:691   */\n      dup5\n        /* \"#utility.yul\":678:700   */\n      revert\n        /* \"#utility.yul\":658:660   */\n    tag_42:\n        /* \"#utility.yul\":736:742   */\n      dup2\n        /* \"#utility.yul\":725:734   */\n      dup7\n        /* \"#utility.yul\":721:743   */\n      add\n        /* \"#utility.yul\":711:743   */\n      swap2\n      pop\n        /* \"#utility.yul\":781:788   */\n      dup7\n        /* \"#utility.yul\":774:778   */\n      0x1f\n        /* \"#utility.yul\":770:772   */\n      dup4\n        /* \"#utility.yul\":766:779   */\n      add\n        /* \"#utility.yul\":762:789   */\n      slt\n        /* \"#utility.yul\":752:754   */\n      tag_43\n      jumpi\n        /* \"#utility.yul\":808:814   */\n      dup4\n        /* \"#utility.yul\":800:806   */\n      dup5\n        /* \"#utility.yul\":793:815   */\n      revert\n        /* \"#utility.yul\":752:754   */\n    tag_43:\n        /* \"#utility.yul\":849:851   */\n      dup2\n        /* \"#utility.yul\":836:852   */\n      calldataload\n        /* \"#utility.yul\":871:873   */\n      dup2\n        /* \"#utility.yul\":867:869   */\n      dup2\n        /* \"#utility.yul\":864:874   */\n      gt\n        /* \"#utility.yul\":861:863   */\n      iszero\n      tag_45\n      jumpi\n        /* \"#utility.yul\":877:895   */\n      tag_45\n      tag_46\n      jump\t// in\n    tag_45:\n        /* \"#utility.yul\":926:928   */\n      0x40\n        /* \"#utility.yul\":920:929   */\n      mload\n        /* \"#utility.yul\":995:997   */\n      0x1f\n        /* \"#utility.yul\":976:989   */\n      dup3\n      add\n      not(0x1f)\n        /* \"#utility.yul\":972:999   */\n      and\n        /* \"#utility.yul\":960:1000   */\n      dup2\n      add\n        /* \"#utility.yul\":956:1005   */\n      dup6\n      add\n        /* \"#utility.yul\":1020:1038   */\n      dup4\n      dup2\n      gt\n        /* \"#utility.yul\":1040:1062   */\n      dup3\n      dup3\n      lt\n        /* \"#utility.yul\":1017:1063   */\n      or\n        /* \"#utility.yul\":1014:1016   */\n      iszero\n      tag_48\n      jumpi\n        /* \"#utility.yul\":1066:1084   */\n      tag_48\n      tag_46\n      jump\t// in\n    tag_48:\n        /* \"#utility.yul\":1102:1104   */\n      0x40\n        /* \"#utility.yul\":1095:1117   */\n      mstore\n        /* \"#utility.yul\":1126:1144   */\n      dup2\n      dup2\n      mstore\n        /* \"#utility.yul\":1163:1174   */\n      dup4\n      dup3\n      add\n        /* \"#utility.yul\":1159:1179   */\n      dup6\n      add\n        /* \"#utility.yul\":1156:1189   */\n      dup10\n      lt\n        /* \"#utility.yul\":1153:1155   */\n      iszero\n      tag_49\n      jumpi\n        /* \"#utility.yul\":1207:1213   */\n      dup6\n        /* \"#utility.yul\":1199:1205   */\n      dup7\n        /* \"#utility.yul\":1192:1214   */\n      revert\n        /* \"#utility.yul\":1153:1155   */\n    tag_49:\n        /* \"#utility.yul\":1268:1270   */\n      dup2\n        /* \"#utility.yul\":1263:1265   */\n      dup6\n        /* \"#utility.yul\":1259:1261   */\n      dup6\n        /* \"#utility.yul\":1255:1266   */\n      add\n        /* \"#utility.yul\":1250:1252   */\n      dup7\n        /* \"#utility.yul\":1242:1248   */\n      dup4\n        /* \"#utility.yul\":1238:1253   */\n      add\n        /* \"#utility.yul\":1225:1271   */\n      calldatacopy\n        /* \"#utility.yul\":1313:1319   */\n      dup6\n        /* \"#utility.yul\":1308:1310   */\n      dup6\n        /* \"#utility.yul\":1303:1305   */\n      dup4\n        /* \"#utility.yul\":1295:1301   */\n      dup4\n        /* \"#utility.yul\":1291:1306   */\n      add\n        /* \"#utility.yul\":1287:1311   */\n      add\n        /* \"#utility.yul\":1280:1320   */\n      mstore\n        /* \"#utility.yul\":1339:1345   */\n      dup1\n        /* \"#utility.yul\":1329:1345   */\n      swap6\n      pop\n      pop\n      pop\n      pop\n      pop\n      pop\n        /* \"#utility.yul\":422:1351   */\n      swap3\n      pop\n      swap3\n      swap1\n      pop\n      jump\t// out\n        /* \"#utility.yul\":1356:1834   */\n    tag_50:\n      0x00\n        /* \"#utility.yul\":1438:1443   */\n      dup2\n        /* \"#utility.yul\":1432:1444   */\n      mload\n        /* \"#utility.yul\":1465:1471   */\n      dup1\n        /* \"#utility.yul\":1460:1463   */\n      dup5\n        /* \"#utility.yul\":1453:1472   */\n      mstore\n        /* \"#utility.yul\":1490:1493   */\n      dup2\n        /* \"#utility.yul\":1502:1664   */\n    tag_52:\n        /* \"#utility.yul\":1516:1522   */\n      dup2\n        /* \"#utility.yul\":1513:1514   */\n      dup2\n        /* \"#utility.yul\":1510:1523   */\n      lt\n        /* \"#utility.yul\":1502:1664   */\n      iszero\n      tag_54\n      jumpi\n        /* \"#utility.yul\":1578:1582   */\n      0x20\n        /* \"#utility.yul\":1634:1647   */\n      dup2\n      dup6\n      add\n        /* \"#utility.yul\":1630:1652   */\n      dup2\n      add\n        /* \"#utility.yul\":1624:1653   */\n      mload\n        /* \"#utility.yul\":1606:1617   */\n      dup7\n      dup4\n      add\n        /* \"#utility.yul\":1602:1622   */\n      dup3\n      add\n        /* \"#utility.yul\":1595:1654   */\n      mstore\n        /* \"#utility.yul\":1531:1543   */\n      add\n        /* \"#utility.yul\":1502:1664   */\n      jump(tag_52)\n    tag_54:\n        /* \"#utility.yul\":1682:1688   */\n      dup2\n        /* \"#utility.yul\":1679:1680   */\n      dup2\n        /* \"#utility.yul\":1676:1689   */\n      gt\n        /* \"#utility.yul\":1673:1675   */\n      iszero\n      tag_55\n      jumpi\n        /* \"#utility.yul\":1748:1751   */\n      dup3\n        /* \"#utility.yul\":1741:1745   */\n      0x20\n        /* \"#utility.yul\":1732:1738   */\n      dup4\n        /* \"#utility.yul\":1727:1730   */\n      dup8\n        /* \"#utility.yul\":1723:1739   */\n      add\n        /* \"#utility.yul\":1719:1746   */\n      add\n        /* \"#utility.yul\":1712:1752   */\n      mstore\n        /* \"#utility.yul\":1673:1675   */\n    tag_55:\n      pop\n        /* \"#utility.yul\":1816:1818   */\n      0x1f\n        /* \"#utility.yul\":1795:1810   */\n      add\n      not(0x1f)\n        /* \"#utility.yul\":1791:1820   */\n      and\n        /* \"#utility.yul\":1782:1821   */\n      swap3\n      swap1\n      swap3\n      add\n        /* \"#utility.yul\":1823:1827   */\n      0x20\n        /* \"#utility.yul\":1778:1828   */\n      add\n      swap3\n        /* \"#utility.yul\":1408:1834   */\n      swap2\n      pop\n      pop\n      jump\t// out\n        /* \"#utility.yul\":1839:2302   */\n    tag_25:\n      0x00\n        /* \"#utility.yul\":2101:2102   */\n      0x01\n        /* \"#utility.yul\":2097:2098   */\n      dup1\n        /* \"#utility.yul\":2092:2095   */\n      0xa0\n        /* \"#utility.yul\":2088:2099   */\n      shl\n        /* \"#utility.yul\":2084:2103   */\n      sub\n        /* \"#utility.yul\":2076:2082   */\n      dup7\n        /* \"#utility.yul\":2072:2104   */\n      and\n        /* \"#utility.yul\":2061:2070   */\n      dup3\n        /* \"#utility.yul\":2054:2105   */\n      mstore\n        /* \"#utility.yul\":2141:2147   */\n      dup5\n        /* \"#utility.yul\":2136:2138   */\n      0x20\n        /* \"#utility.yul\":2125:2134   */\n      dup4\n        /* \"#utility.yul\":2121:2139   */\n      add\n        /* \"#utility.yul\":2114:2148   */\n      mstore\n        /* \"#utility.yul\":2184:2187   */\n      0x80\n        /* \"#utility.yul\":2179:2181   */\n      0x40\n        /* \"#utility.yul\":2168:2177   */\n      dup4\n        /* \"#utility.yul\":2164:2182   */\n      add\n        /* \"#utility.yul\":2157:2188   */\n      mstore\n        /* \"#utility.yul\":2205:2253   */\n      tag_57\n        /* \"#utility.yul\":2248:2251   */\n      0x80\n        /* \"#utility.yul\":2237:2246   */\n      dup4\n        /* \"#utility.yul\":2233:2252   */\n      add\n        /* \"#utility.yul\":2225:2231   */\n      dup6\n        /* \"#utility.yul\":2205:2253   */\n      tag_50\n      jump\t// in\n    tag_57:\n        /* \"#utility.yul\":2197:2253   */\n      swap1\n      pop\n        /* \"#utility.yul\":2289:2295   */\n      dup3\n        /* \"#utility.yul\":2284:2286   */\n      0x60\n        /* \"#utility.yul\":2273:2282   */\n      dup4\n        /* \"#utility.yul\":2269:2287   */\n      add\n        /* \"#utility.yul\":2262:2296   */\n      mstore\n        /* \"#utility.yul\":2044:2302   */\n      swap6\n      swap5\n      pop\n      pop\n      pop\n      pop\n      pop\n      jump\t// out\n        /* \"#utility.yul\":2307:2671   */\n    tag_10:\n      0x00\n        /* \"#utility.yul\":2512:2518   */\n      dup5\n        /* \"#utility.yul\":2501:2510   */\n      dup3\n        /* \"#utility.yul\":2494:2519   */\n      mstore\n        /* \"#utility.yul\":2555:2557   */\n      0x60\n        /* \"#utility.yul\":2550:2552   */\n      0x20\n        /* \"#utility.yul\":2539:2548   */\n      dup4\n        /* \"#utility.yul\":2535:2553   */\n      add\n        /* \"#utility.yul\":2528:2558   */\n      mstore\n        /* \"#utility.yul\":2575:2622   */\n      tag_59\n        /* \"#utility.yul\":2618:2620   */\n      0x60\n        /* \"#utility.yul\":2607:2616   */\n      dup4\n        /* \"#utility.yul\":2603:2621   */\n      add\n        /* \"#utility.yul\":2595:2601   */\n      dup6\n        /* \"#utility.yul\":2575:2622   */\n      tag_50\n      jump\t// in\n    tag_59:\n        /* \"#utility.yul\":2567:2622   */\n      swap1\n      pop\n        /* \"#utility.yul\":2658:2664   */\n      dup3\n        /* \"#utility.yul\":2653:2655   */\n      0x40\n        /* \"#utility.yul\":2642:2651   */\n      dup4\n        /* \"#utility.yul\":2638:2656   */\n      add\n        /* \"#utility.yul\":2631:2665   */\n      mstore\n        /* \"#utility.yul\":2484:2671   */\n      swap5\n      swap4\n      pop\n      pop\n      pop\n      pop\n      jump\t// out\n        /* \"#utility.yul\":2676:3056   */\n    tag_16:\n        /* \"#utility.yul\":2761:2762   */\n      0x02\n        /* \"#utility.yul\":2751:2763   */\n      dup2\n      div\n        /* \"#utility.yul\":2808:2809   */\n      0x01\n        /* \"#utility.yul\":2798:2810   */\n      dup3\n      and\n      dup1\n        /* \"#utility.yul\":2819:2821   */\n      tag_61\n      jumpi\n        /* \"#utility.yul\":2873:2877   */\n      0x7f\n        /* \"#utility.yul\":2865:2871   */\n      dup3\n        /* \"#utility.yul\":2861:2878   */\n      and\n        /* \"#utility.yul\":2851:2878   */\n      swap2\n      pop\n        /* \"#utility.yul\":2819:2821   */\n    tag_61:\n        /* \"#utility.yul\":2926:2928   */\n      0x20\n        /* \"#utility.yul\":2918:2924   */\n      dup3\n        /* \"#utility.yul\":2915:2929   */\n      lt\n        /* \"#utility.yul\":2895:2913   */\n      dup2\n        /* \"#utility.yul\":2892:2930   */\n      eq\n        /* \"#utility.yul\":2889:2891   */\n      iszero\n      tag_62\n      jumpi\n        /* \"#utility.yul\":2972:2982   */\n      0x4e487b71\n        /* \"#utility.yul\":2967:2970   */\n      0xe0\n        /* \"#utility.yul\":2963:2983   */\n      shl\n        /* \"#utility.yul\":2960:2961   */\n      0x00\n        /* \"#utility.yul\":2953:2984   */\n      mstore\n        /* \"#utility.yul\":3007:3011   */\n      0x22\n        /* \"#utility.yul\":3004:3005   */\n      0x04\n        /* \"#utility.yul\":2997:3012   */\n      mstore\n        /* \"#utility.yul\":3035:3039   */\n      0x24\n        /* \"#utility.yul\":3032:3033   */\n      0x00\n        /* \"#utility.yul\":3025:3040   */\n      revert\n        /* \"#utility.yul\":2889:2891   */\n    tag_62:\n      pop\n        /* \"#utility.yul\":2731:3056   */\n      swap2\n      swap1\n      pop\n      jump\t// out\n        /* \"#utility.yul\":3061:3188   */\n    tag_46:\n        /* \"#utility.yul\":3122:3132   */\n      0x4e487b71\n        /* \"#utility.yul\":3117:3120   */\n      0xe0\n        /* \"#utility.yul\":3113:3133   */\n      shl\n        /* \"#utility.yul\":3110:3111   */\n      0x00\n        /* \"#utility.yul\":3103:3134   */\n      mstore\n        /* \"#utility.yul\":3153:3157   */\n      0x41\n        /* \"#utility.yul\":3150:3151   */\n      0x04\n        /* \"#utility.yul\":3143:3158   */\n      mstore\n        /* \"#utility.yul\":3177:3181   */\n      0x24\n        /* \"#utility.yul\":3174:3175   */\n      0x00\n        /* \"#utility.yul\":3167:3182   */\n      revert\n\n    auxdata: 0xa2646970667358221220ecb6d0406381b14a197194f3da480bf9dbe8b0e9daaa70e3b87f37de7a2a4eb264736f6c63430008000033\n}\n",
				"bytecode": {
					"linkReferences": {},
					"object": "608060405234801561001057600080fd5b5060405161072a38038061072a83398101604081905261002f9161015a565b604080516060810182528381526020808201848152438385015233600090815280835293909320825181559251805192939261007192600185019201906100c1565b50604091820151600290910155517f8f6415d97d2a428fd228e0563a1ddd3c45befbf761008e41e475165abb71cdaf906100b2903390859085904390610209565b60405180910390a150506102db565b8280546100cd9061028a565b90600052602060002090601f0160209004810192826100ef5760008555610135565b82601f1061010857805160ff1916838001178555610135565b82800160010185558215610135579182015b8281111561013557825182559160200191906001019061011a565b50610141929150610145565b5090565b5b808211156101415760008155600101610146565b6000806040838503121561016c578182fd5b825160208401519092506001600160401b038082111561018a578283fd5b818501915085601f83011261019d578283fd5b8151818111156101af576101af6102c5565b604051601f8201601f1916810160200183811182821017156101d3576101d36102c5565b6040528181528382016020018810156101ea578485fd5b6101fb82602083016020870161025a565b809450505050509250929050565b600060018060a01b038616825284602083015260806040830152835180608084015261023c8160a085016020880161025a565b606083019390935250601f91909101601f19160160a0019392505050565b60005b8381101561027557818101518382015260200161025d565b83811115610284576000848401525b50505050565b60028104600182168061029e57607f821691505b602082108114156102bf57634e487b7160e01b600052602260045260246000fd5b50919050565b634e487b7160e01b600052604160045260246000fd5b610440806102ea6000396000f3fe608060405234801561001057600080fd5b50600436106100365760003560e01c8063c89109131461003b578063e517a0ff14610066575b600080fd5b61004e610049366004610232565b61007b565b60405161005d93929190610390565b60405180910390f35b610079610074366004610260565b610126565b005b6000602081905290815260409020805460018201805491929161009d906103b9565b80601f01602080910402602001604051908101604052809291908181526020018280546100c9906103b9565b80156101165780601f106100eb57610100808354040283529160200191610116565b820191906000526020600020905b8154815290600101906020018083116100f957829003601f168201915b5050505050908060020154905083565b336000908152602081815260409091208381558251909161014e916001840191850190610199565b5043600282018190556040517f8f6415d97d2a428fd228e0563a1ddd3c45befbf761008e41e475165abb71cdaf9161018c9133918791879190610358565b60405180910390a1505050565b8280546101a5906103b9565b90600052602060002090601f0160209004810192826101c7576000855561020d565b82601f106101e057805160ff191683800117855561020d565b8280016001018555821561020d579182015b8281111561020d5782518255916020019190600101906101f2565b5061021992915061021d565b5090565b5b80821115610219576000815560010161021e565b600060208284031215610243578081fd5b81356001600160a01b0381168114610259578182fd5b9392505050565b60008060408385031215610272578081fd5b8235915060208084013567ffffffffffffffff80821115610291578384fd5b818601915086601f8301126102a4578384fd5b8135818111156102b6576102b66103f4565b604051601f8201601f19168101850183811182821017156102d9576102d96103f4565b60405281815283820185018910156102ef578586fd5b81858501868301378585838301015280955050505050509250929050565b60008151808452815b8181101561033257602081850181015186830182015201610316565b818111156103435782602083870101525b50601f01601f19169290920160200192915050565b600060018060a01b03861682528460208301526080604083015261037f608083018561030d565b905082606083015295945050505050565b6000848252606060208301526103a9606083018561030d565b9050826040830152949350505050565b6002810460018216806103cd57607f821691505b602082108114156103ee57634e487b7160e01b600052602260045260246000fd5b50919050565b634e487b7160e01b600052604160045260246000fdfea2646970667358221220ecb6d0406381b14a197194f3da480bf9dbe8b0e9daaa70e3b87f37de7a2a4eb264736f6c63430008000033",
					"opcodes": "PUSH1 0x80 PUSH1 0x40 MSTORE CALLVALUE DUP1 ISZERO PUSH2 0x10 JUMPI PUSH1 0x0 DUP1 REVERT JUMPDEST POP PUSH1 0x40 MLOAD PUSH2 0x72A CODESIZE SUB DUP1 PUSH2 0x72A DUP4 CODECOPY DUP2 ADD PUSH1 0x40 DUP2 SWAP1 MSTORE PUSH2 0x2F SWAP2 PUSH2 0x15A JUMP JUMPDEST PUSH1 0x40 DUP1 MLOAD PUSH1 0x60 DUP2 ADD DUP3 MSTORE DUP4 DUP2 MSTORE PUSH1 0x20 DUP1 DUP3 ADD DUP5 DUP2 MSTORE NUMBER DUP4 DUP6 ADD MSTORE CALLER PUSH1 0x0 SWAP1 DUP2 MSTORE DUP1 DUP4 MSTORE SWAP4 SWAP1 SWAP4 KECCAK256 DUP3 MLOAD DUP2 SSTORE SWAP3 MLOAD DUP1 MLOAD SWAP3 SWAP4 SWAP3 PUSH2 0x71 SWAP3 PUSH1 0x1 DUP6 ADD SWAP3 ADD SWAP1 PUSH2 0xC1 JUMP JUMPDEST POP PUSH1 0x40 SWAP2 DUP3 ADD MLOAD PUSH1 0x2 SWAP1 SWAP2 ADD SSTORE MLOAD PUSH32 0x8F6415D97D2A428FD228E0563A1DDD3C45BEFBF761008E41E475165ABB71CDAF SWAP1 PUSH2 0xB2 SWAP1 CALLER SWAP1 DUP6 SWAP1 DUP6 SWAP1 NUMBER SWAP1 PUSH2 0x209 JUMP JUMPDEST PUSH1 0x40 MLOAD DUP1 SWAP2 SUB SWAP1 LOG1 POP POP PUSH2 0x2DB JUMP JUMPDEST DUP3 DUP1 SLOAD PUSH2 0xCD SWAP1 PUSH2 0x28A JUMP JUMPDEST SWAP1 PUSH1 0x0 MSTORE PUSH1 0x20 PUSH1 0x0 KECCAK256 SWAP1 PUSH1 0x1F ADD PUSH1 0x20 SWAP1 DIV DUP2 ADD SWAP3 DUP3 PUSH2 0xEF JUMPI PUSH1 0x0 DUP6 SSTORE PUSH2 0x135 JUMP JUMPDEST DUP3 PUSH1 0x1F LT PUSH2 0x108 JUMPI DUP1 MLOAD PUSH1 0xFF NOT AND DUP4 DUP1 ADD OR DUP6 SSTORE PUSH2 0x135 JUMP JUMPDEST DUP3 DUP1 ADD PUSH1 0x1 ADD DUP6 SSTORE DUP3 ISZERO PUSH2 0x135 JUMPI SWAP2 DUP3 ADD JUMPDEST DUP3 DUP2 GT ISZERO PUSH2 0x135 JUMPI DUP3 MLOAD DUP3 SSTORE SWAP2 PUSH1 0x20 ADD SWAP2 SWAP1 PUSH1 0x1 ADD SWAP1 PUSH2 0x11A JUMP JUMPDEST POP PUSH2 0x141 SWAP3 SWAP2 POP PUSH2 0x145 JUMP JUMPDEST POP SWAP1 JUMP JUMPDEST JUMPDEST DUP1 DUP3 GT ISZERO PUSH2 0x141 JUMPI PUSH1 0x0 DUP2 SSTORE PUSH1 0x1 ADD PUSH2 0x146 JUMP JUMPDEST PUSH1 0x0 DUP1 PUSH1 0x40 DUP4 DUP6 SUB SLT ISZERO PUSH2 0x16C JUMPI DUP2 DUP3 REVERT JUMPDEST DUP3 MLOAD PUSH1 0x20 DUP5 ADD MLOAD SWAP1 SWAP3 POP PUSH1 0x1 PUSH1 0x1 PUSH1 0x40 SHL SUB DUP1 DUP3 GT ISZERO PUSH2 0x18A JUMPI DUP3 DUP4 REVERT JUMPDEST DUP2 DUP6 ADD SWAP2 POP DUP6 PUSH1 0x1F DUP4 ADD SLT PUSH2 0x19D JUMPI DUP3 DUP4 REVERT JUMPDEST DUP2 MLOAD DUP2 DUP2 GT ISZERO PUSH2 0x1AF JUMPI PUSH2 0x1AF PUSH2 0x2C5 JUMP JUMPDEST PUSH1 0x40 MLOAD PUSH1 0x1F DUP3 ADD PUSH1 0x1F NOT AND DUP2 ADD PUSH1 0x20 ADD DUP4 DUP2 GT DUP3 DUP3 LT OR ISZERO PUSH2 0x1D3 JUMPI PUSH2 0x1D3 PUSH2 0x2C5 JUMP JUMPDEST PUSH1 0x40 MSTORE DUP2 DUP2 MSTORE DUP4 DUP3 ADD PUSH1 0x20 ADD DUP9 LT ISZERO PUSH2 0x1EA JUMPI DUP5 DUP6 REVERT JUMPDEST PUSH2 0x1FB DUP3 PUSH1 0x20 DUP4 ADD PUSH1 0x20 DUP8 ADD PUSH2 0x25A JUMP JUMPDEST DUP1 SWAP5 POP POP POP POP POP SWAP3 POP SWAP3 SWAP1 POP JUMP JUMPDEST PUSH1 0x0 PUSH1 0x1 DUP1 PUSH1 0xA0 SHL SUB DUP7 AND DUP3 MSTORE DUP5 PUSH1 0x20 DUP4 ADD MSTORE PUSH1 0x80 PUSH1 0x40 DUP4 ADD MSTORE DUP4 MLOAD DUP1 PUSH1 0x80 DUP5 ADD MSTORE PUSH2 0x23C DUP2 PUSH1 0xA0 DUP6 ADD PUSH1 0x20 DUP9 ADD PUSH2 0x25A JUMP JUMPDEST PUSH1 0x60 DUP4 ADD SWAP4 SWAP1 SWAP4 MSTORE POP PUSH1 0x1F SWAP2 SWAP1 SWAP2 ADD PUSH1 0x1F NOT AND ADD PUSH1 0xA0 ADD SWAP4 SWAP3 POP POP POP JUMP JUMPDEST PUSH1 0x0 JUMPDEST DUP4 DUP2 LT ISZERO PUSH2 0x275 JUMPI DUP2 DUP2 ADD MLOAD DUP4 DUP3 ADD MSTORE PUSH1 0x20 ADD PUSH2 0x25D JUMP JUMPDEST DUP4 DUP2 GT ISZERO PUSH2 0x284 JUMPI PUSH1 0x0 DUP5 DUP5 ADD MSTORE JUMPDEST POP POP POP POP JUMP JUMPDEST PUSH1 0x2 DUP2 DIV PUSH1 0x1 DUP3 AND DUP1 PUSH2 0x29E JUMPI PUSH1 0x7F DUP3 AND SWAP2 POP JUMPDEST PUSH1 0x20 DUP3 LT DUP2 EQ ISZERO PUSH2 0x2BF JUMPI PUSH4 0x4E487B71 PUSH1 0xE0 SHL PUSH1 0x0 MSTORE PUSH1 0x22 PUSH1 0x4 MSTORE PUSH1 0x24 PUSH1 0x0 REVERT JUMPDEST POP SWAP2 SWAP1 POP JUMP JUMPDEST PUSH4 0x4E487B71 PUSH1 0xE0 SHL PUSH1 0x0 MSTORE PUSH1 0x41 PUSH1 0x4 MSTORE PUSH1 0x24 PUSH1 0x0 REVERT JUMPDEST PUSH2 0x440 DUP1 PUSH2 0x2EA PUSH1 0x0 CODECOPY PUSH1 0x0 RETURN INVALID PUSH1 0x80 PUSH1 0x40 MSTORE CALLVALUE DUP1 ISZERO PUSH2 0x10 JUMPI PUSH1 0x0 DUP1 REVERT JUMPDEST POP PUSH1 0x4 CALLDATASIZE LT PUSH2 0x36 JUMPI PUSH1 0x0 CALLDATALOAD PUSH1 0xE0 SHR DUP1 PUSH4 0xC8910913 EQ PUSH2 0x3B JUMPI DUP1 PUSH4 0xE517A0FF EQ PUSH2 0x66 JUMPI JUMPDEST PUSH1 0x0 DUP1 REVERT JUMPDEST PUSH2 0x4E PUSH2 0x49 CALLDATASIZE PUSH1 0x4 PUSH2 0x232 JUMP JUMPDEST PUSH2 0x7B JUMP JUMPDEST PUSH1 0x40 MLOAD PUSH2 0x5D SWAP4 SWAP3 SWAP2 SWAP1 PUSH2 0x390 JUMP JUMPDEST PUSH1 0x40 MLOAD DUP1 SWAP2 SUB SWAP1 RETURN JUMPDEST PUSH2 0x79 PUSH2 0x74 CALLDATASIZE PUSH1 0x4 PUSH2 0x260 JUMP JUMPDEST PUSH2 0x126 JUMP JUMPDEST STOP JUMPDEST PUSH1 0x0 PUSH1 0x20 DUP2 SWAP1 MSTORE SWAP1 DUP2 MSTORE PUSH1 0x40 SWAP1 KECCAK256 DUP1 SLOAD PUSH1 0x1 DUP3 ADD DUP1 SLOAD SWAP2 SWAP3 SWAP2 PUSH2 0x9D SWAP1 PUSH2 0x3B9 JUMP JUMPDEST DUP1 PUSH1 0x1F ADD PUSH1 0x20 DUP1 SWAP2 DIV MUL PUSH1 0x20 ADD PUSH1 0x40 MLOAD SWAP1 DUP2 ADD PUSH1 0x40 MSTORE DUP1 SWAP3 SWAP2 SWAP1 DUP2 DUP2 MSTORE PUSH1 0x20 ADD DUP3 DUP1 SLOAD PUSH2 0xC9 SWAP1 PUSH2 0x3B9 JUMP JUMPDEST DUP1 ISZERO PUSH2 0x116 JUMPI DUP1 PUSH1 0x1F LT PUSH2 0xEB JUMPI PUSH2 0x100 DUP1 DUP4 SLOAD DIV MUL DUP4 MSTORE SWAP2 PUSH1 0x20 ADD SWAP2 PUSH2 0x116 JUMP JUMPDEST DUP3 ADD SWAP2 SWAP1 PUSH1 0x0 MSTORE PUSH1 0x20 PUSH1 0x0 KECCAK256 SWAP1 JUMPDEST DUP2 SLOAD DUP2 MSTORE SWAP1 PUSH1 0x1 ADD SWAP1 PUSH1 0x20 ADD DUP1 DUP4 GT PUSH2 0xF9 JUMPI DUP3 SWAP1 SUB PUSH1 0x1F AND DUP3 ADD SWAP2 JUMPDEST POP POP POP POP POP SWAP1 DUP1 PUSH1 0x2 ADD SLOAD SWAP1 POP DUP4 JUMP JUMPDEST CALLER PUSH1 0x0 SWAP1 DUP2 MSTORE PUSH1 0x20 DUP2 DUP2 MSTORE PUSH1 0x40 SWAP1 SWAP2 KECCAK256 DUP4 DUP2 SSTORE DUP3 MLOAD SWAP1 SWAP2 PUSH2 0x14E SWAP2 PUSH1 0x1 DUP5 ADD SWAP2 DUP6 ADD SWAP1 PUSH2 0x199 JUMP JUMPDEST POP NUMBER PUSH1 0x2 DUP3 ADD DUP2 SWAP1 SSTORE PUSH1 0x40 MLOAD PUSH32 0x8F6415D97D2A428FD228E0563A1DDD3C45BEFBF761008E41E475165ABB71CDAF SWAP2 PUSH2 0x18C SWAP2 CALLER SWAP2 DUP8 SWAP2 DUP8 SWAP2 SWAP1 PUSH2 0x358 JUMP JUMPDEST PUSH1 0x40 MLOAD DUP1 SWAP2 SUB SWAP1 LOG1 POP POP POP JUMP JUMPDEST DUP3 DUP1 SLOAD PUSH2 0x1A5 SWAP1 PUSH2 0x3B9 JUMP JUMPDEST SWAP1 PUSH1 0x0 MSTORE PUSH1 0x20 PUSH1 0x0 KECCAK256 SWAP1 PUSH1 0x1F ADD PUSH1 0x20 SWAP1 DIV DUP2 ADD SWAP3 DUP3 PUSH2 0x1C7 JUMPI PUSH1 0x0 DUP6 SSTORE PUSH2 0x20D JUMP JUMPDEST DUP3 PUSH1 0x1F LT PUSH2 0x1E0 JUMPI DUP1 MLOAD PUSH1 0xFF NOT AND DUP4 DUP1 ADD OR DUP6 SSTORE PUSH2 0x20D JUMP JUMPDEST DUP3 DUP1 ADD PUSH1 0x1 ADD DUP6 SSTORE DUP3 ISZERO PUSH2 0x20D JUMPI SWAP2 DUP3 ADD JUMPDEST DUP3 DUP2 GT ISZERO PUSH2 0x20D JUMPI DUP3 MLOAD DUP3 SSTORE SWAP2 PUSH1 0x20 ADD SWAP2 SWAP1 PUSH1 0x1 ADD SWAP1 PUSH2 0x1F2 JUMP JUMPDEST POP PUSH2 0x219 SWAP3 SWAP2 POP PUSH2 0x21D JUMP JUMPDEST POP SWAP1 JUMP JUMPDEST JUMPDEST DUP1 DUP3 GT ISZERO PUSH2 0x219 JUMPI PUSH1 0x0 DUP2 SSTORE PUSH1 0x1 ADD PUSH2 0x21E JUMP JUMPDEST PUSH1 0x0 PUSH1 0x20 DUP3 DUP5 SUB SLT ISZERO PUSH2 0x243 JUMPI DUP1 DUP2 REVERT JUMPDEST DUP2 CALLDATALOAD PUSH1 0x1 PUSH1 0x1 PUSH1 0xA0 SHL SUB DUP2 AND DUP2 EQ PUSH2 0x259 JUMPI DUP2 DUP3 REVERT JUMPDEST SWAP4 SWAP3 POP POP POP JUMP JUMPDEST PUSH1 0x0 DUP1 PUSH1 0x40 DUP4 DUP6 SUB SLT ISZERO PUSH2 0x272 JUMPI DUP1 DUP2 REVERT JUMPDEST DUP3 CALLDATALOAD SWAP2 POP PUSH1 0x20 DUP1 DUP5 ADD CALLDATALOAD PUSH8 0xFFFFFFFFFFFFFFFF DUP1 DUP3 GT ISZERO PUSH2 0x291 JUMPI DUP4 DUP5 REVERT JUMPDEST DUP2 DUP7 ADD SWAP2 POP DUP7 PUSH1 0x1F DUP4 ADD SLT PUSH2 0x2A4 JUMPI DUP4 DUP5 REVERT JUMPDEST DUP2 CALLDATALOAD DUP2 DUP2 GT ISZERO PUSH2 0x2B6 JUMPI PUSH2 0x2B6 PUSH2 0x3F4 JUMP JUMPDEST PUSH1 0x40 MLOAD PUSH1 0x1F DUP3 ADD PUSH1 0x1F NOT AND DUP2 ADD DUP6 ADD DUP4 DUP2 GT DUP3 DUP3 LT OR ISZERO PUSH2 0x2D9 JUMPI PUSH2 0x2D9 PUSH2 0x3F4 JUMP JUMPDEST PUSH1 0x40 MSTORE DUP2 DUP2 MSTORE DUP4 DUP3 ADD DUP6 ADD DUP10 LT ISZERO PUSH2 0x2EF JUMPI DUP6 DUP7 REVERT JUMPDEST DUP2 DUP6 DUP6 ADD DUP7 DUP4 ADD CALLDATACOPY DUP6 DUP6 DUP4 DUP4 ADD ADD MSTORE DUP1 SWAP6 POP POP POP POP POP POP SWAP3 POP SWAP3 SWAP1 POP JUMP JUMPDEST PUSH1 0x0 DUP2 MLOAD DUP1 DUP5 MSTORE DUP2 JUMPDEST DUP2 DUP2 LT ISZERO PUSH2 0x332 JUMPI PUSH1 0x20 DUP2 DUP6 ADD DUP2 ADD MLOAD DUP7 DUP4 ADD DUP3 ADD MSTORE ADD PUSH2 0x316 JUMP JUMPDEST DUP2 DUP2 GT ISZERO PUSH2 0x343 JUMPI DUP3 PUSH1 0x20 DUP4 DUP8 ADD ADD MSTORE JUMPDEST POP PUSH1 0x1F ADD PUSH1 0x1F NOT AND SWAP3 SWAP1 SWAP3 ADD PUSH1 0x20 ADD SWAP3 SWAP2 POP POP JUMP JUMPDEST PUSH1 0x0 PUSH1 0x1 DUP1 PUSH1 0xA0 SHL SUB DUP7 AND DUP3 MSTORE DUP5 PUSH1 0x20 DUP4 ADD MSTORE PUSH1 0x80 PUSH1 0x40 DUP4 ADD MSTORE PUSH2 0x37F PUSH1 0x80 DUP4 ADD DUP6 PUSH2 0x30D JUMP JUMPDEST SWAP1 POP DUP3 PUSH1 0x60 DUP4 ADD MSTORE SWAP6 SWAP5 POP POP POP POP POP JUMP JUMPDEST PUSH1 0x0 DUP5 DUP3 MSTORE PUSH1 0x60 PUSH1 0x20 DUP4 ADD MSTORE PUSH2 0x3A9 PUSH1 0x60 DUP4 ADD DUP6 PUSH2 0x30D JUMP JUMPDEST SWAP1 POP DUP3 PUSH1 0x40 DUP4 ADD MSTORE SWAP5 SWAP4 POP POP POP POP JUMP JUMPDEST PUSH1 0x2 DUP2 DIV PUSH1 0x1 DUP3 AND DUP1 PUSH2 0x3CD JUMPI PUSH1 0x7F DUP3 AND SWAP2 POP JUMPDEST PUSH1 0x20 DUP3 LT DUP2 EQ ISZERO PUSH2 0x3EE JUMPI PUSH4 0x4E487B71 PUSH1 0xE0 SHL PUSH1 0x0 MSTORE PUSH1 0x22 PUSH1 0x4 MSTORE PUSH1 0x24 PUSH1 0x0 REVERT JUMPDEST POP SWAP2 SWAP1 POP JUMP JUMPDEST PUSH4 0x4E487B71 PUSH1 0xE0 SHL PUSH1 0x0 MSTORE PUSH1 0x41 PUSH1 0x4 MSTORE PUSH1 0x24 PUSH1 0x0 REVERT INVALID LOG2 PUSH5 0x6970667358 0x22 SLT KECCAK256 0xEC 0xB6 0xD0 BLOCKHASH PUSH4 0x81B14A19 PUSH18 0x94F3DA480BF9DBE8B0E9DAAA70E3B87F37DE PUSH27 0x2A4EB264736F6C6343000800003300000000000000000000000000 "
				},
				"gasEstimates": {
					"creation": {
						"codeDepositCost": "217600",
						"executionCost": "infinite",
						"totalCost": "infinite"
					},
					"external": {
						"setNumber(uint256,string)": "infinite",
						"userData(address)": "infinite"
					}
				},
				"methodIdentifiers": {
					"setNumber(uint256,string)": "e517a0ff",
					"userData(address)": "c8910913"
				}
			},
			"storageLayout": {
				"storage": [
					{
						"astId": 13,
						"contract": "Contract1.sol:NumberStorage",
						"label": "userData",
						"offset": 0,
						"slot": "0",
						"type": "t_mapping(t_address,t_struct(UserData)8_storage)"
					}
				],
				"types": {
					"t_address": {
						"encoding": "inplace",
						"label": "address",
						"numberOfBytes": "20"
					},
					"t_mapping(t_address,t_struct(UserData)8_storage)": {
						"encoding": "mapping",
						"key": "t_address",
						"label": "mapping(address => struct NumberStorage.UserData)",
						"numberOfBytes": "32",
						"value": "t_struct(UserData)8_storage"
					},
					"t_string_storage": {
						"encoding": "bytes",
						"label": "string",
						"numberOfBytes": "32"
					},
					"t_struct(UserData)8_storage": {
						"encoding": "inplace",
						"label": "struct NumberStorage.UserData",
						"members": [
							{
								"astId": 3,
								"contract": "Contract1.sol:NumberStorage",
								"label": "number",
								"offset": 0,
								"slot": "0",
								"type": "t_uint256"
							},
							{
								"astId": 5,
								"contract": "Contract1.sol:NumberStorage",
								"label": "comment",
								"offset": 0,
								"slot": "1",
								"type": "t_string_storage"
							},
							{
								"astId": 7,
								"contract": "Contract1.sol:NumberStorage",
								"label": "blockNumber",
								"offset": 0,
								"slot": "2",
								"type": "t_uint256"
							}
						],
						"numberOfBytes": "96"
					},
					"t_uint256": {
						"encoding": "inplace",
						"label": "uint256",
						"numberOfBytes": "32"
					}
				}
			},
			"userdoc": {
				"kind": "user",
				"methods": {},
				"version": 1
			}
		}
	}
}