{
	"Contract1.sol": {
		"NumberStorage": {
			"abi": [
				{
					"inputs": [
						{
							"internalType": "uint256",
							"name": "_initialNumber",
							"type": "uint256"
						},
						{
							"internalType": "string",
							"name": "_initialComment",
							"type": "string"
						}
					],
					"stateMutability": "nonpayable",
					"type": "constructor"
				},
				{
					"anonymous": false,
					"inputs": [
						{
							"indexed": false,
							"internalType": "address",
							"name": "user",
							"type": "address"
						},
						{
							"indexed": false,
							"internalType": "uint256",
							"name": "newNumber",
							"type": "uint256"
						},
						{
							"indexed": false,
							"internalType": "string",
							"name": "comment",
							"type": "string"
						},
						{
							"indexed": false,
							"internalType": "uint256",
							"name": "blockNumber",
							"type": "uint256"
						}
					],
					"name": "NumberUpdated",
					"type": "event"
				},
				{
					"inputs": [
						{
							"internalType": "uint256",
							"name": "_newNumber",
							"type": "uint256"
						},
						{
							"internalType": "string",
							"name": "_newComment",
							"type": "string"
						}
					],
					"name": "setNumber",
					"outputs": [],
					"stateMutability": "nonpayable",
					"type": "function"
				},
				{
					"inputs": [
						{
							"internalType": "address",
							"name": "",
							"type": "address"
						}
					],
					"name": "userData",
					"outputs": [
						{
							"internalType": "uint256",
							"name": "number",
							"type": "uint256"
						},
						{
							"internalType": "string",
							"name": "comment",
							"type": "string"
						},
						{
							"internalType": "uint256",
							"name": "blockNumber",
							"type": "uint256"
						}
					],
					"stateMutability": "view",
					"type": "function"
				}
			],
			"devdoc": {
				"kind": "dev",
				"methods": {},
				"version": 1
			},
			"evm": {
				"assembly": "    /* \"Contract1.sol\":60:1460  contract NumberStorage {... */\n  mstore(0x40, 0x80)\n    /* \"Contract1.sol\":589:923  constructor(uint256 _initialNumber, string memory _initialComment) {... */\n  callvalue\n  dup1\n  iszero\n  tag_1\n  jumpi\n  0x00\n  dup1\n  revert\ntag_1:\n  pop\n  mload(0x40)\n  sub(codesize, bytecodeSize)\n  dup1\n  bytecodeSize\n  dup4\n  codecopy\n  dup2\n  add\n  0x40\n  dup2\n  swap1\n  mstore\n  tag_2\n  swap2\n  tag_3\n  jump\t// in\ntag_2:\n    /* \"Contract1.sol\":690:827  UserData({... */\n  0x40\n  dup1\n  mload\n  0x60\n  dup2\n  add\n  dup3\n  mstore\n  dup4\n  dup2\n  mstore\n  0x20\n  dup1\n  dup3\n  add\n  dup5\n  dup2\n  mstore\n    /* \"Contract1.sol\":803:815  block.number */\n  number\n    /* \"Contract1.sol\":690:827  UserData({... */\n  dup4\n  dup6\n  add\n  mstore\n    /* \"Contract1.sol\":676:686  msg.sender */\n  caller\n  0x00\n    /* \"Contract1.sol\":667:687  userData[msg.sender] */\n  swap1\n  dup2\n  mstore\n  swap2\n  dup3\n  swap1\n  mstore\n  swap3\n  swap1\n  keccak256\n    /* \"Contract1.sol\":667:827  userData[msg.sender] = UserData({... */\n  dup2\n  mload\n  dup2\n  sstore\n  swap2\n  mload\n    /* \"Contract1.sol\":690:827  UserData({... */\n  swap1\n  swap2\n    /* \"Contract1.sol\":667:687  userData[msg.sender] */\n  swap1\n    /* \"Contract1.sol\":667:827  userData[msg.sender] = UserData({... */\n  0x01\n  dup3\n  add\n  swap1\n  tag_6\n  swap1\n  dup3\n  tag_7\n  jump\t// in\ntag_6:\n  pop\n  0x40\n  swap2\n  dup3\n  add\n  mload\n  0x02\n  swap1\n  swap2\n  add\n  sstore\n    /* \"Contract1.sol\":843:915  NumberUpdated(msg.sender, _initialNumber, _initialComment, block.number) */\n  mload\n  0x8f6415d97d2a428fd228e0563a1ddd3c45befbf761008e41e475165abb71cdaf\n  swap1\n  tag_8\n  swap1\n    /* \"Contract1.sol\":857:867  msg.sender */\n  caller\n  swap1\n    /* \"Contract1.sol\":869:883  _initialNumber */\n  dup6\n  swap1\n    /* \"Contract1.sol\":885:900  _initialComment */\n  dup6\n  swap1\n    /* \"Contract1.sol\":902:914  block.number */\n  number\n  swap1\n    /* \"Contract1.sol\":843:915  NumberUpdated(msg.sender, _initialNumber, _initialComment, block.number) */\n  tag_9\n  jump\t// in\ntag_8:\n  mload(0x40)\n  dup1\n  swap2\n  sub\n  swap1\n  log1\n    /* \"Contract1.sol\":589:923  constructor(uint256 _initialNumber, string memory _initialComment) {... */\n  pop\n  pop\n    /* \"Contract1.sol\":60:1460  contract NumberStorage {... */\n  jump(tag_16)\n    /* \"#utility.yul\":14:141   */\ntag_11:\n    /* \"#utility.yul\":75:85   */\n  0x4e487b71\n    /* \"#utility.yul\":70:73   */\n  0xe0\n    /* \"#utility.yul\":66:86   */\n  shl\n    /* \"#utility.yul\":63:64   */\n  0x00\n    /* \"#utility.yul\":56:87   */\n  mstore\n    /* \"#utility.yul\":106:110   */\n  0x41\n    /* \"#utility.yul\":103:104   */\n  0x04\n    /* \"#utility.yul\":96:111   */\n  mstore\n    /* \"#utility.yul\":130:134   */\n  0x24\n    /* \"#utility.yul\":127:128   */\n  0x00\n    /* \"#utility.yul\":120:135   */\n  revert\n    /* \"#utility.yul\":146:1142   */\ntag_3:\n    /* \"#utility.yul\":235:241   */\n  0x00\n    /* \"#utility.yul\":243:249   */\n  dup1\n    /* \"#utility.yul\":296:298   */\n  0x40\n    /* \"#utility.yul\":284:293   */\n  dup4\n    /* \"#utility.yul\":275:282   */\n  dup6\n    /* \"#utility.yul\":271:294   */\n  sub\n    /* \"#utility.yul\":267:299   */\n  slt\n    /* \"#utility.yul\":264:316   */\n  iszero\n  tag_19\n  jumpi\n    /* \"#utility.yul\":312:313   */\n  0x00\n    /* \"#utility.yul\":309:310   */\n  dup1\n    /* \"#utility.yul\":302:314   */\n  revert\n    /* \"#utility.yul\":264:316   */\ntag_19:\n    /* \"#utility.yul\":335:351   */\n  dup3\n  mload\n    /* \"#utility.yul\":395:397   */\n  0x20\n    /* \"#utility.yul\":380:398   */\n  dup5\n  add\n    /* \"#utility.yul\":374:399   */\n  mload\n    /* \"#utility.yul\":335:351   */\n  swap1\n  swap3\n  pop\n  sub(shl(0x40, 0x01), 0x01)\n    /* \"#utility.yul\":411:441   */\n  dup2\n  gt\n    /* \"#utility.yul\":408:458   */\n  iszero\n  tag_20\n  jumpi\n    /* \"#utility.yul\":454:455   */\n  0x00\n    /* \"#utility.yul\":451:452   */\n  dup1\n    /* \"#utility.yul\":444:456   */\n  revert\n    /* \"#utility.yul\":408:458   */\ntag_20:\n    /* \"#utility.yul\":477:499   */\n  dup4\n  add\n    /* \"#utility.yul\":530:534   */\n  0x1f\n    /* \"#utility.yul\":522:535   */\n  dup2\n  add\n    /* \"#utility.yul\":518:545   */\n  dup6\n  sgt\n    /* \"#utility.yul\":508:563   */\n  tag_21\n  jumpi\n    /* \"#utility.yul\":559:560   */\n  0x00\n    /* \"#utility.yul\":556:557   */\n  dup1\n    /* \"#utility.yul\":549:561   */\n  revert\n    /* \"#utility.yul\":508:563   */\ntag_21:\n    /* \"#utility.yul\":586:595   */\n  dup1\n  mload\n  sub(shl(0x40, 0x01), 0x01)\n    /* \"#utility.yul\":607:637   */\n  dup2\n  gt\n    /* \"#utility.yul\":604:660   */\n  iszero\n  tag_23\n  jumpi\n    /* \"#utility.yul\":640:658   */\n  tag_23\n  tag_11\n  jump\t// in\ntag_23:\n    /* \"#utility.yul\":689:691   */\n  0x40\n    /* \"#utility.yul\":683:692   */\n  mload\n    /* \"#utility.yul\":781:783   */\n  0x1f\n    /* \"#utility.yul\":743:760   */\n  dup3\n  add\n  not(0x1f)\n    /* \"#utility.yul\":739:770   */\n  swap1\n  dup2\n  and\n    /* \"#utility.yul\":772:774   */\n  0x3f\n    /* \"#utility.yul\":735:775   */\n  add\n    /* \"#utility.yul\":731:785   */\n  and\n    /* \"#utility.yul\":719:786   */\n  dup2\n  add\n  sub(shl(0x40, 0x01), 0x01)\n    /* \"#utility.yul\":801:835   */\n  dup2\n  gt\n    /* \"#utility.yul\":837:859   */\n  dup3\n  dup3\n  lt\n    /* \"#utility.yul\":798:860   */\n  or\n    /* \"#utility.yul\":795:883   */\n  iszero\n  tag_25\n  jumpi\n    /* \"#utility.yul\":863:881   */\n  tag_25\n  tag_11\n  jump\t// in\ntag_25:\n    /* \"#utility.yul\":899:901   */\n  0x40\n    /* \"#utility.yul\":892:914   */\n  mstore\n    /* \"#utility.yul\":923:945   */\n  dup2\n  dup2\n  mstore\n    /* \"#utility.yul\":964:979   */\n  dup3\n  dup3\n  add\n    /* \"#utility.yul\":981:983   */\n  0x20\n    /* \"#utility.yul\":960:984   */\n  add\n    /* \"#utility.yul\":957:994   */\n  dup8\n  lt\n    /* \"#utility.yul\":954:1011   */\n  iszero\n  tag_26\n  jumpi\n    /* \"#utility.yul\":1007:1008   */\n  0x00\n    /* \"#utility.yul\":1004:1005   */\n  dup1\n    /* \"#utility.yul\":997:1009   */\n  revert\n    /* \"#utility.yul\":954:1011   */\ntag_26:\n    /* \"#utility.yul\":1056:1062   */\n  dup2\n    /* \"#utility.yul\":1051:1053   */\n  0x20\n    /* \"#utility.yul\":1047:1049   */\n  dup5\n    /* \"#utility.yul\":1043:1054   */\n  add\n    /* \"#utility.yul\":1038:1040   */\n  0x20\n    /* \"#utility.yul\":1030:1036   */\n  dup4\n    /* \"#utility.yul\":1026:1041   */\n  add\n    /* \"#utility.yul\":1020:1063   */\n  mcopy\n    /* \"#utility.yul\":1109:1110   */\n  0x00\n    /* \"#utility.yul\":1104:1106   */\n  0x20\n    /* \"#utility.yul\":1095:1101   */\n  dup4\n    /* \"#utility.yul\":1087:1093   */\n  dup4\n    /* \"#utility.yul\":1083:1102   */\n  add\n    /* \"#utility.yul\":1079:1107   */\n  add\n    /* \"#utility.yul\":1072:1111   */\n  mstore\n    /* \"#utility.yul\":1130:1136   */\n  dup1\n    /* \"#utility.yul\":1120:1136   */\n  swap4\n  pop\n  pop\n  pop\n  pop\n    /* \"#utility.yul\":146:1142   */\n  swap3\n  pop\n  swap3\n  swap1\n  pop\n  jump\t// out\n    /* \"#utility.yul\":1147:1527   */\ntag_12:\n    /* \"#utility.yul\":1226:1227   */\n  0x01\n    /* \"#utility.yul\":1222:1234   */\n  dup2\n  dup2\n  shr\n  swap1\n    /* \"#utility.yul\":1269:1281   */\n  dup3\n  and\n  dup1\n    /* \"#utility.yul\":1290:1351   */\n  tag_28\n  jumpi\n    /* \"#utility.yul\":1344:1348   */\n  0x7f\n    /* \"#utility.yul\":1336:1342   */\n  dup3\n    /* \"#utility.yul\":1332:1349   */\n  and\n    /* \"#utility.yul\":1322:1349   */\n  swap2\n  pop\n    /* \"#utility.yul\":1290:1351   */\ntag_28:\n    /* \"#utility.yul\":1397:1399   */\n  0x20\n    /* \"#utility.yul\":1389:1395   */\n  dup3\n    /* \"#utility.yul\":1386:1400   */\n  lt\n    /* \"#utility.yul\":1366:1384   */\n  dup2\n    /* \"#utility.yul\":1363:1401   */\n  sub\n    /* \"#utility.yul\":1360:1521   */\n  tag_29\n  jumpi\n    /* \"#utility.yul\":1443:1453   */\n  0x4e487b71\n    /* \"#utility.yul\":1438:1441   */\n  0xe0\n    /* \"#utility.yul\":1434:1454   */\n  shl\n    /* \"#utility.yul\":1431:1432   */\n  0x00\n    /* \"#utility.yul\":1424:1455   */\n  mstore\n    /* \"#utility.yul\":1478:1482   */\n  0x22\n    /* \"#utility.yul\":1475:1476   */\n  0x04\n    /* \"#utility.yul\":1468:1483   */\n  mstore\n    /* \"#utility.yul\":1506:1510   */\n  0x24\n    /* \"#utility.yul\":1503:1504   */\n  0x00\n    /* \"#utility.yul\":1496:1511   */\n  revert\n    /* \"#utility.yul\":1360:1521   */\ntag_29:\n  pop\n    /* \"#utility.yul\":1147:1527   */\n  swap2\n  swap1\n  pop\n  jump\t// out\n    /* \"#utility.yul\":1658:2176   */\ntag_14:\n    /* \"#utility.yul\":1760:1762   */\n  0x1f\n    /* \"#utility.yul\":1755:1758   */\n  dup3\n    /* \"#utility.yul\":1752:1763   */\n  gt\n    /* \"#utility.yul\":1749:2170   */\n  iszero\n  tag_32\n  jumpi\n    /* \"#utility.yul\":1796:1801   */\n  dup1\n    /* \"#utility.yul\":1793:1794   */\n  0x00\n    /* \"#utility.yul\":1786:1802   */\n  mstore\n    /* \"#utility.yul\":1840:1844   */\n  0x20\n    /* \"#utility.yul\":1837:1838   */\n  0x00\n    /* \"#utility.yul\":1827:1845   */\n  keccak256\n    /* \"#utility.yul\":1910:1912   */\n  0x1f\n    /* \"#utility.yul\":1898:1908   */\n  dup5\n    /* \"#utility.yul\":1894:1913   */\n  add\n    /* \"#utility.yul\":1891:1892   */\n  0x05\n    /* \"#utility.yul\":1887:1914   */\n  shr\n    /* \"#utility.yul\":1881:1885   */\n  dup2\n    /* \"#utility.yul\":1877:1915   */\n  add\n    /* \"#utility.yul\":1946:1950   */\n  0x20\n    /* \"#utility.yul\":1934:1944   */\n  dup6\n    /* \"#utility.yul\":1931:1951   */\n  lt\n    /* \"#utility.yul\":1928:1975   */\n  iszero\n  tag_33\n  jumpi\n  pop\n    /* \"#utility.yul\":1969:1973   */\n  dup1\n    /* \"#utility.yul\":1928:1975   */\ntag_33:\n    /* \"#utility.yul\":2024:2026   */\n  0x1f\n    /* \"#utility.yul\":2019:2022   */\n  dup5\n    /* \"#utility.yul\":2015:2027   */\n  add\n    /* \"#utility.yul\":2012:2013   */\n  0x05\n    /* \"#utility.yul\":2008:2028   */\n  shr\n    /* \"#utility.yul\":2002:2006   */\n  dup3\n    /* \"#utility.yul\":1998:2029   */\n  add\n    /* \"#utility.yul\":1988:2029   */\n  swap2\n  pop\n    /* \"#utility.yul\":2079:2160   */\ntag_34:\n    /* \"#utility.yul\":2097:2099   */\n  dup2\n    /* \"#utility.yul\":2090:2095   */\n  dup2\n    /* \"#utility.yul\":2087:2100   */\n  lt\n    /* \"#utility.yul\":2079:2160   */\n  iszero\n  tag_36\n  jumpi\n    /* \"#utility.yul\":2156:2157   */\n  0x00\n    /* \"#utility.yul\":2142:2158   */\n  dup2\n  sstore\n    /* \"#utility.yul\":2123:2124   */\n  0x01\n    /* \"#utility.yul\":2112:2125   */\n  add\n    /* \"#utility.yul\":2079:2160   */\n  jump(tag_34)\ntag_36:\n    /* \"#utility.yul\":2083:2086   */\n  pop\n  pop\n    /* \"#utility.yul\":1749:2170   */\ntag_32:\n    /* \"#utility.yul\":1658:2176   */\n  pop\n  pop\n  pop\n  jump\t// out\n    /* \"#utility.yul\":2352:3651   */\ntag_7:\n    /* \"#utility.yul\":2472:2482   */\n  dup2\n  mload\n  sub(shl(0x40, 0x01), 0x01)\n    /* \"#utility.yul\":2494:2524   */\n  dup2\n  gt\n    /* \"#utility.yul\":2491:2547   */\n  iszero\n  tag_40\n  jumpi\n    /* \"#utility.yul\":2527:2545   */\n  tag_40\n  tag_11\n  jump\t// in\ntag_40:\n    /* \"#utility.yul\":2556:2653   */\n  tag_41\n    /* \"#utility.yul\":2646:2652   */\n  dup2\n    /* \"#utility.yul\":2606:2644   */\n  tag_42\n    /* \"#utility.yul\":2638:2642   */\n  dup5\n    /* \"#utility.yul\":2632:2643   */\n  sload\n    /* \"#utility.yul\":2606:2644   */\n  tag_12\n  jump\t// in\ntag_42:\n    /* \"#utility.yul\":2600:2604   */\n  dup5\n    /* \"#utility.yul\":2556:2653   */\n  tag_14\n  jump\t// in\ntag_41:\n    /* \"#utility.yul\":2702:2706   */\n  0x20\n    /* \"#utility.yul\":2733:2735   */\n  0x1f\n    /* \"#utility.yul\":2722:2736   */\n  dup3\n  gt\n    /* \"#utility.yul\":2750:2751   */\n  0x01\n    /* \"#utility.yul\":2745:3394   */\n  dup2\n  eq\n  tag_44\n  jumpi\n    /* \"#utility.yul\":3438:3439   */\n  0x00\n    /* \"#utility.yul\":3455:3461   */\n  dup4\n    /* \"#utility.yul\":3452:3541   */\n  iszero\n  tag_45\n  jumpi\n  pop\n    /* \"#utility.yul\":3507:3526   */\n  dup5\n  dup3\n  add\n    /* \"#utility.yul\":3501:3527   */\n  mload\n    /* \"#utility.yul\":3452:3541   */\ntag_45:\n  not(0x00)\n    /* \"#utility.yul\":2309:2310   */\n  0x03\n    /* \"#utility.yul\":2305:2316   */\n  dup6\n  swap1\n  shl\n    /* \"#utility.yul\":2301:2325   */\n  shr\n    /* \"#utility.yul\":2297:2326   */\n  not\n    /* \"#utility.yul\":2287:2327   */\n  and\n    /* \"#utility.yul\":2333:2334   */\n  0x01\n    /* \"#utility.yul\":2329:2340   */\n  dup5\n  swap1\n  shl\n    /* \"#utility.yul\":2284:2341   */\n  or\n    /* \"#utility.yul\":3554:3635   */\n  dup5\n  sstore\n    /* \"#utility.yul\":2715:3645   */\n  jump(tag_36)\n    /* \"#utility.yul\":2745:3394   */\ntag_44:\n    /* \"#utility.yul\":1605:1606   */\n  0x00\n    /* \"#utility.yul\":1598:1612   */\n  dup5\n  dup2\n  mstore\n    /* \"#utility.yul\":1642:1646   */\n  0x20\n    /* \"#utility.yul\":1629:1647   */\n  dup2\n  keccak256\n  not(0x1f)\n    /* \"#utility.yul\":2781:2801   */\n  dup6\n  and\n  swap2\n    /* \"#utility.yul\":2899:3121   */\ntag_48:\n    /* \"#utility.yul\":2913:2920   */\n  dup3\n    /* \"#utility.yul\":2910:2911   */\n  dup2\n    /* \"#utility.yul\":2907:2921   */\n  lt\n    /* \"#utility.yul\":2899:3121   */\n  iszero\n  tag_50\n  jumpi\n    /* \"#utility.yul\":2995:3014   */\n  dup8\n  dup6\n  add\n    /* \"#utility.yul\":2989:3015   */\n  mload\n    /* \"#utility.yul\":2974:3016   */\n  dup3\n  sstore\n    /* \"#utility.yul\":3102:3106   */\n  0x20\n    /* \"#utility.yul\":3087:3107   */\n  swap5\n  dup6\n  add\n  swap5\n    /* \"#utility.yul\":3055:3056   */\n  0x01\n    /* \"#utility.yul\":3043:3057   */\n  swap1\n  swap3\n  add\n  swap2\n    /* \"#utility.yul\":2929:2941   */\n  add\n    /* \"#utility.yul\":2899:3121   */\n  jump(tag_48)\ntag_50:\n    /* \"#utility.yul\":2903:2906   */\n  pop\n    /* \"#utility.yul\":3149:3155   */\n  dup5\n    /* \"#utility.yul\":3140:3147   */\n  dup3\n    /* \"#utility.yul\":3137:3156   */\n  lt\n    /* \"#utility.yul\":3134:3335   */\n  iszero\n  tag_51\n  jumpi\n    /* \"#utility.yul\":3210:3229   */\n  dup7\n  dup5\n  add\n    /* \"#utility.yul\":3204:3230   */\n  mload\n  not(0x00)\n    /* \"#utility.yul\":3293:3294   */\n  0x03\n    /* \"#utility.yul\":3289:3303   */\n  dup8\n  swap1\n  shl\n    /* \"#utility.yul\":3305:3308   */\n  0xf8\n    /* \"#utility.yul\":3285:3309   */\n  and\n    /* \"#utility.yul\":3281:3318   */\n  shr\n    /* \"#utility.yul\":3277:3319   */\n  not\n    /* \"#utility.yul\":3262:3320   */\n  and\n    /* \"#utility.yul\":3247:3321   */\n  dup2\n  sstore\n    /* \"#utility.yul\":3134:3335   */\ntag_51:\n  pop\n  pop\n  pop\n  pop\n    /* \"#utility.yul\":3381:3382   */\n  0x01\n    /* \"#utility.yul\":3365:3379   */\n  swap1\n  dup2\n  shl\n    /* \"#utility.yul\":3361:3383   */\n  add\n    /* \"#utility.yul\":3348:3384   */\n  swap1\n  sstore\n  pop\n    /* \"#utility.yul\":2352:3651   */\n  jump\t// out\n    /* \"#utility.yul\":3656:4318   */\ntag_9:\n    /* \"#utility.yul\":3918:3919   */\n  0x01\n    /* \"#utility.yul\":3914:3915   */\n  dup1\n    /* \"#utility.yul\":3909:3912   */\n  0xa0\n    /* \"#utility.yul\":3905:3916   */\n  shl\n    /* \"#utility.yul\":3901:3920   */\n  sub\n    /* \"#utility.yul\":3893:3899   */\n  dup6\n    /* \"#utility.yul\":3889:3921   */\n  and\n    /* \"#utility.yul\":3878:3887   */\n  dup2\n    /* \"#utility.yul\":3871:3922   */\n  mstore\n    /* \"#utility.yul\":3958:3964   */\n  dup4\n    /* \"#utility.yul\":3953:3955   */\n  0x20\n    /* \"#utility.yul\":3942:3951   */\n  dup3\n    /* \"#utility.yul\":3938:3956   */\n  add\n    /* \"#utility.yul\":3931:3965   */\n  mstore\n    /* \"#utility.yul\":4001:4004   */\n  0x80\n    /* \"#utility.yul\":3996:3998   */\n  0x40\n    /* \"#utility.yul\":3985:3994   */\n  dup3\n    /* \"#utility.yul\":3981:3999   */\n  add\n    /* \"#utility.yul\":3974:4005   */\n  mstore\n    /* \"#utility.yul\":3852:3856   */\n  0x00\n    /* \"#utility.yul\":4034:4040   */\n  dup4\n    /* \"#utility.yul\":4028:4041   */\n  mload\n    /* \"#utility.yul\":4078:4084   */\n  dup1\n    /* \"#utility.yul\":4072:4075   */\n  0x80\n    /* \"#utility.yul\":4061:4070   */\n  dup5\n    /* \"#utility.yul\":4057:4076   */\n  add\n    /* \"#utility.yul\":4050:4085   */\n  mstore\n    /* \"#utility.yul\":4138:4144   */\n  dup1\n    /* \"#utility.yul\":4133:4135   */\n  0x20\n    /* \"#utility.yul\":4125:4131   */\n  dup7\n    /* \"#utility.yul\":4121:4136   */\n  add\n    /* \"#utility.yul\":4115:4118   */\n  0xa0\n    /* \"#utility.yul\":4104:4113   */\n  dup6\n    /* \"#utility.yul\":4100:4119   */\n  add\n    /* \"#utility.yul\":4094:4145   */\n  mcopy\n    /* \"#utility.yul\":4195:4196   */\n  0x00\n    /* \"#utility.yul\":4189:4192   */\n  0xa0\n    /* \"#utility.yul\":4180:4186   */\n  dup3\n    /* \"#utility.yul\":4169:4178   */\n  dup6\n    /* \"#utility.yul\":4165:4187   */\n  add\n    /* \"#utility.yul\":4161:4193   */\n  add\n    /* \"#utility.yul\":4154:4197   */\n  mstore\n    /* \"#utility.yul\":4265:4268   */\n  0xa0\n    /* \"#utility.yul\":4258:4260   */\n  0x1f\n    /* \"#utility.yul\":4254:4261   */\n  not\n    /* \"#utility.yul\":4249:4251   */\n  0x1f\n    /* \"#utility.yul\":4241:4247   */\n  dup4\n    /* \"#utility.yul\":4237:4252   */\n  add\n    /* \"#utility.yul\":4233:4262   */\n  and\n    /* \"#utility.yul\":4222:4231   */\n  dup5\n    /* \"#utility.yul\":4218:4263   */\n  add\n    /* \"#utility.yul\":4214:4269   */\n  add\n    /* \"#utility.yul\":4206:4269   */\n  swap2\n  pop\n  pop\n    /* \"#utility.yul\":4305:4311   */\n  dup3\n    /* \"#utility.yul\":4300:4302   */\n  0x60\n    /* \"#utility.yul\":4289:4298   */\n  dup4\n    /* \"#utility.yul\":4285:4303   */\n  add\n    /* \"#utility.yul\":4278:4312   */\n  mstore\n    /* \"#utility.yul\":3656:4318   */\n  swap6\n  swap5\n  pop\n  pop\n  pop\n  pop\n  pop\n  jump\t// out\ntag_16:\n    /* \"Contract1.sol\":60:1460  contract NumberStorage {... */\n  dataSize(sub_0)\n  dup1\n  dataOffset(sub_0)\n  0x00\n  codecopy\n  0x00\n  return\nstop\n\nsub_0: assembly {\n        /* \"Contract1.sol\":60:1460  contract NumberStorage {... */\n      mstore(0x40, 0x80)\n      callvalue\n      dup1\n      iszero\n      tag_1\n      jumpi\n      0x00\n      dup1\n      revert\n    tag_1:\n      pop\n      jumpi(tag_2, lt(calldatasize, 0x04))\n      shr(0xe0, calldataload(0x00))\n      dup1\n      0xc8910913\n      eq\n      tag_3\n      jumpi\n      dup1\n      0xe517a0ff\n      eq\n      tag_4\n      jumpi\n    tag_2:\n      0x00\n      dup1\n      revert\n        /* \"Contract1.sol\":315:359  mapping(address => UserData) public userData */\n    tag_3:\n      tag_5\n      tag_6\n      calldatasize\n      0x04\n      tag_7\n      jump\t// in\n    tag_6:\n      tag_8\n      jump\t// in\n    tag_5:\n      mload(0x40)\n      tag_9\n      swap4\n      swap3\n      swap2\n      swap1\n      tag_10\n      jump\t// in\n    tag_9:\n      mload(0x40)\n      dup1\n      swap2\n      sub\n      swap1\n      return\n        /* \"Contract1.sol\":1003:1457  function setNumber(uint256 _newNumber, string memory _newComment) public {... */\n    tag_4:\n      tag_11\n      tag_12\n      calldatasize\n      0x04\n      tag_13\n      jump\t// in\n    tag_12:\n      tag_14\n      jump\t// in\n    tag_11:\n      stop\n        /* \"Contract1.sol\":315:359  mapping(address => UserData) public userData */\n    tag_8:\n      0x00\n      0x20\n      dup2\n      swap1\n      mstore\n      swap1\n      dup2\n      mstore\n      0x40\n      swap1\n      keccak256\n      dup1\n      sload\n      0x01\n      dup3\n      add\n      dup1\n      sload\n      swap2\n      swap3\n      swap2\n      tag_15\n      swap1\n      tag_16\n      jump\t// in\n    tag_15:\n      dup1\n      0x1f\n      add\n      0x20\n      dup1\n      swap2\n      div\n      mul\n      0x20\n      add\n      mload(0x40)\n      swap1\n      dup2\n      add\n      0x40\n      mstore\n      dup1\n      swap3\n      swap2\n      swap1\n      dup2\n      dup2\n      mstore\n      0x20\n      add\n      dup3\n      dup1\n      sload\n      tag_17\n      swap1\n      tag_16\n      jump\t// in\n    tag_17:\n      dup1\n      iszero\n      tag_18\n      jumpi\n      dup1\n      0x1f\n      lt\n      tag_19\n      jumpi\n      0x0100\n      dup1\n      dup4\n      sload\n      div\n      mul\n      dup4\n      mstore\n      swap2\n      0x20\n      add\n      swap2\n      jump(tag_18)\n    tag_19:\n      dup3\n      add\n      swap2\n      swap1\n      0x00\n      mstore\n      keccak256(0x00, 0x20)\n      swap1\n    tag_20:\n      dup2\n      sload\n      dup2\n      mstore\n      swap1\n      0x01\n      add\n      swap1\n      0x20\n      add\n      dup1\n      dup4\n      gt\n      tag_20\n      jumpi\n      dup3\n      swap1\n      sub\n      0x1f\n      and\n      dup3\n      add\n      swap2\n    tag_18:\n      pop\n      pop\n      pop\n      pop\n      pop\n      swap1\n      dup1\n      0x02\n      add\n      sload\n      swap1\n      pop\n      dup4\n      jump\t// out\n        /* \"Contract1.sol\":1003:1457  function setNumber(uint256 _newNumber, string memory _newComment) public {... */\n    tag_14:\n        /* \"Contract1.sol\":1156:1166  msg.sender */\n      caller\n        /* \"Contract1.sol\":1123:1144  UserData storage data */\n      0x00\n        /* \"Contract1.sol\":1147:1167  userData[msg.sender] */\n      swap1\n      dup2\n      mstore\n      0x20\n      dup2\n      swap1\n      mstore\n      0x40\n      swap1\n      keccak256\n        /* \"Contract1.sol\":1215:1239  data.number = _newNumber */\n      dup3\n      dup2\n      sstore\n        /* \"Contract1.sol\":1250:1262  data.comment */\n      0x01\n      dup2\n      add\n        /* \"Contract1.sol\":1250:1276  data.comment = _newComment */\n      tag_22\n        /* \"Contract1.sol\":1265:1276  _newComment */\n      dup4\n        /* \"Contract1.sol\":1250:1262  data.comment */\n      dup3\n        /* \"Contract1.sol\":1250:1276  data.comment = _newComment */\n      tag_23\n      jump\t// in\n    tag_22:\n      pop\n        /* \"Contract1.sol\":1306:1318  block.number */\n      number\n        /* \"Contract1.sol\":1287:1303  data.blockNumber */\n      0x02\n      dup3\n      add\n        /* \"Contract1.sol\":1287:1318  data.blockNumber = block.number */\n      dup2\n      swap1\n      sstore\n        /* \"Contract1.sol\":1385:1449  NumberUpdated(msg.sender, _newNumber, _newComment, block.number) */\n      mload(0x40)\n      0x8f6415d97d2a428fd228e0563a1ddd3c45befbf761008e41e475165abb71cdaf\n      swap2\n      tag_24\n      swap2\n        /* \"Contract1.sol\":1399:1409  msg.sender */\n      caller\n      swap2\n        /* \"Contract1.sol\":1411:1421  _newNumber */\n      dup8\n      swap2\n        /* \"Contract1.sol\":1423:1434  _newComment */\n      dup8\n      swap2\n        /* \"Contract1.sol\":1306:1318  block.number */\n      swap1\n        /* \"Contract1.sol\":1385:1449  NumberUpdated(msg.sender, _newNumber, _newComment, block.number) */\n      tag_25\n      jump\t// in\n    tag_24:\n      mload(0x40)\n      dup1\n      swap2\n      sub\n      swap1\n      log1\n        /* \"Contract1.sol\":1076:1457  {... */\n      pop\n        /* \"Contract1.sol\":1003:1457  function setNumber(uint256 _newNumber, string memory _newComment) public {... */\n      pop\n      pop\n      jump\t// out\n        /* \"#utility.yul\":14:300   */\n    tag_7:\n        /* \"#utility.yul\":73:79   */\n      0x00\n        /* \"#utility.yul\":126:128   */\n      0x20\n        /* \"#utility.yul\":114:123   */\n      dup3\n        /* \"#utility.yul\":105:112   */\n      dup5\n        /* \"#utility.yul\":101:124   */\n      sub\n        /* \"#utility.yul\":97:129   */\n      slt\n        /* \"#utility.yul\":94:146   */\n      iszero\n      tag_33\n      jumpi\n        /* \"#utility.yul\":142:143   */\n      0x00\n        /* \"#utility.yul\":139:140   */\n      dup1\n        /* \"#utility.yul\":132:144   */\n      revert\n        /* \"#utility.yul\":94:146   */\n    tag_33:\n        /* \"#utility.yul\":168:191   */\n      dup2\n      calldataload\n      sub(shl(0xa0, 0x01), 0x01)\n        /* \"#utility.yul\":220:251   */\n      dup2\n      and\n        /* \"#utility.yul\":210:252   */\n      dup2\n      eq\n        /* \"#utility.yul\":200:270   */\n      tag_34\n      jumpi\n        /* \"#utility.yul\":266:267   */\n      0x00\n        /* \"#utility.yul\":263:264   */\n      dup1\n        /* \"#utility.yul\":256:268   */\n      revert\n        /* \"#utility.yul\":200:270   */\n    tag_34:\n        /* \"#utility.yul\":289:294   */\n      swap4\n        /* \"#utility.yul\":14:300   */\n      swap3\n      pop\n      pop\n      pop\n      jump\t// out\n        /* \"#utility.yul\":305:594   */\n    tag_26:\n        /* \"#utility.yul\":347:350   */\n      0x00\n        /* \"#utility.yul\":385:390   */\n      dup2\n        /* \"#utility.yul\":379:391   */\n      mload\n        /* \"#utility.yul\":412:418   */\n      dup1\n        /* \"#utility.yul\":407:410   */\n      dup5\n        /* \"#utility.yul\":400:419   */\n      mstore\n        /* \"#utility.yul\":468:474   */\n      dup1\n        /* \"#utility.yul\":461:465   */\n      0x20\n        /* \"#utility.yul\":454:459   */\n      dup5\n        /* \"#utility.yul\":450:466   */\n      add\n        /* \"#utility.yul\":443:447   */\n      0x20\n        /* \"#utility.yul\":438:441   */\n      dup7\n        /* \"#utility.yul\":434:448   */\n      add\n        /* \"#utility.yul\":428:475   */\n      mcopy\n        /* \"#utility.yul\":520:521   */\n      0x00\n        /* \"#utility.yul\":513:517   */\n      0x20\n        /* \"#utility.yul\":504:510   */\n      dup3\n        /* \"#utility.yul\":499:502   */\n      dup7\n        /* \"#utility.yul\":495:511   */\n      add\n        /* \"#utility.yul\":491:518   */\n      add\n        /* \"#utility.yul\":484:522   */\n      mstore\n        /* \"#utility.yul\":583:587   */\n      0x20\n        /* \"#utility.yul\":576:578   */\n      0x1f\n        /* \"#utility.yul\":572:579   */\n      not\n        /* \"#utility.yul\":567:569   */\n      0x1f\n        /* \"#utility.yul\":559:565   */\n      dup4\n        /* \"#utility.yul\":555:570   */\n      add\n        /* \"#utility.yul\":551:580   */\n      and\n        /* \"#utility.yul\":546:549   */\n      dup6\n        /* \"#utility.yul\":542:581   */\n      add\n        /* \"#utility.yul\":538:588   */\n      add\n        /* \"#utility.yul\":531:588   */\n      swap2\n      pop\n      pop\n        /* \"#utility.yul\":305:594   */\n      swap3\n      swap2\n      pop\n      pop\n      jump\t// out\n        /* \"#utility.yul\":599:961   */\n    tag_10:\n        /* \"#utility.yul\":804:810   */\n      dup4\n        /* \"#utility.yul\":793:802   */\n      dup2\n        /* \"#utility.yul\":786:811   */\n      mstore\n        /* \"#utility.yul\":847:849   */\n      0x60\n        /* \"#utility.yul\":842:844   */\n      0x20\n        /* \"#utility.yul\":831:840   */\n      dup3\n        /* \"#utility.yul\":827:845   */\n      add\n        /* \"#utility.yul\":820:850   */\n      mstore\n        /* \"#utility.yul\":767:771   */\n      0x00\n        /* \"#utility.yul\":867:912   */\n      tag_37\n        /* \"#utility.yul\":908:910   */\n      0x60\n        /* \"#utility.yul\":897:906   */\n      dup4\n        /* \"#utility.yul\":893:911   */\n      add\n        /* \"#utility.yul\":885:891   */\n      dup6\n        /* \"#utility.yul\":867:912   */\n      tag_26\n      jump\t// in\n    tag_37:\n        /* \"#utility.yul\":859:912   */\n      swap1\n      pop\n        /* \"#utility.yul\":948:954   */\n      dup3\n        /* \"#utility.yul\":943:945   */\n      0x40\n        /* \"#utility.yul\":932:941   */\n      dup4\n        /* \"#utility.yul\":928:946   */\n      add\n        /* \"#utility.yul\":921:955   */\n      mstore\n        /* \"#utility.yul\":599:961   */\n      swap5\n      swap4\n      pop\n      pop\n      pop\n      pop\n      jump\t// out\n        /* \"#utility.yul\":966:1093   */\n    tag_27:\n        /* \"#utility.yul\":1027:1037   */\n      0x4e487b71\n        /* \"#utility.yul\":1022:1025   */\n      0xe0\n        /* \"#utility.yul\":1018:1038   */\n      shl\n        /* \"#utility.yul\":1015:1016   */\n      0x00\n        /* \"#utility.yul\":1008:1039   */\n      mstore\n        /* \"#utility.yul\":1058:1062   */\n      0x41\n        /* \"#utility.yul\":1055:1056   */\n      0x04\n        /* \"#utility.yul\":1048:1063   */\n      mstore\n        /* \"#utility.yul\":1082:1086   */\n      0x24\n        /* \"#utility.yul\":1079:1080   */\n      0x00\n        /* \"#utility.yul\":1072:1087   */\n      revert\n        /* \"#utility.yul\":1098:2111   */\n    tag_13:\n        /* \"#utility.yul\":1176:1182   */\n      0x00\n        /* \"#utility.yul\":1184:1190   */\n      dup1\n        /* \"#utility.yul\":1237:1239   */\n      0x40\n        /* \"#utility.yul\":1225:1234   */\n      dup4\n        /* \"#utility.yul\":1216:1223   */\n      dup6\n        /* \"#utility.yul\":1212:1235   */\n      sub\n        /* \"#utility.yul\":1208:1240   */\n      slt\n        /* \"#utility.yul\":1205:1257   */\n      iszero\n      tag_40\n      jumpi\n        /* \"#utility.yul\":1253:1254   */\n      0x00\n        /* \"#utility.yul\":1250:1251   */\n      dup1\n        /* \"#utility.yul\":1243:1255   */\n      revert\n        /* \"#utility.yul\":1205:1257   */\n    tag_40:\n        /* \"#utility.yul\":1289:1298   */\n      dup3\n        /* \"#utility.yul\":1276:1299   */\n      calldataload\n        /* \"#utility.yul\":1266:1299   */\n      swap2\n      pop\n        /* \"#utility.yul\":1350:1352   */\n      0x20\n        /* \"#utility.yul\":1339:1348   */\n      dup4\n        /* \"#utility.yul\":1335:1353   */\n      add\n        /* \"#utility.yul\":1322:1354   */\n      calldataload\n        /* \"#utility.yul\":1377:1395   */\n      0xffffffffffffffff\n        /* \"#utility.yul\":1369:1375   */\n      dup2\n        /* \"#utility.yul\":1366:1396   */\n      gt\n        /* \"#utility.yul\":1363:1413   */\n      iszero\n      tag_41\n      jumpi\n        /* \"#utility.yul\":1409:1410   */\n      0x00\n        /* \"#utility.yul\":1406:1407   */\n      dup1\n        /* \"#utility.yul\":1399:1411   */\n      revert\n        /* \"#utility.yul\":1363:1413   */\n    tag_41:\n        /* \"#utility.yul\":1432:1454   */\n      dup4\n      add\n        /* \"#utility.yul\":1485:1489   */\n      0x1f\n        /* \"#utility.yul\":1477:1490   */\n      dup2\n      add\n        /* \"#utility.yul\":1473:1500   */\n      dup6\n      sgt\n        /* \"#utility.yul\":1463:1518   */\n      tag_42\n      jumpi\n        /* \"#utility.yul\":1514:1515   */\n      0x00\n        /* \"#utility.yul\":1511:1512   */\n      dup1\n        /* \"#utility.yul\":1504:1516   */\n      revert\n        /* \"#utility.yul\":1463:1518   */\n    tag_42:\n        /* \"#utility.yul\":1554:1556   */\n      dup1\n        /* \"#utility.yul\":1541:1557   */\n      calldataload\n        /* \"#utility.yul\":1580:1598   */\n      0xffffffffffffffff\n        /* \"#utility.yul\":1572:1578   */\n      dup2\n        /* \"#utility.yul\":1569:1599   */\n      gt\n        /* \"#utility.yul\":1566:1622   */\n      iszero\n      tag_44\n      jumpi\n        /* \"#utility.yul\":1602:1620   */\n      tag_44\n      tag_27\n      jump\t// in\n    tag_44:\n        /* \"#utility.yul\":1651:1653   */\n      0x40\n        /* \"#utility.yul\":1645:1654   */\n      mload\n        /* \"#utility.yul\":1743:1745   */\n      0x1f\n        /* \"#utility.yul\":1705:1722   */\n      dup3\n      add\n      not(0x1f)\n        /* \"#utility.yul\":1701:1732   */\n      swap1\n      dup2\n      and\n        /* \"#utility.yul\":1734:1736   */\n      0x3f\n        /* \"#utility.yul\":1697:1737   */\n      add\n        /* \"#utility.yul\":1693:1747   */\n      and\n        /* \"#utility.yul\":1681:1748   */\n      dup2\n      add\n        /* \"#utility.yul\":1778:1796   */\n      0xffffffffffffffff\n        /* \"#utility.yul\":1763:1797   */\n      dup2\n      gt\n        /* \"#utility.yul\":1799:1821   */\n      dup3\n      dup3\n      lt\n        /* \"#utility.yul\":1760:1822   */\n      or\n        /* \"#utility.yul\":1757:1845   */\n      iszero\n      tag_46\n      jumpi\n        /* \"#utility.yul\":1825:1843   */\n      tag_46\n      tag_27\n      jump\t// in\n    tag_46:\n        /* \"#utility.yul\":1861:1863   */\n      0x40\n        /* \"#utility.yul\":1854:1876   */\n      mstore\n        /* \"#utility.yul\":1885:1907   */\n      dup2\n      dup2\n      mstore\n        /* \"#utility.yul\":1926:1941   */\n      dup3\n      dup3\n      add\n        /* \"#utility.yul\":1943:1945   */\n      0x20\n        /* \"#utility.yul\":1922:1946   */\n      add\n        /* \"#utility.yul\":1919:1956   */\n      dup8\n      lt\n        /* \"#utility.yul\":1916:1973   */\n      iszero\n      tag_47\n      jumpi\n        /* \"#utility.yul\":1969:1970   */\n      0x00\n        /* \"#utility.yul\":1966:1967   */\n      dup1\n        /* \"#utility.yul\":1959:1971   */\n      revert\n        /* \"#utility.yul\":1916:1973   */\n    tag_47:\n        /* \"#utility.yul\":2025:2031   */\n      dup2\n        /* \"#utility.yul\":2020:2022   */\n      0x20\n        /* \"#utility.yul\":2016:2018   */\n      dup5\n        /* \"#utility.yul\":2012:2023   */\n      add\n        /* \"#utility.yul\":2007:2009   */\n      0x20\n        /* \"#utility.yul\":1999:2005   */\n      dup4\n        /* \"#utility.yul\":1995:2010   */\n      add\n        /* \"#utility.yul\":1982:2032   */\n      calldatacopy\n        /* \"#utility.yul\":2078:2079   */\n      0x00\n        /* \"#utility.yul\":2073:2075   */\n      0x20\n        /* \"#utility.yul\":2064:2070   */\n      dup4\n        /* \"#utility.yul\":2056:2062   */\n      dup4\n        /* \"#utility.yul\":2052:2071   */\n      add\n        /* \"#utility.yul\":2048:2076   */\n      add\n        /* \"#utility.yul\":2041:2080   */\n      mstore\n        /* \"#utility.yul\":2099:2105   */\n      dup1\n        /* \"#utility.yul\":2089:2105   */\n      swap4\n      pop\n      pop\n      pop\n      pop\n        /* \"#utility.yul\":1098:2111   */\n      swap3\n      pop\n      swap3\n      swap1\n      pop\n      jump\t// out\n        /* \"#utility.yul\":2116:2496   */\n    tag_16:\n        /* \"#utility.yul\":2195:2196   */\n      0x01\n        /* \"#utility.yul\":2191:2203   */\n      dup2\n      dup2\n      shr\n      swap1\n        /* \"#utility.yul\":2238:2250   */\n      dup3\n      and\n      dup1\n        /* \"#utility.yul\":2259:2320   */\n      tag_49\n      jumpi\n        /* \"#utility.yul\":2313:2317   */\n      0x7f\n        /* \"#utility.yul\":2305:2311   */\n      dup3\n        /* \"#utility.yul\":2301:2318   */\n      and\n        /* \"#utility.yul\":2291:2318   */\n      swap2\n      pop\n        /* \"#utility.yul\":2259:2320   */\n    tag_49:\n        /* \"#utility.yul\":2366:2368   */\n      0x20\n        /* \"#utility.yul\":2358:2364   */\n      dup3\n        /* \"#utility.yul\":2355:2369   */\n      lt\n        /* \"#utility.yul\":2335:2353   */\n      dup2\n        /* \"#utility.yul\":2332:2370   */\n      sub\n        /* \"#utility.yul\":2329:2490   */\n      tag_50\n      jumpi\n        /* \"#utility.yul\":2412:2422   */\n      0x4e487b71\n        /* \"#utility.yul\":2407:2410   */\n      0xe0\n        /* \"#utility.yul\":2403:2423   */\n      shl\n        /* \"#utility.yul\":2400:2401   */\n      0x00\n        /* \"#utility.yul\":2393:2424   */\n      mstore\n        /* \"#utility.yul\":2447:2451   */\n      0x22\n        /* \"#utility.yul\":2444:2445   */\n      0x04\n        /* \"#utility.yul\":2437:2452   */\n      mstore\n        /* \"#utility.yul\":2475:2479   */\n      0x24\n        /* \"#utility.yul\":2472:2473   */\n      0x00\n        /* \"#utility.yul\":2465:2480   */\n      revert\n        /* \"#utility.yul\":2329:2490   */\n    tag_50:\n      pop\n        /* \"#utility.yul\":2116:2496   */\n      swap2\n      swap1\n      pop\n      jump\t// out\n        /* \"#utility.yul\":2627:3145   */\n    tag_29:\n        /* \"#utility.yul\":2729:2731   */\n      0x1f\n        /* \"#utility.yul\":2724:2727   */\n      dup3\n        /* \"#utility.yul\":2721:2732   */\n      gt\n        /* \"#utility.yul\":2718:3139   */\n      iszero\n      tag_53\n      jumpi\n        /* \"#utility.yul\":2765:2770   */\n      dup1\n        /* \"#utility.yul\":2762:2763   */\n      0x00\n        /* \"#utility.yul\":2755:2771   */\n      mstore\n        /* \"#utility.yul\":2809:2813   */\n      0x20\n        /* \"#utility.yul\":2806:2807   */\n      0x00\n        /* \"#utility.yul\":2796:2814   */\n      keccak256\n        /* \"#utility.yul\":2879:2881   */\n      0x1f\n        /* \"#utility.yul\":2867:2877   */\n      dup5\n        /* \"#utility.yul\":2863:2882   */\n      add\n        /* \"#utility.yul\":2860:2861   */\n      0x05\n        /* \"#utility.yul\":2856:2883   */\n      shr\n        /* \"#utility.yul\":2850:2854   */\n      dup2\n        /* \"#utility.yul\":2846:2884   */\n      add\n        /* \"#utility.yul\":2915:2919   */\n      0x20\n        /* \"#utility.yul\":2903:2913   */\n      dup6\n        /* \"#utility.yul\":2900:2920   */\n      lt\n        /* \"#utility.yul\":2897:2944   */\n      iszero\n      tag_54\n      jumpi\n      pop\n        /* \"#utility.yul\":2938:2942   */\n      dup1\n        /* \"#utility.yul\":2897:2944   */\n    tag_54:\n        /* \"#utility.yul\":2993:2995   */\n      0x1f\n        /* \"#utility.yul\":2988:2991   */\n      dup5\n        /* \"#utility.yul\":2984:2996   */\n      add\n        /* \"#utility.yul\":2981:2982   */\n      0x05\n        /* \"#utility.yul\":2977:2997   */\n      shr\n        /* \"#utility.yul\":2971:2975   */\n      dup3\n        /* \"#utility.yul\":2967:2998   */\n      add\n        /* \"#utility.yul\":2957:2998   */\n      swap2\n      pop\n        /* \"#utility.yul\":3048:3129   */\n    tag_55:\n        /* \"#utility.yul\":3066:3068   */\n      dup2\n        /* \"#utility.yul\":3059:3064   */\n      dup2\n        /* \"#utility.yul\":3056:3069   */\n      lt\n        /* \"#utility.yul\":3048:3129   */\n      iszero\n      tag_57\n      jumpi\n        /* \"#utility.yul\":3125:3126   */\n      0x00\n        /* \"#utility.yul\":3111:3127   */\n      dup2\n      sstore\n        /* \"#utility.yul\":3092:3093   */\n      0x01\n        /* \"#utility.yul\":3081:3094   */\n      add\n        /* \"#utility.yul\":3048:3129   */\n      jump(tag_55)\n    tag_57:\n        /* \"#utility.yul\":3052:3055   */\n      pop\n      pop\n        /* \"#utility.yul\":2718:3139   */\n    tag_53:\n        /* \"#utility.yul\":2627:3145   */\n      pop\n      pop\n      pop\n      jump\t// out\n        /* \"#utility.yul\":3321:4620   */\n    tag_23:\n        /* \"#utility.yul\":3447:3450   */\n      dup2\n        /* \"#utility.yul\":3441:3451   */\n      mload\n        /* \"#utility.yul\":3474:3492   */\n      0xffffffffffffffff\n        /* \"#utility.yul\":3466:3472   */\n      dup2\n        /* \"#utility.yul\":3463:3493   */\n      gt\n        /* \"#utility.yul\":3460:3516   */\n      iszero\n      tag_61\n      jumpi\n        /* \"#utility.yul\":3496:3514   */\n      tag_61\n      tag_27\n      jump\t// in\n    tag_61:\n        /* \"#utility.yul\":3525:3622   */\n      tag_62\n        /* \"#utility.yul\":3615:3621   */\n      dup2\n        /* \"#utility.yul\":3575:3613   */\n      tag_63\n        /* \"#utility.yul\":3607:3611   */\n      dup5\n        /* \"#utility.yul\":3601:3612   */\n      sload\n        /* \"#utility.yul\":3575:3613   */\n      tag_16\n      jump\t// in\n    tag_63:\n        /* \"#utility.yul\":3569:3573   */\n      dup5\n        /* \"#utility.yul\":3525:3622   */\n      tag_29\n      jump\t// in\n    tag_62:\n        /* \"#utility.yul\":3671:3675   */\n      0x20\n        /* \"#utility.yul\":3702:3704   */\n      0x1f\n        /* \"#utility.yul\":3691:3705   */\n      dup3\n      gt\n        /* \"#utility.yul\":3719:3720   */\n      0x01\n        /* \"#utility.yul\":3714:4363   */\n      dup2\n      eq\n      tag_65\n      jumpi\n        /* \"#utility.yul\":4407:4408   */\n      0x00\n        /* \"#utility.yul\":4424:4430   */\n      dup4\n        /* \"#utility.yul\":4421:4510   */\n      iszero\n      tag_66\n      jumpi\n      pop\n        /* \"#utility.yul\":4476:4495   */\n      dup5\n      dup3\n      add\n        /* \"#utility.yul\":4470:4496   */\n      mload\n        /* \"#utility.yul\":4421:4510   */\n    tag_66:\n      not(0x00)\n        /* \"#utility.yul\":3278:3279   */\n      0x03\n        /* \"#utility.yul\":3274:3285   */\n      dup6\n      swap1\n      shl\n        /* \"#utility.yul\":3270:3294   */\n      shr\n        /* \"#utility.yul\":3266:3295   */\n      not\n        /* \"#utility.yul\":3256:3296   */\n      and\n        /* \"#utility.yul\":3302:3303   */\n      0x01\n        /* \"#utility.yul\":3298:3309   */\n      dup5\n      swap1\n      shl\n        /* \"#utility.yul\":3253:3310   */\n      or\n        /* \"#utility.yul\":4523:4604   */\n      dup5\n      sstore\n        /* \"#utility.yul\":3684:4614   */\n      jump(tag_57)\n        /* \"#utility.yul\":3714:4363   */\n    tag_65:\n        /* \"#utility.yul\":2574:2575   */\n      0x00\n        /* \"#utility.yul\":2567:2581   */\n      dup5\n      dup2\n      mstore\n        /* \"#utility.yul\":2611:2615   */\n      0x20\n        /* \"#utility.yul\":2598:2616   */\n      dup2\n      keccak256\n      not(0x1f)\n        /* \"#utility.yul\":3750:3770   */\n      dup6\n      and\n      swap2\n        /* \"#utility.yul\":3868:4090   */\n    tag_69:\n        /* \"#utility.yul\":3882:3889   */\n      dup3\n        /* \"#utility.yul\":3879:3880   */\n      dup2\n        /* \"#utility.yul\":3876:3890   */\n      lt\n        /* \"#utility.yul\":3868:4090   */\n      iszero\n      tag_71\n      jumpi\n        /* \"#utility.yul\":3964:3983   */\n      dup8\n      dup6\n      add\n        /* \"#utility.yul\":3958:3984   */\n      mload\n        /* \"#utility.yul\":3943:3985   */\n      dup3\n      sstore\n        /* \"#utility.yul\":4071:4075   */\n      0x20\n        /* \"#utility.yul\":4056:4076   */\n      swap5\n      dup6\n      add\n      swap5\n        /* \"#utility.yul\":4024:4025   */\n      0x01\n        /* \"#utility.yul\":4012:4026   */\n      swap1\n      swap3\n      add\n      swap2\n        /* \"#utility.yul\":3898:3910   */\n      add\n        /* \"#utility.yul\":3868:4090   */\n      jump(tag_69)\n    tag_71:\n        /* \"#utility.yul\":3872:3875   */\n      pop\n        /* \"#utility.yul\":4118:4124   */\n      dup5\n        /* \"#utility.yul\":4109:4116   */\n      dup3\n        /* \"#utility.yul\":4106:4125   */\n      lt\n        /* \"#utility.yul\":4103:4304   */\n      iszero\n      tag_72\n      jumpi\n        /* \"#utility.yul\":4179:4198   */\n      dup7\n      dup5\n      add\n        /* \"#utility.yul\":4173:4199   */\n      mload\n      not(0x00)\n        /* \"#utility.yul\":4262:4263   */\n      0x03\n        /* \"#utility.yul\":4258:4272   */\n      dup8\n      swap1\n      shl\n        /* \"#utility.yul\":4274:4277   */\n      0xf8\n        /* \"#utility.yul\":4254:4278   */\n      and\n        /* \"#utility.yul\":4250:4287   */\n      shr\n        /* \"#utility.yul\":4246:4288   */\n      not\n        /* \"#utility.yul\":4231:4289   */\n      and\n        /* \"#utility.yul\":4216:4290   */\n      dup2\n      sstore\n        /* \"#utility.yul\":4103:4304   */\n    tag_72:\n      pop\n      pop\n      pop\n      pop\n        /* \"#utility.yul\":4350:4351   */\n      0x01\n        /* \"#utility.yul\":4334:4348   */\n      swap1\n      dup2\n      shl\n        /* \"#utility.yul\":4330:4352   */\n      add\n        /* \"#utility.yul\":4317:4353   */\n      swap1\n      sstore\n      pop\n        /* \"#utility.yul\":3321:4620   */\n      jump\t// out\n        /* \"#utility.yul\":4625:5086   */\n    tag_25:\n        /* \"#utility.yul\":4887:4888   */\n      0x01\n        /* \"#utility.yul\":4883:4884   */\n      dup1\n        /* \"#utility.yul\":4878:4881   */\n      0xa0\n        /* \"#utility.yul\":4874:4885   */\n      shl\n        /* \"#utility.yul\":4870:4889   */\n      sub\n        /* \"#utility.yul\":4862:4868   */\n      dup6\n        /* \"#utility.yul\":4858:4890   */\n      and\n        /* \"#utility.yul\":4847:4856   */\n      dup2\n        /* \"#utility.yul\":4840:4891   */\n      mstore\n        /* \"#utility.yul\":4927:4933   */\n      dup4\n        /* \"#utility.yul\":4922:4924   */\n      0x20\n        /* \"#utility.yul\":4911:4920   */\n      dup3\n        /* \"#utility.yul\":4907:4925   */\n      add\n        /* \"#utility.yul\":4900:4934   */\n      mstore\n        /* \"#utility.yul\":4970:4973   */\n      0x80\n        /* \"#utility.yul\":4965:4967   */\n      0x40\n        /* \"#utility.yul\":4954:4963   */\n      dup3\n        /* \"#utility.yul\":4950:4968   */\n      add\n        /* \"#utility.yul\":4943:4974   */\n      mstore\n        /* \"#utility.yul\":4821:4825   */\n      0x00\n        /* \"#utility.yul\":4991:5037   */\n      tag_74\n        /* \"#utility.yul\":5032:5035   */\n      0x80\n        /* \"#utility.yul\":5021:5030   */\n      dup4\n        /* \"#utility.yul\":5017:5036   */\n      add\n        /* \"#utility.yul\":5009:5015   */\n      dup6\n        /* \"#utility.yul\":4991:5037   */\n      tag_26\n      jump\t// in\n    tag_74:\n        /* \"#utility.yul\":4983:5037   */\n      swap1\n      pop\n        /* \"#utility.yul\":5073:5079   */\n      dup3\n        /* \"#utility.yul\":5068:5070   */\n      0x60\n        /* \"#utility.yul\":5057:5066   */\n      dup4\n        /* \"#utility.yul\":5053:5071   */\n      add\n        /* \"#utility.yul\":5046:5080   */\n      mstore\n        /* \"#utility.yul\":4625:5086   */\n      swap6\n      swap5\n      pop\n      pop\n      pop\n      pop\n      pop\n      jump\t// out\n\n    auxdata: 0xa2646970667358221220c43237ed55e6a89a4ca06ee7f4f9639795b6e4e0625572e52cdb4b4f45aa41d064736f6c634300081a0033\n}\n",
				"bytecode": {
					"linkReferences": {},
					"object": "608060405234801561000f575f80fd5b506040516107b23803806107b283398101604081905261002e916100d0565b6040805160608101825283815260208082018481524383850152335f90815291829052929020815181559151909190600182019061006c908261020f565b50604091820151600290910155517f8f6415d97d2a428fd228e0563a1ddd3c45befbf761008e41e475165abb71cdaf906100ad9033908590859043906102c9565b60405180910390a1505061031b565b634e487b7160e01b5f52604160045260245ffd5b5f80604083850312156100e1575f80fd5b825160208401519092506001600160401b038111156100fe575f80fd5b8301601f8101851361010e575f80fd5b80516001600160401b03811115610127576101276100bc565b604051601f8201601f19908116603f011681016001600160401b0381118282101715610155576101556100bc565b60405281815282820160200187101561016c575f80fd5b8160208401602083015e5f602083830101528093505050509250929050565b600181811c9082168061019f57607f821691505b6020821081036101bd57634e487b7160e01b5f52602260045260245ffd5b50919050565b601f82111561020a57805f5260205f20601f840160051c810160208510156101e85750805b601f840160051c820191505b81811015610207575f81556001016101f4565b50505b505050565b81516001600160401b03811115610228576102286100bc565b61023c81610236845461018b565b846101c3565b6020601f82116001811461026e575f83156102575750848201515b5f19600385901b1c1916600184901b178455610207565b5f84815260208120601f198516915b8281101561029d578785015182556020948501946001909201910161027d565b50848210156102ba57868401515f19600387901b60f8161c191681555b50505050600190811b01905550565b60018060a01b0385168152836020820152608060408201525f8351806080840152806020860160a085015e5f60a0828501015260a0601f19601f83011684010191505082606083015295945050505050565b61048a806103285f395ff3fe608060405234801561000f575f80fd5b5060043610610034575f3560e01c8063c891091314610038578063e517a0ff14610063575b5f80fd5b61004b61004636600461018a565b610078565b60405161005a939291906101e5565b60405180910390f35b610076610071366004610221565b610120565b005b5f6020819052908152604090208054600182018054919291610099906102de565b80601f01602080910402602001604051908101604052809291908181526020018280546100c5906102de565b80156101105780601f106100e757610100808354040283529160200191610110565b820191905f5260205f20905b8154815290600101906020018083116100f357829003601f168201915b5050505050908060020154905083565b335f9081526020819052604090208281556001810161013f8382610362565b5043600282018190556040517f8f6415d97d2a428fd228e0563a1ddd3c45befbf761008e41e475165abb71cdaf9161017d913391879187919061041d565b60405180910390a1505050565b5f6020828403121561019a575f80fd5b81356001600160a01b03811681146101b0575f80fd5b9392505050565b5f81518084528060208401602086015e5f602082860101526020601f19601f83011685010191505092915050565b838152606060208201525f6101fd60608301856101b7565b9050826040830152949350505050565b634e487b7160e01b5f52604160045260245ffd5b5f8060408385031215610232575f80fd5b82359150602083013567ffffffffffffffff81111561024f575f80fd5b8301601f8101851361025f575f80fd5b803567ffffffffffffffff8111156102795761027961020d565b604051601f8201601f19908116603f0116810167ffffffffffffffff811182821017156102a8576102a861020d565b6040528181528282016020018710156102bf575f80fd5b816020840160208301375f602083830101528093505050509250929050565b600181811c908216806102f257607f821691505b60208210810361031057634e487b7160e01b5f52602260045260245ffd5b50919050565b601f82111561035d57805f5260205f20601f840160051c8101602085101561033b5750805b601f840160051c820191505b8181101561035a575f8155600101610347565b50505b505050565b815167ffffffffffffffff81111561037c5761037c61020d565b6103908161038a84546102de565b84610316565b6020601f8211600181146103c2575f83156103ab5750848201515b5f19600385901b1c1916600184901b17845561035a565b5f84815260208120601f198516915b828110156103f157878501518255602094850194600190920191016103d1565b508482101561040e57868401515f19600387901b60f8161c191681555b50505050600190811b01905550565b60018060a01b0385168152836020820152608060408201525f61044360808301856101b7565b90508260608301529594505050505056fea2646970667358221220c43237ed55e6a89a4ca06ee7f4f9639795b6e4e0625572e52cdb4b4f45aa41d064736f6c634300081a0033",
					"opcodes": "PUSH1 0x80 PUSH1 0x40 MSTORE CALLVALUE DUP1 ISZERO PUSH2 0xF JUMPI PUSH0 DUP1 REVERT JUMPDEST POP PUSH1 0x40 MLOAD PUSH2 0x7B2 CODESIZE SUB DUP1 PUSH2 0x7B2 DUP4 CODECOPY DUP2 ADD PUSH1 0x40 DUP2 SWAP1 MSTORE PUSH2 0x2E SWAP2 PUSH2 0xD0 JUMP JUMPDEST PUSH1 0x40 DUP1 MLOAD PUSH1 0x60 DUP2 ADD DUP3 MSTORE DUP4 DUP2 MSTORE PUSH1 0x20 DUP1 DUP3 ADD DUP5 DUP2 MSTORE NUMBER DUP4 DUP6 ADD MSTORE CALLER PUSH0 SWAP1 DUP2 MSTORE SWAP2 DUP3 SWAP1 MSTORE SWAP3 SWAP1 KECCAK256 DUP2 MLOAD DUP2 SSTORE SWAP2 MLOAD SWAP1 SWAP2 SWAP1 PUSH1 0x1 DUP3 ADD SWAP1 PUSH2 0x6C SWAP1 DUP3 PUSH2 0x20F JUMP JUMPDEST POP PUSH1 0x40 SWAP2 DUP3 ADD MLOAD PUSH1 0x2 SWAP1 SWAP2 ADD SSTORE MLOAD PUSH32 0x8F6415D97D2A428FD228E0563A1DDD3C45BEFBF761008E41E475165ABB71CDAF SWAP1 PUSH2 0xAD SWAP1 CALLER SWAP1 DUP6 SWAP1 DUP6 SWAP1 NUMBER SWAP1 PUSH2 0x2C9 JUMP JUMPDEST PUSH1 0x40 MLOAD DUP1 SWAP2 SUB SWAP1 LOG1 POP POP PUSH2 0x31B JUMP JUMPDEST PUSH4 0x4E487B71 PUSH1 0xE0 SHL PUSH0 MSTORE PUSH1 0x41 PUSH1 0x4 MSTORE PUSH1 0x24 PUSH0 REVERT JUMPDEST PUSH0 DUP1 PUSH1 0x40 DUP4 DUP6 SUB SLT ISZERO PUSH2 0xE1 JUMPI PUSH0 DUP1 REVERT JUMPDEST DUP3 MLOAD PUSH1 0x20 DUP5 ADD MLOAD SWAP1 SWAP3 POP PUSH1 0x1 PUSH1 0x1 PUSH1 0x40 SHL SUB DUP2 GT ISZERO PUSH2 0xFE JUMPI PUSH0 DUP1 REVERT JUMPDEST DUP4 ADD PUSH1 0x1F DUP2 ADD DUP6 SGT PUSH2 0x10E JUMPI PUSH0 DUP1 REVERT JUMPDEST DUP1 MLOAD PUSH1 0x1 PUSH1 0x1 PUSH1 0x40 SHL SUB DUP2 GT ISZERO PUSH2 0x127 JUMPI PUSH2 0x127 PUSH2 0xBC JUMP JUMPDEST PUSH1 0x40 MLOAD PUSH1 0x1F DUP3 ADD PUSH1 0x1F NOT SWAP1 DUP2 AND PUSH1 0x3F ADD AND DUP2 ADD PUSH1 0x1 PUSH1 0x1 PUSH1 0x40 SHL SUB DUP2 GT DUP3 DUP3 LT OR ISZERO PUSH2 0x155 JUMPI PUSH2 0x155 PUSH2 0xBC JUMP JUMPDEST PUSH1 0x40 MSTORE DUP2 DUP2 MSTORE DUP3 DUP3 ADD PUSH1 0x20 ADD DUP8 LT ISZERO PUSH2 0x16C JUMPI PUSH0 DUP1 REVERT JUMPDEST DUP2 PUSH1 0x20 DUP5 ADD PUSH1 0x20 DUP4 ADD MCOPY PUSH0 PUSH1 0x20 DUP4 DUP4 ADD ADD MSTORE DUP1 SWAP4 POP POP POP POP SWAP3 POP SWAP3 SWAP1 POP JUMP JUMPDEST PUSH1 0x1 DUP2 DUP2 SHR SWAP1 DUP3 AND DUP1 PUSH2 0x19F JUMPI PUSH1 0x7F DUP3 AND SWAP2 POP JUMPDEST PUSH1 0x20 DUP3 LT DUP2 SUB PUSH2 0x1BD JUMPI PUSH4 0x4E487B71 PUSH1 0xE0 SHL PUSH0 MSTORE PUSH1 0x22 PUSH1 0x4 MSTORE PUSH1 0x24 PUSH0 REVERT JUMPDEST POP SWAP2 SWAP1 POP JUMP JUMPDEST PUSH1 0x1F DUP3 GT ISZERO PUSH2 0x20A JUMPI DUP1 PUSH0 MSTORE PUSH1 0x20 PUSH0 KECCAK256 PUSH1 0x1F DUP5 ADD PUSH1 0x5 SHR DUP2 ADD PUSH1 0x20 DUP6 LT ISZERO PUSH2 0x1E8 JUMPI POP DUP1 JUMPDEST PUSH1 0x1F DUP5 ADD PUSH1 0x5 SHR DUP3 ADD SWAP2 POP JUMPDEST DUP2 DUP2 LT ISZERO PUSH2 0x207 JUMPI PUSH0 DUP2 SSTORE PUSH1 0x1 ADD PUSH2 0x1F4 JUMP JUMPDEST POP POP JUMPDEST POP POP POP JUMP JUMPDEST DUP2 MLOAD PUSH1 0x1 PUSH1 0x1 PUSH1 0x40 SHL SUB DUP2 GT ISZERO PUSH2 0x228 JUMPI PUSH2 0x228 PUSH2 0xBC JUMP JUMPDEST PUSH2 0x23C DUP2 PUSH2 0x236 DUP5 SLOAD PUSH2 0x18B JUMP JUMPDEST DUP5 PUSH2 0x1C3 JUMP JUMPDEST PUSH1 0x20 PUSH1 0x1F DUP3 GT PUSH1 0x1 DUP2 EQ PUSH2 0x26E JUMPI PUSH0 DUP4 ISZERO PUSH2 0x257 JUMPI POP DUP5 DUP3 ADD MLOAD JUMPDEST PUSH0 NOT PUSH1 0x3 DUP6 SWAP1 SHL SHR NOT AND PUSH1 0x1 DUP5 SWAP1 SHL OR DUP5 SSTORE PUSH2 0x207 JUMP JUMPDEST PUSH0 DUP5 DUP2 MSTORE PUSH1 0x20 DUP2 KECCAK256 PUSH1 0x1F NOT DUP6 AND SWAP2 JUMPDEST DUP3 DUP2 LT ISZERO PUSH2 0x29D JUMPI DUP8 DUP6 ADD MLOAD DUP3 SSTORE PUSH1 0x20 SWAP5 DUP6 ADD SWAP5 PUSH1 0x1 SWAP1 SWAP3 ADD SWAP2 ADD PUSH2 0x27D JUMP JUMPDEST POP DUP5 DUP3 LT ISZERO PUSH2 0x2BA JUMPI DUP7 DUP5 ADD MLOAD PUSH0 NOT PUSH1 0x3 DUP8 SWAP1 SHL PUSH1 0xF8 AND SHR NOT AND DUP2 SSTORE JUMPDEST POP POP POP POP PUSH1 0x1 SWAP1 DUP2 SHL ADD SWAP1 SSTORE POP JUMP JUMPDEST PUSH1 0x1 DUP1 PUSH1 0xA0 SHL SUB DUP6 AND DUP2 MSTORE DUP4 PUSH1 0x20 DUP3 ADD MSTORE PUSH1 0x80 PUSH1 0x40 DUP3 ADD MSTORE PUSH0 DUP4 MLOAD DUP1 PUSH1 0x80 DUP5 ADD MSTORE DUP1 PUSH1 0x20 DUP7 ADD PUSH1 0xA0 DUP6 ADD MCOPY PUSH0 PUSH1 0xA0 DUP3 DUP6 ADD ADD MSTORE PUSH1 0xA0 PUSH1 0x1F NOT PUSH1 0x1F DUP4 ADD AND DUP5 ADD ADD SWAP2 POP POP DUP3 PUSH1 0x60 DUP4 ADD MSTORE SWAP6 SWAP5 POP POP POP POP POP JUMP JUMPDEST PUSH2 0x48A DUP1 PUSH2 0x328 PUSH0 CODECOPY PUSH0 RETURN INVALID PUSH1 0x80 PUSH1 0x40 MSTORE CALLVALUE DUP1 ISZERO PUSH2 0xF JUMPI PUSH0 DUP1 REVERT JUMPDEST POP PUSH1 0x4 CALLDATASIZE LT PUSH2 0x34 JUMPI PUSH0 CALLDATALOAD PUSH1 0xE0 SHR DUP1 PUSH4 0xC8910913 EQ PUSH2 0x38 JUMPI DUP1 PUSH4 0xE517A0FF EQ PUSH2 0x63 JUMPI JUMPDEST PUSH0 DUP1 REVERT JUMPDEST PUSH2 0x4B PUSH2 0x46 CALLDATASIZE PUSH1 0x4 PUSH2 0x18A JUMP JUMPDEST PUSH2 0x78 JUMP JUMPDEST PUSH1 0x40 MLOAD PUSH2 0x5A SWAP4 SWAP3 SWAP2 SWAP1 PUSH2 0x1E5 JUMP JUMPDEST PUSH1 0x40 MLOAD DUP1 SWAP2 SUB SWAP1 RETURN JUMPDEST PUSH2 0x76 PUSH2 0x71 CALLDATASIZE PUSH1 0x4 PUSH2 0x221 JUMP JUMPDEST PUSH2 0x120 JUMP JUMPDEST STOP JUMPDEST PUSH0 PUSH1 0x20 DUP2 SWAP1 MSTORE SWAP1 DUP2 MSTORE PUSH1 0x40 SWAP1 KECCAK256 DUP1 SLOAD PUSH1 0x1 DUP3 ADD DUP1 SLOAD SWAP2 SWAP3 SWAP2 PUSH2 0x99 SWAP1 PUSH2 0x2DE JUMP JUMPDEST DUP1 PUSH1 0x1F ADD PUSH1 0x20 DUP1 SWAP2 DIV MUL PUSH1 0x20 ADD PUSH1 0x40 MLOAD SWAP1 DUP2 ADD PUSH1 0x40 MSTORE DUP1 SWAP3 SWAP2 SWAP1 DUP2 DUP2 MSTORE PUSH1 0x20 ADD DUP3 DUP1 SLOAD PUSH2 0xC5 SWAP1 PUSH2 0x2DE JUMP JUMPDEST DUP1 ISZERO PUSH2 0x110 JUMPI DUP1 PUSH1 0x1F LT PUSH2 0xE7 JUMPI PUSH2 0x100 DUP1 DUP4 SLOAD DIV MUL DUP4 MSTORE SWAP2 PUSH1 0x20 ADD SWAP2 PUSH2 0x110 JUMP JUMPDEST DUP3 ADD SWAP2 SWAP1 PUSH0 MSTORE PUSH1 0x20 PUSH0 KECCAK256 SWAP1 JUMPDEST DUP2 SLOAD DUP2 MSTORE SWAP1 PUSH1 0x1 ADD SWAP1 PUSH1 0x20 ADD DUP1 DUP4 GT PUSH2 0xF3 JUMPI DUP3 SWAP1 SUB PUSH1 0x1F AND DUP3 ADD SWAP2 JUMPDEST POP POP POP POP POP SWAP1 DUP1 PUSH1 0x2 ADD SLOAD SWAP1 POP DUP4 JUMP JUMPDEST CALLER PUSH0 SWAP1 DUP2 MSTORE PUSH1 0x20 DUP2 SWAP1 MSTORE PUSH1 0x40 SWAP1 KECCAK256 DUP3 DUP2 SSTORE PUSH1 0x1 DUP2 ADD PUSH2 0x13F DUP4 DUP3 PUSH2 0x362 JUMP JUMPDEST POP NUMBER PUSH1 0x2 DUP3 ADD DUP2 SWAP1 SSTORE PUSH1 0x40 MLOAD PUSH32 0x8F6415D97D2A428FD228E0563A1DDD3C45BEFBF761008E41E475165ABB71CDAF SWAP2 PUSH2 0x17D SWAP2 CALLER SWAP2 DUP8 SWAP2 DUP8 SWAP2 SWAP1 PUSH2 0x41D JUMP JUMPDEST PUSH1 0x40 MLOAD DUP1 SWAP2 SUB SWAP1 LOG1 POP POP POP JUMP JUMPDEST PUSH0 PUSH1 0x20 DUP3 DUP5 SUB SLT ISZERO PUSH2 0x19A JUMPI PUSH0 DUP1 REVERT JUMPDEST DUP2 CALLDATALOAD PUSH1 0x1 PUSH1 0x1 PUSH1 0xA0 SHL SUB DUP2 AND DUP2 EQ PUSH2 0x1B0 JUMPI PUSH0 DUP1 REVERT JUMPDEST SWAP4 SWAP3 POP POP POP JUMP JUMPDEST PUSH0 DUP2 MLOAD DUP1 DUP5 MSTORE DUP1 PUSH1 0x20 DUP5 ADD PUSH1 0x20 DUP7 ADD MCOPY PUSH0 PUSH1 0x20 DUP3 DUP7 ADD ADD MSTORE PUSH1 0x20 PUSH1 0x1F NOT PUSH1 0x1F DUP4 ADD AND DUP6 ADD ADD SWAP2 POP POP SWAP3 SWAP2 POP POP JUMP JUMPDEST DUP4 DUP2 MSTORE PUSH1 0x60 PUSH1 0x20 DUP3 ADD MSTORE PUSH0 PUSH2 0x1FD PUSH1 0x60 DUP4 ADD DUP6 PUSH2 0x1B7 JUMP JUMPDEST SWAP1 POP DUP3 PUSH1 0x40 DUP4 ADD MSTORE SWAP5 SWAP4 POP POP POP POP JUMP JUMPDEST PUSH4 0x4E487B71 PUSH1 0xE0 SHL PUSH0 MSTORE PUSH1 0x41 PUSH1 0x4 MSTORE PUSH1 0x24 PUSH0 REVERT JUMPDEST PUSH0 DUP1 PUSH1 0x40 DUP4 DUP6 SUB SLT ISZERO PUSH2 0x232 JUMPI PUSH0 DUP1 REVERT JUMPDEST DUP3 CALLDATALOAD SWAP2 POP PUSH1 0x20 DUP4 ADD CALLDATALOAD PUSH8 0xFFFFFFFFFFFFFFFF DUP2 GT ISZERO PUSH2 0x24F JUMPI PUSH0 DUP1 REVERT JUMPDEST DUP4 ADD PUSH1 0x1F DUP2 ADD DUP6 SGT PUSH2 0x25F JUMPI PUSH0 DUP1 REVERT JUMPDEST DUP1 CALLDATALOAD PUSH8 0xFFFFFFFFFFFFFFFF DUP2 GT ISZERO PUSH2 0x279 JUMPI PUSH2 0x279 PUSH2 0x20D JUMP JUMPDEST PUSH1 0x40 MLOAD PUSH1 0x1F DUP3 ADD PUSH1 0x1F NOT SWAP1 DUP2 AND PUSH1 0x3F ADD AND DUP2 ADD PUSH8 0xFFFFFFFFFFFFFFFF DUP2 GT DUP3 DUP3 LT OR ISZERO PUSH2 0x2A8 JUMPI PUSH2 0x2A8 PUSH2 0x20D JUMP JUMPDEST PUSH1 0x40 MSTORE DUP2 DUP2 MSTORE DUP3 DUP3 ADD PUSH1 0x20 ADD DUP8 LT ISZERO PUSH2 0x2BF JUMPI PUSH0 DUP1 REVERT JUMPDEST DUP2 PUSH1 0x20 DUP5 ADD PUSH1 0x20 DUP4 ADD CALLDATACOPY PUSH0 PUSH1 0x20 DUP4 DUP4 ADD ADD MSTORE DUP1 SWAP4 POP POP POP POP SWAP3 POP SWAP3 SWAP1 POP JUMP JUMPDEST PUSH1 0x1 DUP2 DUP2 SHR SWAP1 DUP3 AND DUP1 PUSH2 0x2F2 JUMPI PUSH1 0x7F DUP3 AND SWAP2 POP JUMPDEST PUSH1 0x20 DUP3 LT DUP2 SUB PUSH2 0x310 JUMPI PUSH4 0x4E487B71 PUSH1 0xE0 SHL PUSH0 MSTORE PUSH1 0x22 PUSH1 0x4 MSTORE PUSH1 0x24 PUSH0 REVERT JUMPDEST POP SWAP2 SWAP1 POP JUMP JUMPDEST PUSH1 0x1F DUP3 GT ISZERO PUSH2 0x35D JUMPI DUP1 PUSH0 MSTORE PUSH1 0x20 PUSH0 KECCAK256 PUSH1 0x1F DUP5 ADD PUSH1 0x5 SHR DUP2 ADD PUSH1 0x20 DUP6 LT ISZERO PUSH2 0x33B JUMPI POP DUP1 JUMPDEST PUSH1 0x1F DUP5 ADD PUSH1 0x5 SHR DUP3 ADD SWAP2 POP JUMPDEST DUP2 DUP2 LT ISZERO PUSH2 0x35A JUMPI PUSH0 DUP2 SSTORE PUSH1 0x1 ADD PUSH2 0x347 JUMP JUMPDEST POP POP JUMPDEST POP POP POP JUMP JUMPDEST DUP2 MLOAD PUSH8 0xFFFFFFFFFFFFFFFF DUP2 GT ISZERO PUSH2 0x37C JUMPI PUSH2 0x37C PUSH2 0x20D JUMP JUMPDEST PUSH2 0x390 DUP2 PUSH2 0x38A DUP5 SLOAD PUSH2 0x2DE JUMP JUMPDEST DUP5 PUSH2 0x316 JUMP JUMPDEST PUSH1 0x20 PUSH1 0x1F DUP3 GT PUSH1 0x1 DUP2 EQ PUSH2 0x3C2 JUMPI PUSH0 DUP4 ISZERO PUSH2 0x3AB JUMPI POP DUP5 DUP3 ADD MLOAD JUMPDEST PUSH0 NOT PUSH1 0x3 DUP6 SWAP1 SHL SHR NOT AND PUSH1 0x1 DUP5 SWAP1 SHL OR DUP5 SSTORE PUSH2 0x35A JUMP JUMPDEST PUSH0 DUP5 DUP2 MSTORE PUSH1 0x20 DUP2 KECCAK256 PUSH1 0x1F NOT DUP6 AND SWAP2 JUMPDEST DUP3 DUP2 LT ISZERO PUSH2 0x3F1 JUMPI DUP8 DUP6 ADD MLOAD DUP3 SSTORE PUSH1 0x20 SWAP5 DUP6 ADD SWAP5 PUSH1 0x1 SWAP1 SWAP3 ADD SWAP2 ADD PUSH2 0x3D1 JUMP JUMPDEST POP DUP5 DUP3 LT ISZERO PUSH2 0x40E JUMPI DUP7 DUP5 ADD MLOAD PUSH0 NOT PUSH1 0x3 DUP8 SWAP1 SHL PUSH1 0xF8 AND SHR NOT AND DUP2 SSTORE JUMPDEST POP POP POP POP PUSH1 0x1 SWAP1 DUP2 SHL ADD SWAP1 SSTORE POP JUMP JUMPDEST PUSH1 0x1 DUP1 PUSH1 0xA0 SHL SUB DUP6 AND DUP2 MSTORE DUP4 PUSH1 0x20 DUP3 ADD MSTORE PUSH1 0x80 PUSH1 0x40 DUP3 ADD MSTORE PUSH0 PUSH2 0x443 PUSH1 0x80 DUP4 ADD DUP6 PUSH2 0x1B7 JUMP JUMPDEST SWAP1 POP DUP3 PUSH1 0x60 DUP4 ADD MSTORE SWAP6 SWAP5 POP POP POP POP POP JUMP INVALID LOG2 PUSH5 0x6970667358 0x22 SLT KECCAK256 0xC4 ORIGIN CALLDATACOPY 0xED SSTORE 0xE6 0xA8 SWAP11 0x4C LOG0 PUSH15 0xE7F4F9639795B6E4E0625572E52CDB 0x4B 0x4F GASLIMIT 0xAA COINBASE 0xD0 PUSH5 0x736F6C6343 STOP ADDMOD BYTE STOP CALLER "
				},
				"gasEstimates": {
					"creation": {
						"codeDepositCost": "232400",
						"executionCost": "infinite",
						"totalCost": "infinite"
					},
					"external": {
						"setNumber(uint256,string)": "infinite",
						"userData(address)": "infinite"
					}
				},
				"methodIdentifiers": {
					"setNumber(uint256,string)": "e517a0ff",
					"userData(address)": "c8910913"
				}
			},
			"storageLayout": {
				"storage": [
					{
						"astId": 13,
						"contract": "Contract1.sol:NumberStorage",
						"label": "userData",
						"offset": 0,
						"slot": "0",
						"type": "t_mapping(t_address,t_struct(UserData)8_storage)"
					}
				],
				"types": {
					"t_address": {
						"encoding": "inplace",
						"label": "address",
						"numberOfBytes": "20"
					},
					"t_mapping(t_address,t_struct(UserData)8_storage)": {
						"encoding": "mapping",
						"key": "t_address",
						"label": "mapping(address => struct NumberStorage.UserData)",
						"numberOfBytes": "32",
						"value": "t_struct(UserData)8_storage"
					},
					"t_string_storage": {
						"encoding": "bytes",
						"label": "string",
						"numberOfBytes": "32"
					},
					"t_struct(UserData)8_storage": {
						"encoding": "inplace",
						"label": "struct NumberStorage.UserData",
						"members": [
							{
								"astId": 3,
								"contract": "Contract1.sol:NumberStorage",
								"label": "number",
								"offset": 0,
								"slot": "0",
								"type": "t_uint256"
							},
							{
								"astId": 5,
								"contract": "Contract1.sol:NumberStorage",
								"label": "comment",
								"offset": 0,
								"slot": "1",
								"type": "t_string_storage"
							},
							{
								"astId": 7,
								"contract": "Contract1.sol:NumberStorage",
								"label": "blockNumber",
								"offset": 0,
								"slot": "2",
								"type": "t_uint256"
							}
						],
						"numberOfBytes": "96"
					},
					"t_uint256": {
						"encoding": "inplace",
						"label": "uint256",
						"numberOfBytes": "32"
					}
				}
			},
			"userdoc": {
				"kind": "user",
				"methods": {},
				"version": 1
			}
		}
	}
}